{
  "_format": "hh-sol-artifact-1",
  "contractName": "Donates",
  "sourceName": "contracts/Donates.sol",
  "abi": [
    {
      "inputs": [
        {
          "internalType": "uint256",
          "name": "k",
          "type": "uint256"
        }
      ],
      "stateMutability": "nonpayable",
      "type": "constructor"
    },
    {
      "inputs": [],
      "name": "Alreadyexists",
      "type": "error"
    },
    {
      "inputs": [
        {
          "internalType": "string",
          "name": "arrName",
          "type": "string"
        }
      ],
      "name": "ArrayIsEmpty",
      "type": "error"
    },
    {
      "inputs": [],
      "name": "CantBeEmpty",
      "type": "error"
    },
    {
      "anonymous": false,
      "inputs": [
        {
          "indexed": true,
          "internalType": "string",
          "name": "streamerUUid",
          "type": "string"
        },
        {
          "components": [
            {
              "internalType": "string",
              "name": "uuid",
              "type": "string"
            },
            {
              "components": [
                {
                  "internalType": "string",
                  "name": "userName",
                  "type": "string"
                },
                {
                  "internalType": "string",
                  "name": "messageText",
                  "type": "string"
                }
              ],
              "internalType": "struct PaymentUserData",
              "name": "paymentUserData",
              "type": "tuple"
            },
            {
              "components": [
                {
                  "internalType": "uint256",
                  "name": "date",
                  "type": "uint256"
                },
                {
                  "internalType": "string",
                  "name": "fromUUID",
                  "type": "string"
                },
                {
                  "internalType": "string",
                  "name": "toUUID",
                  "type": "string"
                },
                {
                  "internalType": "uint256",
                  "name": "wishId",
                  "type": "uint256"
                },
                {
                  "internalType": "address",
                  "name": "toAddress",
                  "type": "address"
                },
                {
                  "internalType": "enum PaymentType",
                  "name": "paymentType",
                  "type": "uint8"
                }
              ],
              "internalType": "struct PaymentInfo",
              "name": "paymentInfo",
              "type": "tuple"
            },
            {
              "internalType": "uint256",
              "name": "amount",
              "type": "uint256"
            },
            {
              "internalType": "uint256",
              "name": "transferedToUserAmount",
              "type": "uint256"
            }
          ],
          "indexed": false,
          "internalType": "struct Payment",
          "name": "payment",
          "type": "tuple"
        },
        {
          "indexed": true,
          "internalType": "enum PaymentType",
          "name": "paymentType",
          "type": "uint8"
        }
      ],
      "name": "PaymentCredited",
      "type": "event"
    },
    {
      "anonymous": false,
      "inputs": [
        {
          "indexed": true,
          "internalType": "string",
          "name": "uuid",
          "type": "string"
        },
        {
          "indexed": false,
          "internalType": "string",
          "name": "name",
          "type": "string"
        }
      ],
      "name": "UserCreated",
      "type": "event"
    },
    {
      "anonymous": false,
      "inputs": [
        {
          "indexed": true,
          "internalType": "string",
          "name": "userUUID",
          "type": "string"
        },
        {
          "indexed": false,
          "internalType": "uint256",
          "name": "wishid",
          "type": "uint256"
        },
        {
          "indexed": false,
          "internalType": "uint256",
          "name": "price",
          "type": "uint256"
        }
      ],
      "name": "WishCompleted",
      "type": "event"
    },
    {
      "anonymous": false,
      "inputs": [
        {
          "indexed": true,
          "internalType": "string",
          "name": "userUUID",
          "type": "string"
        },
        {
          "indexed": false,
          "internalType": "uint256",
          "name": "wishid",
          "type": "uint256"
        },
        {
          "indexed": false,
          "internalType": "uint256",
          "name": "accumulatedAmount",
          "type": "uint256"
        }
      ],
      "name": "WishDeleted",
      "type": "event"
    },
    {
      "anonymous": false,
      "inputs": [
        {
          "indexed": true,
          "internalType": "string",
          "name": "userUUID",
          "type": "string"
        },
        {
          "indexed": false,
          "internalType": "uint256",
          "name": "wishId",
          "type": "uint256"
        },
        {
          "indexed": false,
          "internalType": "uint256",
          "name": "price",
          "type": "uint256"
        }
      ],
      "name": "wishAdded",
      "type": "event"
    },
    {
      "inputs": [
        {
          "components": [
            {
              "internalType": "string",
              "name": "userUUID",
              "type": "string"
            },
            {
              "internalType": "uint256",
              "name": "id",
              "type": "uint256"
            },
            {
              "internalType": "uint256",
              "name": "currentBalance",
              "type": "uint256"
            },
            {
              "internalType": "uint256",
              "name": "price",
              "type": "uint256"
            },
            {
              "internalType": "string",
              "name": "name",
              "type": "string"
            },
            {
              "internalType": "string",
              "name": "link",
              "type": "string"
            },
            {
              "internalType": "string",
              "name": "description",
              "type": "string"
            },
            {
              "internalType": "bool",
              "name": "completed",
              "type": "bool"
            }
          ],
          "internalType": "struct Wish",
          "name": "wish",
          "type": "tuple"
        }
      ],
      "name": "AddWish",
      "outputs": [],
      "stateMutability": "nonpayable",
      "type": "function"
    },
    {
      "inputs": [
        {
          "internalType": "string",
          "name": "newName",
          "type": "string"
        }
      ],
      "name": "ChangeName",
      "outputs": [],
      "stateMutability": "nonpayable",
      "type": "function"
    },
    {
      "inputs": [
        {
          "internalType": "address",
          "name": "useraddr",
          "type": "address"
        },
        {
          "internalType": "uint256",
          "name": "wishId",
          "type": "uint256"
        },
        {
          "internalType": "bool",
          "name": "remove",
          "type": "bool"
        }
      ],
      "name": "CompleteOrRemoveWish",
      "outputs": [],
      "stateMutability": "nonpayable",
      "type": "function"
    },
    {
      "inputs": [
        {
          "internalType": "string",
          "name": "uuid",
          "type": "string"
        },
        {
          "components": [
            {
              "internalType": "string",
              "name": "userName",
              "type": "string"
            },
            {
              "internalType": "string",
              "name": "messageText",
              "type": "string"
            }
          ],
          "internalType": "struct PaymentUserData",
          "name": "pud",
          "type": "tuple"
        },
        {
          "components": [
            {
              "internalType": "uint256",
              "name": "date",
              "type": "uint256"
            },
            {
              "internalType": "string",
              "name": "fromUUID",
              "type": "string"
            },
            {
              "internalType": "string",
              "name": "toUUID",
              "type": "string"
            },
            {
              "internalType": "uint256",
              "name": "wishId",
              "type": "uint256"
            },
            {
              "internalType": "address",
              "name": "toAddress",
              "type": "address"
            },
            {
              "internalType": "enum PaymentType",
              "name": "paymentType",
              "type": "uint8"
            }
          ],
          "internalType": "struct PaymentInfo",
          "name": "pi",
          "type": "tuple"
        }
      ],
      "name": "Donate",
      "outputs": [],
      "stateMutability": "payable",
      "type": "function"
    },
    {
      "inputs": [],
      "name": "K",
      "outputs": [
        {
          "internalType": "uint256",
          "name": "",
          "type": "uint256"
        }
      ],
      "stateMutability": "view",
      "type": "function"
    },
    {
      "inputs": [],
      "name": "MINIMAL_TRANSFER_COST",
      "outputs": [
        {
          "internalType": "uint256",
          "name": "",
          "type": "uint256"
        }
      ],
      "stateMutability": "view",
      "type": "function"
    },
    {
      "inputs": [
        {
          "internalType": "uint256",
          "name": "amount",
          "type": "uint256"
        }
      ],
      "name": "OwnerWithdaw",
      "outputs": [],
      "stateMutability": "nonpayable",
      "type": "function"
    },
    {
      "inputs": [
        {
          "internalType": "string",
          "name": "name",
          "type": "string"
        },
        {
          "internalType": "string",
          "name": "uuid",
          "type": "string"
        },
        {
          "internalType": "string[]",
          "name": "topics",
          "type": "string[]"
        }
      ],
      "name": "RegisterUser",
      "outputs": [],
      "stateMutability": "nonpayable",
      "type": "function"
    },
    {
      "inputs": [],
      "name": "SCALE",
      "outputs": [
        {
          "internalType": "uint256",
          "name": "",
          "type": "uint256"
        }
      ],
      "stateMutability": "view",
      "type": "function"
    },
    {
      "inputs": [
        {
          "internalType": "string",
          "name": "uuid",
          "type": "string"
        },
        {
          "internalType": "string",
          "name": "userUUID",
          "type": "string"
        },
        {
          "internalType": "uint256",
          "name": "amount",
          "type": "uint256"
        }
      ],
      "name": "Withdraw",
      "outputs": [],
      "stateMutability": "nonpayable",
      "type": "function"
    },
    {
      "inputs": [],
      "name": "owner",
      "outputs": [
        {
          "internalType": "address payable",
          "name": "",
          "type": "address"
        }
      ],
      "stateMutability": "view",
      "type": "function"
    },
    {
      "inputs": [],
      "name": "ownerBalance",
      "outputs": [
        {
          "internalType": "uint256",
          "name": "",
          "type": "uint256"
        }
      ],
      "stateMutability": "view",
      "type": "function"
    },
    {
      "inputs": [
        {
          "internalType": "address",
          "name": "",
          "type": "address"
        }
      ],
      "name": "users",
      "outputs": [
        {
          "components": [
            {
              "internalType": "string",
              "name": "uuid",
              "type": "string"
            },
            {
              "internalType": "string",
              "name": "name",
              "type": "string"
            },
            {
              "components": [
                {
                  "internalType": "string",
                  "name": "uuid",
                  "type": "string"
                },
                {
                  "components": [
                    {
                      "internalType": "string",
                      "name": "userName",
                      "type": "string"
                    },
                    {
                      "internalType": "string",
                      "name": "messageText",
                      "type": "string"
                    }
                  ],
                  "internalType": "struct PaymentUserData",
                  "name": "paymentUserData",
                  "type": "tuple"
                },
                {
                  "components": [
                    {
                      "internalType": "uint256",
                      "name": "date",
                      "type": "uint256"
                    },
                    {
                      "internalType": "string",
                      "name": "fromUUID",
                      "type": "string"
                    },
                    {
                      "internalType": "string",
                      "name": "toUUID",
                      "type": "string"
                    },
                    {
                      "internalType": "uint256",
                      "name": "wishId",
                      "type": "uint256"
                    },
                    {
                      "internalType": "address",
                      "name": "toAddress",
                      "type": "address"
                    },
                    {
                      "internalType": "enum PaymentType",
                      "name": "paymentType",
                      "type": "uint8"
                    }
                  ],
                  "internalType": "struct PaymentInfo",
                  "name": "paymentInfo",
                  "type": "tuple"
                },
                {
                  "internalType": "uint256",
                  "name": "amount",
                  "type": "uint256"
                },
                {
                  "internalType": "uint256",
                  "name": "transferedToUserAmount",
                  "type": "uint256"
                }
              ],
              "internalType": "struct Payment[]",
              "name": "payments",
              "type": "tuple[]"
            },
            {
              "components": [
                {
                  "internalType": "string",
                  "name": "userUUID",
                  "type": "string"
                },
                {
                  "internalType": "uint256",
                  "name": "id",
                  "type": "uint256"
                },
                {
                  "internalType": "uint256",
                  "name": "currentBalance",
                  "type": "uint256"
                },
                {
                  "internalType": "uint256",
                  "name": "price",
                  "type": "uint256"
                },
                {
                  "internalType": "string",
                  "name": "name",
                  "type": "string"
                },
                {
                  "internalType": "string",
                  "name": "link",
                  "type": "string"
                },
                {
                  "internalType": "string",
                  "name": "description",
                  "type": "string"
                },
                {
                  "internalType": "bool",
                  "name": "completed",
                  "type": "bool"
                }
              ],
              "internalType": "struct Wish[]",
              "name": "wishes",
              "type": "tuple[]"
            },
            {
              "internalType": "string[]",
              "name": "topics",
              "type": "string[]"
            }
          ],
          "internalType": "struct User",
          "name": "user",
          "type": "tuple"
        },
        {
          "internalType": "uint256",
          "name": "currentBalance",
          "type": "uint256"
        }
      ],
      "stateMutability": "view",
      "type": "function"
    }
  ],
  "bytecode": "0x6080346100f457601f61278838819003918201601f19168301916001600160401b038311848410176100f8578084926020946040528339810103126100f4575180158015806100ea575b15610097575f80546001600160a01b03191633178155600355600a8281029283041417156100835760015560405161267b908161010d8239f35b634e487b7160e01b5f52601160045260245ffd5b60405162461bcd60e51b815260206004820152602560248201527f4b2063616e277420626520657175616c20746f2030206f72206d6f72652074686044820152640616e2031360dc1b6064820152608490fd5b50600a8210610049565b5f80fd5b634e487b7160e01b5f52604160045260245ffdfe6080806040526004361015610012575f80fd5b5f3560e01c908163143d351d146117c35750806320c2d29b14610ca95780633c09ba6e14610b1157806354845a4714610af15780636057882714610a605780637c3c9cbf146107315780638da5cb5b1461070c5780639f9eac67146105c9578063a87430ba14610139578063a932492f1461011c578063bedcf003146100ff578063c9e651c0146100cb5763eced5526146100ab575f80fd5b346100c7575f3660031901126100c75760206040516103e88152f35b5f80fd5b346100c75760603660031901126100c7576100e4611b85565b60443580151581036100c7576100fd916024359061235a565b005b346100c7575f3660031901126100c7576020600354604051908152f35b346100c7575f3660031901126100c7576020600154604051908152f35b346100c75760203660031901126100c7576001600160a01b0361015a611b85565b165f52600260205260405f2060405161017281611a95565b61017b82611bd3565b815261018960018301611bd3565b916020820192835260028101908154916101a283611b6d565b926101b06040519485611ae9565b80845260208401915f5260205f205f925b8284106104d45750505050604083019182526003810180546101e281611b6d565b916101f06040519384611ae9565b81835260208301905f5260205f205f915b83831061044a5750505050606084019081526004820191825461022381611b6d565b936102316040519586611ae9565b81855260208501905f5260205f205f915b83831061042d5750505050600561028d916080870194855201549561027a60405196604088525160a0604089015260e0880190611c73565b9051868203603f19016060880152611c73565b925192603f19858203016080860152835180825260208201916020808360051b8301019601925f915b8383106104005750505050505191603f198482030160a0850152825180825260208201916020808360051b8301019501925f915b83831061035f5750505050505190603f198382030160c0840152815180825260208201916020808360051b8301019401925f915b838310610332578680878a60208301520390f35b9091929394602080610350600193601f198682030187528951611c73565b9701930193019193929061031e565b9091929395602080600192601f1985820301865289519060e0806103e96103d76103c561039787516101008852610100880190611c73565b8888015189880152604088015160408801526060880151606088015260808801518782036080890152611c73565b60a087015186820360a0880152611c73565b60c086015185820360c0870152611c73565b9301511515910152980193019301919392906102ea565b909192939660208061041e600193601f198682030187528b51611c97565b990193019301919392906102b6565b60016020819261043c85611bd3565b815201920192019190610242565b6008602060019260405161045d81611a78565b61046686611bd3565b81528486015483820152600286015460408201526003860154606082015261049060048701611bd3565b60808201526104a160058701611bd3565b60a08201526104b260068701611bd3565b60c082015260ff600787015416151560e0820152815201920192019190610201565b604051906104e182611a95565b6104ea83611bd3565b82526040516104f881611ab1565b61050460018501611bd3565b815261051260028501611bd3565b602082015260208301526040519061052982611acd565b6003840154825261053c60048501611bd3565b602083015261054d60058501611bd3565b60408301526006840154606083015260ff60078501546001600160a01b038116608085015260a01c169060028210156105b5576001938360209360a0600a960152604082015260088601546060820152600986015460808201528152019201930192906101c1565b634e487b7160e01b5f52602160045260245ffd5b346100c75760203660031901126100c75760043567ffffffffffffffff81116100c7576105fa903690600401611b27565b8051156106e457335f526002602052600160405f2001815167ffffffffffffffff81116106d0576106358161062f8454611b9b565b84611dad565b602092601f821160011461067457610665929382915f92610669575b50508160011b915f199060031b1c19161790565b9055005b015190508480610651565b601f19821693835f52805f20915f5b8681106106b857508360019596106106a0575b505050811b019055005b01515f1960f88460031b161c19169055838080610696565b91926020600181928685015181550194019201610683565b634e487b7160e01b5f52604160045260245ffd5b7f6bc8ebc4000000000000000000000000000000000000000000000000000000005f5260045ffd5b346100c7575f3660031901126100c75760206001600160a01b035f5416604051908152f35b60603660031901126100c75760043567ffffffffffffffff81116100c75761075d903690600401611b27565b6024359067ffffffffffffffff82116100c757604060031983360301126100c7576040519161078b83611ab1565b806004013567ffffffffffffffff81116100c7576107af9060043691840101611b27565b835260248101359067ffffffffffffffff82116100c75760046107d59236920101611b27565b60208301526044359167ffffffffffffffff83116100c75760c060031984360301126100c75760405161080781611acd565b83600401358152602484013567ffffffffffffffff81116100c7576108329060043691870101611b27565b9360208201948552604481013567ffffffffffffffff81116100c75761085e9060043691840101611b27565b94604083019586526060830192606483013584526084830135926001600160a01b03841684036100c7576080820193845260a401359060028210156100c75760a00152845115610a1c576503895343e2c034106109d8576001600160a01b0390519551925191511691604051956108d487611acd565b42875260208701526040860152606085015260808401525f60a0840152604051916108fe83611a95565b8252602082015260408101918252346060820152608081015f8152600154928334029334850414341517156109c4576109aa60406109bf9261099f7f8641214593227d3404460886f37864b6475408b50d7e677738e122aaae424bde956103e85f99049061096c82346121a0565b906001600160a01b03608086510151168b5260026020526005868c2001610994838254612273565b905552600354612273565b600355510151612136565b92604051918291602083526020830190611c97565b0390a3005b634e487b7160e01b5f52601160045260245ffd5b606460405162461bcd60e51b815260206004820152602060248201527f646f6e617465206d757374206265206d6f7265207468616e2031302063656e746044820152fd5b606460405162461bcd60e51b815260206004820152601260248201527f757569642063616e2774206265206e756c6c00000000000000000000000000006044820152fd5b346100c75760203660031901126100c7576004356001600160a01b035f54163303610aad575f80808084610a996100fd966003546121a0565b600355335af1610aa76121ad565b506121dc565b606460405162461bcd60e51b815260206004820152601060248201527f75206d757374206265206f776e657221000000000000000000000000000000006044820152fd5b346100c7575f3660031901126100c75760206040516503895343e2c08152f35b346100c75760603660031901126100c75760043567ffffffffffffffff81116100c757610b42903690600401611b27565b60243567ffffffffffffffff81116100c757610b62903690600401611b27565b60443590335f52600260205281600560405f200154106100c757335f526002602052600560405f2001610b968382546121a0565b9055610bab5f80808086335af1610aa76121ad565b335f526002602052610bd460405f2060405192610bc784611acd565b4284526020840152611bd3565b60408201525f6060820152336080820152600160a0820152335f526002602052600160405f200191610c1160405193610c0c85611ab1565b611bd3565b8352602092604051610c238582611ae9565b5f81528482015260405194610c3786611a95565b855283850152604084019182528060608501526080840152335f526002825260a060405f20915101519260028410156105b557610c947f8641214593227d3404460886f37864b6475408b50d7e677738e122aaae424bde926121f7565b926109bf604051928284938452830190611c97565b346100c75760603660031901126100c75760043567ffffffffffffffff81116100c757610cda903690600401611b27565b60243567ffffffffffffffff81116100c757610cfa903690600401611b27565b9060443567ffffffffffffffff81116100c757366023820112156100c7578060040135610d2681611b6d565b91610d346040519384611ae9565b8183526024602084019260051b820101903682116100c75760248101925b828410611793575050505081511561174f5760405191610d7183611a95565b838352602083015260606040830152606080830152608082015260405190610d9882611ab1565b8152602081015f8152335f52600260205260405f20908251805180519067ffffffffffffffff82116106d057610dd882610dd28754611b9b565b87611dad565b602090601f83116001146116ec57610e0692915f91836116e15750508160011b915f199060031b1c19161790565b83555b60018301602082015180519067ffffffffffffffff82116106d057610e3882610e328554611b9b565b85611dad565b602090601f831160011461167e57610e6692915f91836116735750508160011b915f199060031b1c19161790565b90555b6002830160408201518051906801000000000000000082116106d05782548284558083106115dd575b50602001915f5260205f20915f905b82821061116e5750505050600383016060820151908151916801000000000000000083116106d05781548383558084106110ad575b50602001905f5260205f205f915b83831061108f575050505060800151805160048401916801000000000000000082116106d0578254828455808310611062575b50602001915f5260205f20915f905b828210610f8157845160058701558651602001517ff32a9ee0d17d25c086bbe1fd7492121a0d326db5884d4b48a2401572db4844fb610f7c610f678b612136565b92604051918291602083526020830190611c73565b0390a2005b805180519067ffffffffffffffff82116106d057610fa982610fa38854611b9b565b88611dad565b602090601f8311600114610ff95792610fdf836001959460209487965f92610fee5750508160011b915f199060031b1c19161790565b87555b01940191019092610f26565b015190508e80610651565b90601f19831691875f52815f20925f5b81811061104a5750936020936001969387969383889510611032575b505050811b018755610fe2565b01515f1960f88460031b161c191690558d8080611025565b92936020600181928786015181550195019301611009565b835f528260205f2091820191015b81811061107d5750610f17565b80611089600192612152565b01611070565b60086020826110a16001945186611df0565b01920192019190610ee4565b7f1fffffffffffffffffffffffffffffffffffffffffffffffffffffffffffffff811681036109c4577f1fffffffffffffffffffffffffffffffffffffffffffffffffffffffffffffff841684036109c457825f5260205f209060031b8101908460031b015b8181106111205750610ed6565b60089061112c81612152565b5f60018201555f60028201555f600382015561114a60048201612152565b61115660058201612152565b61116260068201612152565b5f600782015501611113565b8051805180519067ffffffffffffffff82116106d057611198826111928954611b9b565b89611dad565b602090601f831160011461157a576111c692915f918361156f5750508160011b915f199060031b1c19161790565b85555b602081015180518051600188019167ffffffffffffffff82116106d0576111f482610e328554611b9b565b602090601f831160011461150c5761122292915f91836113d85750508160011b915f199060031b1c19161790565b90555b602001518051600287019167ffffffffffffffff82116106d05761124d82610e328554611b9b565b602090601f83116001146114a95761127b92915f9183610fee5750508160011b915f199060031b1c19161790565b90555b6040810151908151600387015560048601602083015180519067ffffffffffffffff82116106d0576112b482610e328554611b9b565b602090601f8311600114611446576112e292915f91836113d85750508160011b915f199060031b1c19161790565b90555b60058601604083015180519067ffffffffffffffff82116106d05761130e82610e328554611b9b565b602090601f83116001146113e35761133c92915f91836113d85750508160011b915f199060031b1c19161790565b90555b6060820151600687015560078601926001600160a01b036080840151169160a085549401519060028210156105b557600195600a956020957fffffffffffffffffffffff00000000000000000000000000000000000000000074ff000000000000000000000000000000000000000060809660a01b16921617179055606081015160088a01550151600988015501940191019092610ea1565b015190508f80610651565b90601f19831691845f52815f20925f5b81811061142e5750908460019594939210611416575b505050811b01905561133f565b01515f1960f88460031b161c191690558e8080611409565b929360206001819287860151815501950193016113f3565b90601f19831691845f52815f20925f5b8181106114915750908460019594939210611479575b505050811b0190556112e5565b01515f1960f88460031b161c191690558e808061146c565b92936020600181928786015181550195019301611456565b90601f19831691845f52815f20925f5b8181106114f457509084600195949392106114dc575b505050811b01905561127e565b01515f1960f88460031b161c191690558d80806114cf565b929360206001819287860151815501950193016114b9565b90601f19831691845f52815f20925f5b818110611557575090846001959493921061153f575b505050811b019055611225565b01515f1960f88460031b161c191690558e8080611532565b9293602060018192878601518155019501930161151c565b015190508d80610651565b90601f19831691885f52815f20925f5b8181106115c557509084600195949392106115ad575b505050811b0185556111c9565b01515f1960f88460031b161c191690558c80806115a0565b9293602060018192878601518155019501930161158a565b80600a0290600a8204036109c45782600a02600a810484036109c457845f5260205f2091820191015b8181106116135750610e92565b8061161f600a92612152565b61162b60018201612152565b61163760028201612152565b5f600382015561164960048201612152565b61165560058201612152565b5f60068201555f60078201555f60088201555f600982015501611606565b015190508980610651565b90601f19831691845f52815f20925f5b8181106116c957509084600195949392106116b1575b505050811b019055610e69565b01515f1960f88460031b161c191690558880806116a4565b9293602060018192878601518155019501930161168e565b015190508880610651565b90601f19831691865f52815f20925f5b818110611737575090846001959493921061171f575b505050811b018355610e09565b01515f1960f88460031b161c19169055878080611712565b929360206001819287860151815501950193016116fc565b606460405162461bcd60e51b815260206004820152601360248201527f6e616d652063616e277420626520656d707479000000000000000000000000006044820152fd5b833567ffffffffffffffff81116100c7576020916117b8839260243691870101611b27565b815201930192610d52565b346100c75760203660031901126100c75760043567ffffffffffffffff81116100c75761010060031982360301126100c7576117fe82611a78565b806004013567ffffffffffffffff81116100c7576118229060043691840101611b27565b825260208201916024820135835260448201356040820152606081019160648101358352608481013567ffffffffffffffff81116100c75761186a9060043691840101611b27565b608083015260a481013567ffffffffffffffff81116100c7576118939060043691840101611b27565b60a083015260c48101359067ffffffffffffffff82116100c7576118bf60e49260043691840101611b27565b60c0840152013580151581036100c75760e08201908152825115611a3457516119f0575f335f526002602052600360405f20015f908054915b8281106119c4575b50505061199c57335f526002602052600360405f20018054680100000000000000008110156106d05761193891600182018155611d6a565b9290926119895761197b826119706040947fa20eb3050f26a69d3aa3037b52cecd573e39d122b67d07fe1e5933bd27ffbcfb96611df0565b519451915194612136565b9382519182526020820152a2005b634e487b7160e01b5f525f60045260245ffd5b7f9be4f888000000000000000000000000000000000000000000000000000000005f5260045ffd5b60016119d08284611d6a565b5001548751146119e2576001016118f8565b505050506001848080611900565b606460405162461bcd60e51b815260206004820152601c60248201527f63616e2774207075626c69736820636f6d706c657465642077697368000000006044820152fd5b606460405162461bcd60e51b815260206004820152601b60248201527f636f7374206d757374206265206d6f7265207468616e207a65726f00000000006044820152fd5b610100810190811067ffffffffffffffff8211176106d057604052565b60a0810190811067ffffffffffffffff8211176106d057604052565b6040810190811067ffffffffffffffff8211176106d057604052565b60c0810190811067ffffffffffffffff8211176106d057604052565b90601f8019910116810190811067ffffffffffffffff8211176106d057604052565b67ffffffffffffffff81116106d057601f01601f191660200190565b81601f820112156100c757803590611b3e82611b0b565b92611b4c6040519485611ae9565b828452602083830101116100c757815f926020809301838601378301015290565b67ffffffffffffffff81116106d05760051b60200190565b600435906001600160a01b03821682036100c757565b90600182811c92168015611bc9575b6020831014611bb557565b634e487b7160e01b5f52602260045260245ffd5b91607f1691611baa565b9060405191825f825492611be684611b9b565b8084529360018116908115611c515750600114611c0d575b50611c0b92500383611ae9565b565b90505f9291925260205f20905f915b818310611c35575050906020611c0b928201015f611bfe565b6020919350806001915483858901015201910190918492611c1c565b905060209250611c0b94915060ff191682840152151560051b8201015f611bfe565b805180835260209291819084018484015e5f828201840152601f01601f1916010190565b90611ce2611cae835160a0845260a0840190611c73565b60208401519083810360208501526020611cd18351604084526040840190611c73565b920151906020818403910152611c73565b9160408101519282810360408401528351815260a0611d25611d13602087015160c0602086015260c0850190611c73565b60408701518482036040860152611c73565b94606081015160608401526001600160a01b03608082015116608084015201519160028310156105b55760809260a08493015260608101516060850152015191015290565b8054821015611d83575f5260205f209060031b01905f90565b634e487b7160e01b5f52603260045260245ffd5b818110611da2575050565b5f8155600101611d97565b9190601f8111611dbc57505050565b611c0b925f5260205f20906020601f840160051c83019310611de6575b601f0160051c0190611d97565b9091508190611dd9565b919091825192835167ffffffffffffffff81116106d057611e1581610e328554611b9b565b602094601f82116001146120d557611e469293949582915f92611f975750508160011b915f199060031b1c19161790565b82555b60208101516001830155604081015160028301556060810151600383015560048201608082015180519067ffffffffffffffff82116106d057611e9082610e328554611b9b565b602090601f831160011461207257611ebe92915f9183611f975750508160011b915f199060031b1c19161790565b90555b6005820160a082015180519067ffffffffffffffff82116106d057611eea82610e328554611b9b565b602090601f831160011461200f57611f1892915f9183611f975750508160011b915f199060031b1c19161790565b90555b6006820160c082015180519067ffffffffffffffff82116106d057611f4482610e328554611b9b565b602090601f8311600114611fa25792611f7d8360e094611c0b9897946007975f92611f975750508160011b915f199060031b1c19161790565b90555b0151151591019060ff801983541691151516179055565b015190505f80610651565b90601f19831691845f52815f20925f5b818110611ff7575093611c0b979693600796936001938360e09810611fdf575b505050811b019055611f80565b01515f1960f88460031b161c191690555f8080611fd2565b92936020600181928786015181550195019301611fb2565b90601f19831691845f52815f20925f5b81811061205a5750908460019594939210612042575b505050811b019055611f1b565b01515f1960f88460031b161c191690555f8080612035565b9293602060018192878601518155019501930161201f565b90601f19831691845f52815f20925f5b8181106120bd57509084600195949392106120a5575b505050811b019055611ec1565b01515f1960f88460031b161c191690555f8080612098565b92936020600181928786015181550195019301612082565b601f19821695845f52805f20915f5b88811061211e57508360019596979810612106575b505050811b018255611e49565b01515f1960f88460031b161c191690555f80806120f9565b919260206001819286850151815501940192016120e4565b602090604051918183925191829101835e81015f815203902090565b61215c8154611b9b565b9081612166575050565b81601f5f9311600114612177575055565b8183526020832061219391601f0160051c810190600101611d97565b8082528160208120915555565b919082039182116109c457565b3d156121d7573d906121be82611b0b565b916121cc6040519384611ae9565b82523d5f602084013e565b606090565b156121e357565b634e487b7160e01b5f52600160045260245ffd5b60405180915f9080549061220a82611b9b565b916001811690811561225c5750600114612227575b505003902090565b9091505f5260205f205f905b82821061224557505081015f8061221f565b805482860152849350602090910190600101612233565b60ff19168552505080151502820190505f8061221f565b919082018092116109c457565b919091828114612355576122948354611b9b565b67ffffffffffffffff81116106d0576122b18161062f8454611b9b565b5f93601f82116001146122ef576122e092939482915f926122e45750508160011b915f199060031b1c19161790565b9055565b015490505f80610651565b601f198216905f5260205f2094835f5260205f20915f5b81811061233d57509583600195969710612325575b505050811b019055565b01545f1960f88460031b161c191690555f808061231b565b9192600180602092868b015481550194019201612306565b509050565b6001600160a01b0316805f526002602052600360405f2001918254156125e7575f5b8354808210156125df578260016123938488611d6a565b500154146123a4575060010161237c565b90929394612473575060ff60076123bb8487611d6a565b5001541661242f577fa1dd8bfffc07fc409283ebe17379c69ebf3009c7850e520417c606d1859533ff9260076124028460036123f96040978a611d6a565b50015497611d6a565b5001600160ff198254161790555f526002602052612421825f206121f7565b9382519182526020820152a2565b606460405162461bcd60e51b815260206004820152601160248201527f616c726561647920636f6d706c657465640000000000000000000000000000006044820152fd5b93929160026124828286611d6a565b500154945f1981019081116109c45761249e6124a69186611d6a565b509185611d6a565b61198957818103612561575b50508254801561254d575f1901916124ca8385611d6a565b939093611989577fa1dd8bfffc07fc409283ebe17379c69ebf3009c7850e520417c606d1859533ff945f600786612502604098612152565b82600182015582600282015582600382015561252060048201612152565b61252c60058201612152565b61253860068201612152565b0155555f526002602052612421825f206121f7565b634e487b7160e01b5f52603160045260245ffd5b600760ff81846125746125d89686612280565b6001810154600186015560028101546002860155600381015460038601556125a26004820160048701612280565b6125b26005820160058701612280565b6125c26006820160068701612280565b01541691019060ff801983541691151516179055565b5f806124b2565b505050505050565b60646040517f38fe1e9a00000000000000000000000000000000000000000000000000000000815260206004820152600660248201527f77697368657300000000000000000000000000000000000000000000000000006044820152fdfea2646970667358221220aa3fcf0eb103c1d44d2ccd370da57671c4a5b7a19a58308ed592f5c93dadb42164736f6c634300081c0033",
  "linkReferences": {},
  "deployedLinkReferences": {}
}