{
  "contracts/Donates.sol": {
    "Donates": {
      "abi": [
        {
          "inputs": [
            {
              "internalType": "uint256",
              "name": "k",
              "type": "uint256"
            }
          ],
          "stateMutability": "nonpayable",
          "type": "constructor"
        },
        {
          "inputs": [],
          "name": "Alreadyexists",
          "type": "error"
        },
        {
          "inputs": [
            {
              "internalType": "string",
              "name": "arrName",
              "type": "string"
            }
          ],
          "name": "ArrayIsEmpty",
          "type": "error"
        },
        {
          "inputs": [],
          "name": "CantBeEmpty",
          "type": "error"
        },
        {
          "inputs": [],
          "name": "MustBeMoreThanMinimalTransferCost",
          "type": "error"
        },
        {
          "anonymous": false,
          "inputs": [
            {
              "indexed": true,
              "internalType": "string",
              "name": "streamerUUid",
              "type": "string"
            },
            {
              "components": [
                {
                  "internalType": "string",
                  "name": "uuid",
                  "type": "string"
                },
                {
                  "components": [
                    {
                      "internalType": "string",
                      "name": "userName",
                      "type": "string"
                    },
                    {
                      "internalType": "string",
                      "name": "messageText",
                      "type": "string"
                    }
                  ],
                  "internalType": "struct PaymentUserData",
                  "name": "paymentUserData",
                  "type": "tuple"
                },
                {
                  "components": [
                    {
                      "internalType": "uint256",
                      "name": "date",
                      "type": "uint256"
                    },
                    {
                      "internalType": "string",
                      "name": "fromUUID",
                      "type": "string"
                    },
                    {
                      "internalType": "string",
                      "name": "toUUID",
                      "type": "string"
                    },
                    {
                      "internalType": "string",
                      "name": "wishUUID",
                      "type": "string"
                    },
                    {
                      "internalType": "address",
                      "name": "toAddress",
                      "type": "address"
                    },
                    {
                      "internalType": "enum PaymentType",
                      "name": "paymentType",
                      "type": "uint8"
                    }
                  ],
                  "internalType": "struct PaymentInfo",
                  "name": "paymentInfo",
                  "type": "tuple"
                },
                {
                  "internalType": "uint256",
                  "name": "amount",
                  "type": "uint256"
                },
                {
                  "internalType": "uint256",
                  "name": "transferedToUserAmount",
                  "type": "uint256"
                }
              ],
              "indexed": false,
              "internalType": "struct Payment",
              "name": "payment",
              "type": "tuple"
            },
            {
              "indexed": true,
              "internalType": "enum PaymentType",
              "name": "paymentType",
              "type": "uint8"
            }
          ],
          "name": "PaymentCredited",
          "type": "event"
        },
        {
          "anonymous": false,
          "inputs": [
            {
              "indexed": true,
              "internalType": "string",
              "name": "uuid",
              "type": "string"
            },
            {
              "indexed": false,
              "internalType": "string",
              "name": "name",
              "type": "string"
            }
          ],
          "name": "UserCreated",
          "type": "event"
        },
        {
          "anonymous": false,
          "inputs": [
            {
              "indexed": true,
              "internalType": "string",
              "name": "userUUID",
              "type": "string"
            },
            {
              "indexed": false,
              "internalType": "string",
              "name": "wishId",
              "type": "string"
            },
            {
              "indexed": false,
              "internalType": "uint256",
              "name": "price",
              "type": "uint256"
            }
          ],
          "name": "WishAdded",
          "type": "event"
        },
        {
          "anonymous": false,
          "inputs": [
            {
              "indexed": true,
              "internalType": "string",
              "name": "userUUID",
              "type": "string"
            },
            {
              "indexed": false,
              "internalType": "string",
              "name": "wishid",
              "type": "string"
            },
            {
              "indexed": false,
              "internalType": "uint256",
              "name": "price",
              "type": "uint256"
            }
          ],
          "name": "WishCompleted",
          "type": "event"
        },
        {
          "anonymous": false,
          "inputs": [
            {
              "indexed": true,
              "internalType": "string",
              "name": "userUUID",
              "type": "string"
            },
            {
              "indexed": false,
              "internalType": "string",
              "name": "wishid",
              "type": "string"
            },
            {
              "indexed": false,
              "internalType": "uint256",
              "name": "accumulatedAmount",
              "type": "uint256"
            }
          ],
          "name": "WishDeleted",
          "type": "event"
        },
        {
          "inputs": [],
          "name": "K",
          "outputs": [
            {
              "internalType": "uint256",
              "name": "",
              "type": "uint256"
            }
          ],
          "stateMutability": "view",
          "type": "function"
        },
        {
          "inputs": [],
          "name": "MINIMAL_TRANSFER_COST",
          "outputs": [
            {
              "internalType": "uint256",
              "name": "",
              "type": "uint256"
            }
          ],
          "stateMutability": "view",
          "type": "function"
        },
        {
          "inputs": [],
          "name": "SCALE",
          "outputs": [
            {
              "internalType": "uint256",
              "name": "",
              "type": "uint256"
            }
          ],
          "stateMutability": "view",
          "type": "function"
        },
        {
          "inputs": [
            {
              "components": [
                {
                  "internalType": "string",
                  "name": "userUUID",
                  "type": "string"
                },
                {
                  "internalType": "string",
                  "name": "uuid",
                  "type": "string"
                },
                {
                  "internalType": "uint256",
                  "name": "currentBalance",
                  "type": "uint256"
                },
                {
                  "internalType": "uint256",
                  "name": "price",
                  "type": "uint256"
                },
                {
                  "internalType": "string",
                  "name": "name",
                  "type": "string"
                },
                {
                  "internalType": "string",
                  "name": "link",
                  "type": "string"
                },
                {
                  "internalType": "string",
                  "name": "description",
                  "type": "string"
                },
                {
                  "internalType": "bool",
                  "name": "completed",
                  "type": "bool"
                }
              ],
              "internalType": "struct Wish",
              "name": "wish",
              "type": "tuple"
            }
          ],
          "name": "addWish",
          "outputs": [],
          "stateMutability": "nonpayable",
          "type": "function"
        },
        {
          "inputs": [
            {
              "internalType": "string",
              "name": "newName",
              "type": "string"
            }
          ],
          "name": "changeName",
          "outputs": [],
          "stateMutability": "nonpayable",
          "type": "function"
        },
        {
          "inputs": [
            {
              "internalType": "address",
              "name": "useraddr",
              "type": "address"
            },
            {
              "internalType": "string",
              "name": "wishId",
              "type": "string"
            },
            {
              "internalType": "bool",
              "name": "remove",
              "type": "bool"
            }
          ],
          "name": "completeOrRemoveWish",
          "outputs": [],
          "stateMutability": "nonpayable",
          "type": "function"
        },
        {
          "inputs": [
            {
              "internalType": "string",
              "name": "uuid",
              "type": "string"
            },
            {
              "components": [
                {
                  "internalType": "string",
                  "name": "userName",
                  "type": "string"
                },
                {
                  "internalType": "string",
                  "name": "messageText",
                  "type": "string"
                }
              ],
              "internalType": "struct PaymentUserData",
              "name": "pud",
              "type": "tuple"
            },
            {
              "components": [
                {
                  "internalType": "uint256",
                  "name": "date",
                  "type": "uint256"
                },
                {
                  "internalType": "string",
                  "name": "fromUUID",
                  "type": "string"
                },
                {
                  "internalType": "string",
                  "name": "toUUID",
                  "type": "string"
                },
                {
                  "internalType": "string",
                  "name": "wishUUID",
                  "type": "string"
                },
                {
                  "internalType": "address",
                  "name": "toAddress",
                  "type": "address"
                },
                {
                  "internalType": "enum PaymentType",
                  "name": "paymentType",
                  "type": "uint8"
                }
              ],
              "internalType": "struct PaymentInfo",
              "name": "pi",
              "type": "tuple"
            }
          ],
          "name": "donate",
          "outputs": [],
          "stateMutability": "payable",
          "type": "function"
        },
        {
          "inputs": [
            {
              "internalType": "address",
              "name": "userAddress",
              "type": "address"
            }
          ],
          "name": "isRegistered",
          "outputs": [
            {
              "internalType": "bool",
              "name": "",
              "type": "bool"
            }
          ],
          "stateMutability": "view",
          "type": "function"
        },
        {
          "inputs": [],
          "name": "owner",
          "outputs": [
            {
              "internalType": "address payable",
              "name": "",
              "type": "address"
            }
          ],
          "stateMutability": "view",
          "type": "function"
        },
        {
          "inputs": [],
          "name": "ownerBalance",
          "outputs": [
            {
              "internalType": "uint256",
              "name": "",
              "type": "uint256"
            }
          ],
          "stateMutability": "view",
          "type": "function"
        },
        {
          "inputs": [
            {
              "internalType": "uint256",
              "name": "amount",
              "type": "uint256"
            }
          ],
          "name": "ownerWithdaw",
          "outputs": [],
          "stateMutability": "nonpayable",
          "type": "function"
        },
        {
          "inputs": [
            {
              "internalType": "string",
              "name": "name",
              "type": "string"
            },
            {
              "internalType": "string",
              "name": "uuid",
              "type": "string"
            },
            {
              "internalType": "string[]",
              "name": "topics",
              "type": "string[]"
            }
          ],
          "name": "registerUser",
          "outputs": [],
          "stateMutability": "nonpayable",
          "type": "function"
        },
        {
          "inputs": [
            {
              "internalType": "address",
              "name": "",
              "type": "address"
            }
          ],
          "name": "users",
          "outputs": [
            {
              "components": [
                {
                  "internalType": "string",
                  "name": "uuid",
                  "type": "string"
                },
                {
                  "internalType": "string",
                  "name": "name",
                  "type": "string"
                },
                {
                  "components": [
                    {
                      "internalType": "string",
                      "name": "uuid",
                      "type": "string"
                    },
                    {
                      "components": [
                        {
                          "internalType": "string",
                          "name": "userName",
                          "type": "string"
                        },
                        {
                          "internalType": "string",
                          "name": "messageText",
                          "type": "string"
                        }
                      ],
                      "internalType": "struct PaymentUserData",
                      "name": "paymentUserData",
                      "type": "tuple"
                    },
                    {
                      "components": [
                        {
                          "internalType": "uint256",
                          "name": "date",
                          "type": "uint256"
                        },
                        {
                          "internalType": "string",
                          "name": "fromUUID",
                          "type": "string"
                        },
                        {
                          "internalType": "string",
                          "name": "toUUID",
                          "type": "string"
                        },
                        {
                          "internalType": "string",
                          "name": "wishUUID",
                          "type": "string"
                        },
                        {
                          "internalType": "address",
                          "name": "toAddress",
                          "type": "address"
                        },
                        {
                          "internalType": "enum PaymentType",
                          "name": "paymentType",
                          "type": "uint8"
                        }
                      ],
                      "internalType": "struct PaymentInfo",
                      "name": "paymentInfo",
                      "type": "tuple"
                    },
                    {
                      "internalType": "uint256",
                      "name": "amount",
                      "type": "uint256"
                    },
                    {
                      "internalType": "uint256",
                      "name": "transferedToUserAmount",
                      "type": "uint256"
                    }
                  ],
                  "internalType": "struct Payment[]",
                  "name": "payments",
                  "type": "tuple[]"
                },
                {
                  "components": [
                    {
                      "internalType": "string",
                      "name": "userUUID",
                      "type": "string"
                    },
                    {
                      "internalType": "string",
                      "name": "uuid",
                      "type": "string"
                    },
                    {
                      "internalType": "uint256",
                      "name": "currentBalance",
                      "type": "uint256"
                    },
                    {
                      "internalType": "uint256",
                      "name": "price",
                      "type": "uint256"
                    },
                    {
                      "internalType": "string",
                      "name": "name",
                      "type": "string"
                    },
                    {
                      "internalType": "string",
                      "name": "link",
                      "type": "string"
                    },
                    {
                      "internalType": "string",
                      "name": "description",
                      "type": "string"
                    },
                    {
                      "internalType": "bool",
                      "name": "completed",
                      "type": "bool"
                    }
                  ],
                  "internalType": "struct Wish[]",
                  "name": "wishes",
                  "type": "tuple[]"
                },
                {
                  "internalType": "string[]",
                  "name": "topics",
                  "type": "string[]"
                },
                {
                  "internalType": "bool",
                  "name": "isRegistered",
                  "type": "bool"
                }
              ],
              "internalType": "struct User",
              "name": "user",
              "type": "tuple"
            },
            {
              "internalType": "uint256",
              "name": "currentBalance",
              "type": "uint256"
            }
          ],
          "stateMutability": "view",
          "type": "function"
        },
        {
          "inputs": [
            {
              "internalType": "string",
              "name": "uuid",
              "type": "string"
            },
            {
              "internalType": "string",
              "name": "userUUID",
              "type": "string"
            },
            {
              "internalType": "uint256",
              "name": "amount",
              "type": "uint256"
            }
          ],
          "name": "withdraw",
          "outputs": [],
          "stateMutability": "nonpayable",
          "type": "function"
        }
      ],
      "evm": {
        "bytecode": {
          "linkReferences": {},
          "object": "60806040523461002f576100196100146100e0565b61031f565b610021610034565b6140636103a9823961406390f35b61003a565b60405190565b5f80fd5b601f801991011690565b634e487b7160e01b5f52604160045260245ffd5b906100669061003e565b810190811060018060401b0382111761007e57604052565b610048565b9061009661008f610034565b928361005c565b565b5f80fd5b90565b6100a88161009c565b036100af57565b5f80fd5b905051906100c08261009f565b565b906020828203126100db576100d8915f016100b3565b90565b610098565b6100fe61440c803803806100f381610083565b9283398101906100c2565b90565b90565b90565b61011b61011661012092610101565b610104565b61009c565b90565b90565b61013a61013561013f92610123565b610104565b61009c565b90565b60209181520190565b60207f616e203130000000000000000000000000000000000000000000000000000000917f4b2063616e277420626520657175616c20746f2030206f72206d6f72652074685f8201520152565b6101a56025604092610142565b6101ae8161014b565b0190565b6101c79060208101905f818303910152610198565b90565b156101d157565b6101d9610034565b62461bcd60e51b8152806101ef600482016101b2565b0390fd5b60018060a01b031690565b61021261020d610217926101f3565b610104565b6101f3565b90565b610223906101fe565b90565b61022f9061021a565b90565b5f1b90565b9061024860018060a01b0391610232565b9181191691161790565b61025b9061021a565b90565b90565b9061027661027161027d92610252565b61025e565b8254610237565b9055565b9061028d5f1991610232565b9181191691161790565b6102ab6102a66102b09261009c565b610104565b61009c565b90565b90565b906102cb6102c66102d292610297565b6102b3565b8254610281565b9055565b634e487b7160e01b5f52601160045260245ffd5b6102f96102ff9193929361009c565b9261009c565b9161030b83820261009c565b92818404149015171561031a57565b6102d6565b61037f61038691806103396103335f610107565b9161009c565b141580610388575b61034a906101ca565b61035c61035633610226565b5f610261565b61036f6103685f610107565b60036102b6565b610379600a610126565b906102ea565b60016102b6565b565b5061034a816103a061039a600a610126565b9161009c565b10905061034156fe60806040526004361015610013575b6118c8565b61001d5f356100fc565b806309722e0c146100f75780635353a2d8146100f257806354845a47146100ed5780636a162ece146100e85780638da5cb5b146100e3578063a87430ba146100de578063a932492f146100d9578063ba73b818146100d4578063bedcf003146100cf578063c3c5a547146100ca578063e7a8c912146100c5578063eced5526146100c0578063f4426bfb146100bb5763f69e6d470361000e57611895565b61184d565b61163b565b6115cf565b611482565b61142b565b6113e8565b611348565b6112dd565b61065b565b6105a8565b6104d8565b610436565b6103ce565b60e01c90565b60405190565b5f80fd5b5f80fd5b5f80fd5b5f80fd5b601f801991011690565b7f4e487b71000000000000000000000000000000000000000000000000000000005f52604160045260245ffd5b9061015990610118565b810190811067ffffffffffffffff82111761017357604052565b610122565b9061018b610184610102565b928361014f565b565b5f80fd5b5f80fd5b5f80fd5b67ffffffffffffffff81116101b7576101b3602091610118565b0190565b610122565b90825f939282370152565b909291926101dc6101d782610199565b610178565b938185526020850190828401116101f8576101f6926101bc565b565b610195565b9080601f8301121561021b57816020610218933591016101c7565b90565b610191565b90565b61022c81610220565b0361023357565b5f80fd5b9050359061024482610223565b565b151590565b61025481610246565b0361025b57565b5f80fd5b9050359061026c8261024b565b565b9190916101008184031261038f57610287610100610178565b925f82013567ffffffffffffffff811161038a57816102a79184016101fd565b5f850152602082013567ffffffffffffffff811161038557816102cb9184016101fd565b60208501526102dd8160408401610237565b60408501526102ef8160608401610237565b6060850152608082013567ffffffffffffffff811161038057816103149184016101fd565b608085015260a082013567ffffffffffffffff811161037b57816103399184016101fd565b60a085015260c08201359167ffffffffffffffff8311610376576103628261036f9483016101fd565b60c086015260e00161025f565b60e0830152565b61018d565b61018d565b61018d565b61018d565b61018d565b610114565b906020828203126103c4575f82013567ffffffffffffffff81116103bf576103bc920161026e565b90565b610110565b61010c565b5f0190565b346103fc576103e66103e1366004610394565b612056565b6103ee610102565b806103f8816103c9565b0390f35b610108565b90602082820312610431575f82013567ffffffffffffffff811161042c5761042992016101fd565b90565b610110565b61010c565b346104645761044e610449366004610401565b61223f565b610456610102565b80610460816103c9565b0390f35b610108565b5f91031261047357565b61010c565b90565b90565b61049261048d61049792610478565b61047b565b610220565b90565b6104a864e8d4a5100061047e565b90565b6104b361049a565b90565b6104bf90610220565b9052565b91906104d6905f602085019401906104b6565b565b34610508576104e8366004610469565b6105046104f36104ab565b6104fb610102565b918291826104c3565b0390f35b610108565b73ffffffffffffffffffffffffffffffffffffffff1690565b61052f9061050d565b90565b61053b81610526565b0361054257565b5f80fd5b9050359061055382610532565b565b90916060828403126105a35761056d835f8401610546565b9260208301359067ffffffffffffffff821161059e576105928161059b9386016101fd565b9360400161025f565b90565b610110565b61010c565b346105d7576105c16105bb366004610555565b9161295b565b6105c9610102565b806105d3816103c9565b0390f35b610108565b1c90565b73ffffffffffffffffffffffffffffffffffffffff1690565b61060990600861060e93026105dc565b6105e0565b90565b9061061c91546105f9565b90565b61062a5f5f90610611565b90565b6106369061050d565b90565b6106429061062d565b9052565b9190610659905f60208501940190610639565b565b3461068b5761066b366004610469565b61068761067661061f565b61067e610102565b91829182610646565b0390f35b610108565b906020828203126106a9576106a6915f01610546565b90565b61010c565b6106c26106bd6106c79261050d565b61047b565b61050d565b90565b6106d3906106ae565b90565b6106df906106ca565b90565b906106ec906106d6565b5f5260205260405f2090565b7f4e487b71000000000000000000000000000000000000000000000000000000005f52602260045260245ffd5b9060016002830492168015610745575b602083101461074057565b6106f8565b91607f1691610735565b60209181520190565b5f5260205f2090565b905f929180549061077b61077483610725565b809461074f565b916001811690815f146107d25750600114610796575b505050565b6107a39192939450610758565b915f925b8184106107ba57505001905f8080610791565b600181602092959395548486015201910192906107a7565b92949550505060ff19168252151560200201905f8080610791565b906107f791610761565b90565b9061081a6108139261080a610102565b938480926107ed565b038361014f565b565b52565b5490565b67ffffffffffffffff811161083b5760208091020190565b610122565b9061085261084d83610823565b610178565b918252565b5f5260205f2090565b61086a6040610178565b90565b906108a461089b600161087e610860565b9461089561088d5f83016107fa565b5f880161081c565b016107fa565b6020840161081c565b565b52565b5f1c90565b90565b6108bd6108c2916108a9565b6108ae565b90565b6108cf90546108b1565b90565b906108dc90610220565b9052565b73ffffffffffffffffffffffffffffffffffffffff1690565b61090561090a916108a9565b6108e0565b90565b61091790546108f9565b90565b9061092490610526565b9052565b60a01c90565b60ff1690565b61094061094591610928565b61092e565b90565b6109529054610934565b90565b7f4e487b71000000000000000000000000000000000000000000000000000000005f52602160045260245ffd5b6002111561098c57565b610955565b9061099b82610982565b565b906109a790610991565b9052565b6109b560c0610178565b90565b90610a4e610a4560046109c96109ab565b946109e06109d85f83016108c5565b5f88016108d2565b6109f86109ef600183016107fa565b6020880161081c565b610a10610a07600283016107fa565b6040880161081c565b610a28610a1f600383016107fa565b6060880161081c565b610a3f610a3683830161090d565b6080880161091a565b01610948565b60a0840161099d565b565b52565b610a5d60a0610178565b90565b90610adf610ad66009610a71610a53565b94610a88610a805f83016107fa565b5f880161081c565b610aa0610a976001830161086d565b602088016108a6565b610ab8610aaf600383016109b8565b60408801610a50565b610ad0610ac7600883016108c5565b606088016108d2565b016108c5565b608084016108d2565b565b610aea90610a60565b90565b90610af78261081f565b610b0081610840565b92610b0e6020850191610857565b5f915b838310610b1e5750505050565b600a6020600192610b2e85610ae1565b815201920192019190610b11565b52565b5490565b67ffffffffffffffff8111610b5b5760208091020190565b610122565b90610b72610b6d83610b43565b610178565b918252565b5f5260205f2090565b60ff1690565b610b92610b97916108a9565b610b80565b90565b610ba49054610b86565b90565b90610bb190610246565b9052565b610bc0610100610178565b90565b90610c8a610c816007610bd4610bb5565b94610beb610be35f83016107fa565b5f880161081c565b610c03610bfa600183016107fa565b6020880161081c565b610c1b610c12600283016108c5565b604088016108d2565b610c33610c2a600383016108c5565b606088016108d2565b610c4b610c42600483016107fa565b6080880161081c565b610c63610c5a600583016107fa565b60a0880161081c565b610c7b610c72600683016107fa565b60c0880161081c565b01610b9a565b60e08401610ba7565b565b610c9590610bc3565b90565b90610ca282610b3f565b610cab81610b60565b92610cb96020850191610b77565b5f915b838310610cc95750505050565b60086020600192610cd985610c8c565b815201920192019190610cbc565b52565b5490565b67ffffffffffffffff8111610d065760208091020190565b610122565b90610d1d610d1883610cee565b610178565b918252565b5f5260205f2090565b610d34906107fa565b90565b90610d4182610cea565b610d4a81610d0b565b92610d586020850191610d22565b5f915b838310610d685750505050565b600160208192610d7785610d2b565b815201920192019190610d5b565b52565b610d9260c0610178565b90565b90610e2c610e236005610da6610d88565b94610dbd610db55f83016107fa565b5f880161081c565b610dd5610dcc600183016107fa565b6020880161081c565b610ded610de460028301610aed565b60408801610b3c565b610e05610dfc60038301610c98565b60608801610ce7565b610e1d610e1460048301610d37565b60808801610d85565b01610b9a565b60a08401610ba7565b565b610e399060026106e2565b90610e516006610e4a5f8501610d95565b93016108c5565b90565b5190565b90825f9392825e0152565b610e82610e8b602093610e9093610e7981610e54565b9384809361074f565b95869101610e58565b610118565b0190565b5190565b60209181520190565b60200190565b610ed5916020610ec4604083015f8501518482035f860152610e63565b920151906020818403910152610e63565b90565b610ee190610220565b9052565b610eee90610526565b9052565b610efb90610991565b90565b610f0790610ef2565b9052565b90610f839060a080610f66610f54610f4260c08601610f305f8a01515f890190610ed8565b60208901518782036020890152610e63565b60408801518682036040880152610e63565b60608701518582036060870152610e63565b94610f7960808201516080860190610ee5565b0151910190610efe565b90565b90610fec90608080610fcf610fbd610fab60a086015f8901518782035f890152610e63565b60208801518682036020880152610ea7565b60408701518582036040870152610f0b565b94610fe260608201516060860190610ed8565b0151910190610ed8565b90565b90610ff991610f86565b90565b60200190565b9061101661100f83610e94565b8092610e98565b908161102760208302840194610ea1565b925f915b83831061103a57505050505090565b9091929394602061105c61105683856001950387528951610fef565b97610ffc565b930193019193929061102b565b5190565b60209181520190565b60200190565b61108590610246565b9052565b9061112c9060e08061112161110f6110fd6110c76110b561010088015f8b01518982035f8b0152610e63565b60208a015188820360208a0152610e63565b6110d960408a01516040890190610ed8565b6110eb60608a01516060890190610ed8565b60808901518782036080890152610e63565b60a088015186820360a0880152610e63565b60c087015185820360c0870152610e63565b94015191019061107c565b90565b9061113991611089565b90565b60200190565b9061115661114f83611069565b809261106d565b908161116760208302840194611076565b925f915b83831061117a57505050505090565b9091929394602061119c6111968385600195038752895161112f565b9761113c565b930193019193929061116b565b5190565b60209181520190565b60200190565b906111c691610e63565b90565b60200190565b906111e36111dc836111a9565b80926111ad565b90816111f4602083028401946111b6565b925f915b83831061120757505050505090565b90919293946020611229611223838560019503875289516111bc565b976111c9565b93019301919392906111f8565b906112b49060a0806112a961129761128561127361126160c088015f8b01518982035f8b0152610e63565b60208a015188820360208a0152610e63565b60408901518782036040890152611002565b60608801518682036060880152611142565b608087015185820360808701526111cf565b94015191019061107c565b90565b929160206112d36112db9360408701908782035f890152611236565b9401906104b6565b565b3461130e576112f56112f0366004610690565b610e2e565b9061130a611301610102565b928392836112b7565b0390f35b610108565b61132390600861132893026105dc565b6108ae565b90565b906113369154611313565b90565b61134560015f9061132b565b90565b3461137857611358366004610469565b611374611363611339565b61136b610102565b918291826104c3565b0390f35b610108565b90916060828403126113e3575f82013567ffffffffffffffff81116113de57836113a89184016101fd565b9260208301359067ffffffffffffffff82116113d9576113cd816113d69386016101fd565b93604001610237565b90565b610110565b610110565b61010c565b34611417576114016113fb36600461137d565b91612e0f565b611409610102565b80611413816103c9565b0390f35b610108565b61142860035f9061132b565b90565b3461145b5761143b366004610469565b61145761144661141c565b61144e610102565b918291826104c3565b0390f35b610108565b61146990610246565b9052565b9190611480905f60208501940190611460565b565b346114b2576114ae61149d611498366004610690565b61301e565b6114a5610102565b9182918261146d565b0390f35b610108565b5f80fd5b9291906114cf6114ca82610cee565b610178565b93818552602080860192028101918383116115265781905b8382106114f5575050505050565b813567ffffffffffffffff81116115215760209161151687849387016101fd565b8152019101906114e7565b610191565b6114b7565b9080601f8301121561154957816020611546933591016114bb565b90565b610191565b916060838303126115ca575f83013567ffffffffffffffff81116115c557826115789185016101fd565b92602081013567ffffffffffffffff81116115c057836115999183016101fd565b92604082013567ffffffffffffffff81116115bb576115b8920161152b565b90565b610110565b610110565b610110565b61010c565b346115fe576115e86115e236600461154e565b9161381e565b6115f0610102565b806115fa816103c9565b0390f35b610108565b90565b61161a61161561161f92611603565b61047b565b610220565b90565b61162d6103e8611606565b90565b611638611622565b90565b3461166b5761164b366004610469565b611667611656611630565b61165e610102565b918291826104c3565b0390f35b610108565b9190916040818403126116da576116876040610178565b925f82013567ffffffffffffffff81116116d557816116a79184016101fd565b5f850152602082013567ffffffffffffffff81116116d0576116c992016101fd565b6020830152565b61018d565b61018d565b610114565b600211156116e957565b5f80fd5b905035906116fa826116df565b565b91909160c0818403126117c75761171360c0610178565b92611720815f8401610237565b5f850152602082013567ffffffffffffffff81116117c257816117449184016101fd565b6020850152604082013567ffffffffffffffff81116117bd57816117699184016101fd565b604085015260608201359167ffffffffffffffff83116117b857611792826117b19483016101fd565b60608601526117a48260808301610546565b608086015260a0016116ed565b60a0830152565b61018d565b61018d565b61018d565b610114565b91606083830312611848575f83013567ffffffffffffffff811161184357826117f69185016101fd565b92602081013567ffffffffffffffff811161183e5783611817918301611670565b92604082013567ffffffffffffffff81116118395761183692016116fc565b90565b610110565b610110565b610110565b61010c565b61186161185b3660046117cc565b91613a65565b611869610102565b80611873816103c9565b0390f35b906020828203126118905761188d915f01610237565b90565b61010c565b346118c3576118ad6118a8366004611877565b613ed3565b6118b5610102565b806118bf816103c9565b0390f35b610108565b5f80fd5b6118d69051610220565b90565b90565b6118f06118eb6118f5926118d9565b61047b565b610220565b90565b60209181520190565b5f7f636f7374206d757374206265206d6f7265207468616e207a65726f0000000000910152565b611935601b6020926118f8565b61193e81611901565b0190565b6119579060208101905f818303910152611928565b90565b1561196157565b611969610102565b7f08c379a00000000000000000000000000000000000000000000000000000000081528061199960048201611942565b0390fd5b6119a79051610246565b90565b5f7f63616e2774207075626c69736820636f6d706c65746564207769736800000000910152565b6119de601c6020926118f8565b6119e7816119aa565b0190565b611a009060208101905f8183039101526119d1565b90565b15611a0a57565b611a12610102565b7f08c379a000000000000000000000000000000000000000000000000000000000815280611a42600482016119eb565b0390fd5b90565b6001611a559101610220565b90565b5490565b7f4e487b71000000000000000000000000000000000000000000000000000000005f52603260045260245ffd5b5f5260205f2090565b5f5260205f2090565b611aa481611a58565b821015611abe57611ab6600891611a89565b910201905f90565b611a5c565b90565b60209181520190565b905f9291805490611ae9611ae283610725565b8094611ac6565b916001811690815f14611b405750600114611b04575b505050565b611b119192939450611a92565b915f925b818410611b2857505001905f8080611aff565b60018160209295939554848601520191019290611b15565b92949550505060ff19168252151560200201905f8080611aff565b90611b6591611acf565b90565b90611b88611b8192611b78610102565b93848092611b5b565b038361014f565b565b611b9390611b68565b90565b60200190565b5190565b90565b90565b15611bad57565b5f7f9be4f88800000000000000000000000000000000000000000000000000000000815280611bde600482016103c9565b0390fd5b7f4e487b71000000000000000000000000000000000000000000000000000000005f525f60045260245ffd5b5190565b601f602091010490565b1b90565b91906008611c3b910291611c355f1984611c1c565b92611c1c565b9181191691161790565b611c59611c54611c5e92610220565b61047b565b610220565b90565b90565b9190611c7a611c75611c8293611c45565b611c61565b908354611c20565b9055565b5f90565b611c9c91611c96611c86565b91611c64565b565b5b818110611caa575050565b80611cb75f600193611c8a565b01611c9f565b9190601f8111611ccd575b505050565b611cd9611cfe93610758565b906020611ce584611c12565b83019310611d06575b611cf790611c12565b0190611c9e565b5f8080611cc8565b9150611cf781929050611cee565b90611d24905f19906008026105dc565b191690565b81611d3391611d14565b906002021790565b90611d4581610e54565b9067ffffffffffffffff8211611e0557611d6982611d638554610725565b85611cbd565b602090601f8311600114611d9d57918091611d8c935f92611d91575b5050611d29565b90555b565b90915001515f80611d85565b601f19831691611dac85610758565b925f5b818110611ded57509160029391856001969410611dd3575b50505002019055611d8f565b611de3910151601f841690611d14565b90555f8080611dc7565b91936020600181928787015181550195019201611daf565b610122565b90611e1491611d3b565b565b5f1b90565b90611e275f1991611e16565b9181191691161790565b90611e46611e41611e4d92611c45565b611c61565b8254611e1b565b9055565b90611e5d60ff91611e16565b9181191691161790565b611e7090610246565b90565b90565b90611e8b611e86611e9292611e67565b611e73565b8254611e51565b9055565b90611f5760e06007611f5d94611eb95f8201611eb35f8801611c0e565b90611e0a565b611ed260018201611ecc60208801611c0e565b90611e0a565b611eeb60028201611ee5604088016118cc565b90611e31565b611f0460038201611efe606088016118cc565b90611e31565b611f1d60048201611f1760808801611c0e565b90611e0a565b611f3660058201611f3060a08801611c0e565b90611e0a565b611f4f60068201611f4960c08801611c0e565b90611e0a565b01920161199d565b90611e76565b565b9190611f7057611f6e91611e96565b565b611be2565b9081549168010000000000000000831015611fa55782611f9d916001611fa395018155611a9b565b90611f5f565b565b610122565b905090565b611fd4611fcb92602092611fc281610e54565b94858093611faa565b93849101610e58565b0190565b611fe191611faf565b90565b611ff990611ff0610102565b91829182611fd8565b03902090565b61201e61202760209361202c9361201581610e54565b938480936118f8565b95869101610e58565b610118565b0190565b9291602061204c6120549360408701908782035f890152611fff565b9401906104b6565b565b61207d612065606083016118cc565b6120776120715f6118dc565b91610220565b1161195a565b6120a461208c60e0830161199d565b61209e6120985f610246565b91610246565b14611a03565b5f906120bf60035f6120b8600233906106e2565b0101611a46565b6120c85f6118dc565b5b806120e46120de6120d985611a58565b610220565b91610220565b10156121f45761210961210460016120fd858590611a9b565b5001611ac3565b611b8a565b61211b61211582611b9c565b91611b96565b2061214d61214761212f6020870151611ba0565b61214161213b82611b9c565b91611b96565b20611ba3565b91611ba3565b146121605761215b90611a49565b6120c9565b5050905061217861217360015b15610246565b611ba6565b61219b61219460035f61218d600233906106e2565b0101611a46565b8290611f75565b5f8101516121b06060602084015193016118cc565b6121da7fa509bfecc93809e56ee5bd9357aed7029badca6f39f134ed21be5d8f74422f4b92611fe4565b926121ef6121e6610102565b92839283612030565b0390a2565b5050906121736121789161216d565b1561220a57565b5f7f6bc8ebc40000000000000000000000000000000000000000000000000000000081528061223b600482016103c9565b0390fd5b6122859061226f61225761225283611ba0565b611b9c565b6122696122635f6118dc565b91610220565b11612203565b60015f61227e600233906106e2565b0101611e0a565b565b5f7f7769736865730000000000000000000000000000000000000000000000000000910152565b6122bb60066020926118f8565b6122c481612287565b0190565b6122dd9060208101905f8183039101526122ae565b90565b156122e757565b6122ef610102565b7f38fe1e9a0000000000000000000000000000000000000000000000000000000081528061231f600482016122c8565b0390fd5b90565b61233a61233561233f92612323565b61047b565b610220565b90565b7f4e487b71000000000000000000000000000000000000000000000000000000005f52601160045260245ffd5b61237e61238491939293610220565b92610220565b820391821161238f57565b612342565b61239e9054610725565b90565b90808214612480576123b281612394565b9067ffffffffffffffff821161247b576123d6826123d08554610725565b85611cbd565b5f90601f8311600114612409579180916123f8935f926123fd575b5050611d29565b90555b565b90915001545f806123f1565b90612418601f19841692610758565b9061242285610758565b925f5b81811061246357509160029391856001969410612449575b505050020190556123fb565b612459910154601f841690611d14565b90555f808061243d565b91936001806020928787015481550195019201612425565b610122565b5050565b9061248e916123a1565b565b9080820361249d575b5050565b612534600780846124b65f61253a97015f870190612484565b6124c7600182016001870190612484565b6124e0600282016124da600288016108c5565b90611e31565b6124f9600382016124f3600388016108c5565b90611e31565b61250a600482016004870190612484565b61251b600582016005870190612484565b61252c600682016006870190612484565b019201610b9a565b90611e76565b5f80612499565b91906125525761255091612490565b565b611be2565b7f4e487b71000000000000000000000000000000000000000000000000000000005f52603160045260245ffd5b90612597905f19906020036008026105dc565b8154169055565b905f916125b56125ad82610758565b928354611d29565b905555565b919290602082105f1461261357601f84116001146125e3576125dd929350611d29565b90555b5b565b509061260961260e9360016126006125fa85610758565b92611c12565b82019101611c9e565b61259e565b6125e0565b5061264a8293612624600194610758565b61264361263085611c12565b820192601f861680612655575b50611c12565b0190611c9e565b6002021790556125e1565b61266190888603612584565b5f61263d565b9290916801000000000000000082116126c7576020115f146126b857602081105f1461269c5761269691611d29565b90555b5b565b60019160ff19166126ac84610758565b55600202019055612699565b6001915060020201905561269a565b610122565b9081546126d881610725565b90818311612701575b8183106126ef575b50505050565b6126f8936125ba565b5f8080806126e9565b61270d83838387612667565b6126e1565b61272161272791939293610220565b92610220565b91612733838202610220565b92818404149015171561274257565b612342565b5f612751916126cc565b565b905f036127655761276390612747565b565b611be2565b60075f9161277a83808301612753565b6127878360018301612753565b6127948360028301611c8a565b6127a18360038301611c8a565b6127ae8360048301612753565b6127bb8360058301612753565b6127c88360068301612753565b0155565b905f036127de576127dc9061276a565b565b611be2565b6127ec81611a58565b801561280d57600190039061280a6128048383611a9b565b906127cc565b55565b612557565b905f929180549061282c61282583610725565b8094611faa565b916001811690815f1461287e5750600114612847575b505050565b6128549192939450610758565b5f905b83821061286a57505001905f8080612842565b600181602092548486015201910190612857565b92949550505060ff191682528015150201905f8080612842565b6128a191612812565b90565b6128b9906128b0610102565b91829182612898565b03902090565b5f7f616c726561647920636f6d706c65746564000000000000000000000000000000910152565b6128f360116020926118f8565b6128fc816128bf565b0190565b6129159060208101905f8183039101526128e6565b90565b1561291f57565b612927610102565b7f08c379a00000000000000000000000000000000000000000000000000000000081528061295760048201612900565b0390fd5b61297460035f61296d600285906106e2565b0101611a46565b9061299961298183611a58565b61299361298d5f6118dc565b91610220565b116122e0565b6129a25f6118dc565b5b806129be6129b86129b386611a58565b610220565b91610220565b1015612b98576129e36129de60016129d7868590611a9b565b5001611ac3565b611b8a565b6129f56129ef82611b9c565b91611b96565b20612a23612a1d612a0587611ba0565b612a17612a1182611b9c565b91611b96565b20611ba3565b91611ba3565b14612a3657612a3190611a49565b6129a3565b93915f92918392612aeb57612a9c82612a70612a6b612a656007612a5e612aa3988d90611a9b565b5001610b9a565b15610246565b612918565b6007612a95612a8c6003612a85858d90611a9b565b50016108c5565b99600193611a9b565b5001611e76565b60026106e2565b01019091612ad17f0aeb5eff15ba550fb48d68ce3a5d6793a723c0452e39484838a85522d519aef9926128a4565b92612ae6612add610102565b92839283612030565b0390a2565b612b4982612b44612b0c6002612b05612b50978c90611a9b565b50016108c5565b98612b3e612b3684612b30612b2087611a58565b612b2a6001612326565b9061236f565b90611a9b565b509184611a9b565b90612541565b6127e3565b60026106e2565b01019091612b7e7f48ee7a6ee9c61106257852a19d18931aa63a7ba0a58f77fb497e5567832b8757926128a4565b92612b93612b8a610102565b92839283612030565b0390a2565b5050505050565b5f7f6e6f7420656e6f756768206d6f6e657900000000000000000000000000000000910152565b612bd360106020926118f8565b612bdc81612b9f565b0190565b612bf59060208101905f818303910152612bc6565b90565b15612bff57565b612c07610102565b7f08c379a000000000000000000000000000000000000000000000000000000000815280612c3760048201612be0565b0390fd5b612c44906106ae565b90565b612c5090612c3b565b90565b612c5c906106ca565b90565b905090565b612c6f5f8092612c5f565b0190565b612c7c90612c64565b90565b67ffffffffffffffff8111612c9d57612c99602091610118565b0190565b610122565b90612cb4612caf83612c7f565b610178565b918252565b606090565b3d5f14612cd957612cce3d612ca2565b903d5f602084013e5b565b612ce1612cb9565b90612cd7565b7f4e487b71000000000000000000000000000000000000000000000000000000005f52600160045260245ffd5b15612d1b57565b612ce7565b612d2a60c0610178565b90565b90612d3f612d3a83610199565b610178565b918252565b612d4d5f612d2d565b90565b612d58612d44565b90565b612d656040610178565b90565b612d7260a0610178565b90565b612d7f9051610991565b90565b612d8b90610991565b90565b90612df490608080612dd7612dc5612db360a086015f8901518782035f890152610e63565b60208801518682036020880152610ea7565b60408701518582036040870152610f0b565b94612dea60608201516060860190610ed8565b0151910190610ed8565b90565b612e0c9160208201915f818403910152612d8e565b90565b612fa3612fac9293612f2a5f93612e4f612e366006612e30600233906106e2565b016108c5565b612e48612e4286610220565b91610220565b1015612bf8565b612e7a83612e746006612e64600233906106e2565b0191612e6f836108c5565b61236f565b90611e31565b612eb68580612e90612e8b33612c47565b612c53565b86612e99610102565b9081612ea481612c73565b03925af1612eb0612cbe565b50612d14565b95612f214291612f04612efb8880612ed0600233906106e2565b0101612ef63394612eed600198612ee5612d20565b9d8e016108d2565b60208c0161081c565b610d2b565b6040890161081c565b612f18612f0f612d50565b6060890161081c565b6080870161091a565b60a0850161099d565b612f9a60015f612f3c600233906106e2565b010193612f5b612f53612f4d612d5b565b96610d2b565b5f870161081c565b612f6f612f66612d50565b6020870161081c565b612f918395612f88612f7f612d68565b995f8b0161081c565b602089016108a6565b60408701610a50565b606085016108d2565b608083016108d2565b5f80612fba600233906106e2565b0101612fcc60a0604084015101612d75565b90613015613003612ffd7fc251291991957f26d7775677114f287ef7a70d464267d3bd4297334afc95e7e7936128a4565b93612d82565b9361300c610102565b91829182612df7565b0390a3565b5f90565b60055f61303861303f9361303061301a565b5060026106e2565b0101610b9a565b90565b5f7f6e616d652063616e277420626520656d70747900000000000000000000000000910152565b61307660136020926118f8565b61307f81613042565b0190565b6130989060208101905f818303910152613069565b90565b156130a257565b6130aa610102565b7f08c379a0000000000000000000000000000000000000000000000000000000008152806130da60048201613083565b0390fd5b606090565b606090565b6130f260c0610178565b90565b6130ff6040610178565b90565b52565b5190565b5190565b61311890600a612712565b90565b5f60016131349261312e83808301612753565b01612753565b565b905f03613148576131469061311b565b565b611be2565b60045f9161315d83808301611c8a565b61316a8360018301612753565b6131778360028301612753565b6131848360038301612753565b0155565b905f0361319a576131989061314d565b565b611be2565b5f60096131df926131b283808301612753565b6131bf8360018301613136565b6131cc8360038301613188565b6131d98360088301611c8a565b01611c8a565b565b905f036131f3576131f19061319f565b565b611be2565b5b818110613204575050565b806132115f600a936131e1565b016131f9565b9091828110613226575b505050565b61324461323e61323861324f9561310d565b9261310d565b92610857565b9182019101906131f8565b5f8080613221565b90680100000000000000008111613280578161327561327e9361081f565b90828155613217565b565b610122565b5190565b5190565b906132b8602060016132be946132b05f82016132aa5f8801611c0e565b90611e0a565b019201611c0e565b90611e0a565b565b906132ca9161328d565b565b5190565b6132da9051610526565b90565b906132fc73ffffffffffffffffffffffffffffffffffffffff91611e16565b9181191691161790565b90565b9061331e613319613325926106d6565b613306565b82546132dd565b9055565b60a01b90565b9061334f74ff000000000000000000000000000000000000000091613329565b9181191691161790565b90565b9061337161336c61337892612d82565b613359565b825461332f565b9055565b9061340a60a060046134109461339f5f82016133995f88016118cc565b90611e31565b6133b8600182016133b260208801611c0e565b90611e0a565b6133d1600282016133cb60408801611c0e565b90611e0a565b6133ea600382016133e460608801611c0e565b90611e0a565b6134028282016133fc608088016132d0565b90613309565b019201612d75565b9061335c565b565b9061341c9161337c565b565b906134946080600961349a946134415f820161343b5f8801611c0e565b90611e0a565b61345a6001820161345460208801613289565b906132c0565b6134736003820161346d604088016132cc565b90613412565b61348c60088201613486606088016118cc565b90611e31565b0192016118cc565b90611e31565b565b906134a69161341e565b565b6134cd6134c76134b784610e94565b936134c28585613257565b610ea1565b91610857565b5f915b8383106134dd5750505050565b600a6020826134f66134f0600195613285565b8661349c565b019201920191906134d0565b9061350c916134a8565b565b5190565b61351d906008612712565b90565b5b81811061352c575050565b806135395f6008936127cc565b01613521565b909182811061354e575b505050565b61356c61356661356061357795613512565b92613512565b92610b77565b918201910190613520565b5f8080613549565b906801000000000000000081116135a8578161359d6135a693610b3f565b9082815561353f565b565b610122565b5190565b906135bb91611e96565b565b6135e26135dc6135cc84611069565b936135d7858561357f565b611076565b91610b77565b5f915b8383106135f25750505050565b600860208261360b6136056001956135ad565b866135b1565b019201920191906135e5565b90613621916135bd565b565b5190565b600190818003010490565b5b81811061363e575050565b8061364b5f600193612753565b01613633565b9091828110613660575b505050565b61367e61367861367261368995613627565b92613627565b92610d22565b918201910190613632565b5f808061365b565b906801000000000000000081116136ba57816136af6136b893610cea565b90828155613651565b565b610122565b6136e46136de6136ce846111a9565b936136d98585613691565b6111b6565b91610d22565b5f915b8383106136f45750505050565b600160208261370c6137068495611c0e565b86611e0a565b019201920191906136e7565b90613722916136bf565b565b906137b360a060056137b9946137475f82016137415f8801611c0e565b90611e0a565b6137606001820161375a60208801611c0e565b90611e0a565b6137796002820161377360408801613109565b90613502565b6137926003820161378c6060880161350e565b90613617565b6137ab600482016137a560808801613623565b90613718565b01920161199d565b90611e76565b565b906137c591613724565b565b906137f2602060066137f8946137ea5f82016137e45f8801613105565b906137bb565b0192016118cc565b90611e31565b565b90613804916137c7565b565b61381b9160208201915f818403910152611fff565b90565b602091926138e05f9261385361383b61383683611ba0565b611b9c565b61384d613847876118dc565b91610220565b1161309b565b61387d61387861387260058761386b600233906106e2565b0101610b9a565b15610246565b611ba6565b6138d76138886130de565b6138ce6138936130e3565b6138c58a9793916138bc6001976138b46138ab6130e8565b9b8d8d0161081c565b8c8b0161081c565b60408901610b3c565b60608701610ce7565b60808501610d85565b60a08301610ba7565b613908613900836138fb6138f26130f5565b94868601613102565b6118dc565b8483016108d2565b9261391e84613919600233906106e2565b6137fa565b9201510151906139636139517ff32a9ee0d17d25c086bbe1fd7492121a0d326db5884d4b48a2401572db4844fb92611fe4565b9261395a610102565b91829182613806565b0390a2565b5f7f757569642063616e2774206265206e756c6c0000000000000000000000000000910152565b61399c60126020926118f8565b6139a581613968565b0190565b6139be9060208101905f81830391015261398f565b90565b156139c857565b6139d0610102565b7f08c379a000000000000000000000000000000000000000000000000000000000815280613a00600482016139a9565b0390fd5b15613a0b57565b5f7fe589bcc800000000000000000000000000000000000000000000000000000000815280613a3c600482016103c9565b0390fd5b613a4f613a5591939293610220565b92610220565b8201809211613a6057565b612342565b9190613a93613a7b613a7685611ba0565b611b9c565b613a8d613a875f6118dc565b91610220565b116139c1565b613ab734613ab0613aaa613aa561049a565b610220565b91610220565b1015613a04565b613b79613b708492613b6b42613b326020880151613b2960408a0151613b208b613b17613aeb6080606084015193016132d0565b93613b0e5f97613b05613afc612d20565b9b5f8d016108d2565b60208b0161081c565b6040890161081c565b6060870161081c565b6080850161091a565b60a0830161099d565b613b623491613b595f95613b50613b47612d68565b9a5f8c0161081c565b60208a016108a6565b60408801610a50565b606086016108d2565b6118dc565b608083016108d2565b90613b8e34613b8860016108c5565b90613fec565b91613bc982613bc36006613bb36002613bad608060408c0151016132d0565b906106e2565b0191613bbe836108c5565b613a40565b90611e31565b613bf160035f613bea6002613be4608060408b0151016132d0565b906106e2565b0101611a46565b90613bfb5f6118dc565b5b80613c17613c11613c0c86611a58565b610220565b91610220565b1015613e0057613c3c613c376001613c30868590611a9b565b5001611ac3565b611b8a565b613c4e613c4882611b9c565b91611b96565b20613c80613c7a613c626060860151611ba0565b613c74613c6e82611b9c565b91611b96565b20611ba3565b91611ba3565b14613c94575b613c8f90611a49565b613bfc565b613cbf84613cb96002613ca8878690611a9b565b500191613cb4836108c5565b613a40565b90611e31565b613cd66002613ccf858490611a9b565b50016108c5565b613cfe613cf8613cf36003613cec888790611a9b565b50016108c5565b610220565b91610220565b10613c86579181613d476003613d40613d93966060613da99b9c613d37613d2c6080613da29e9d9b016132d0565b838901515f9161295b565b95015195611a9b565b50016108c5565b613d717f0aeb5eff15ba550fb48d68ce3a5d6793a723c0452e39484838a85522d519aef992611fe4565b92613d86613d7d610102565b92839283612030565b0390a25b608086016108d2565b613d9d60036108c5565b613a40565b6003611e31565b60408082015101515f90613dfb613de9613de37fc251291991957f26d7775677114f287ef7a70d464267d3bd4297334afc95e7e793611fe4565b93612d82565b93613df2610102565b91829182612df7565b0390a3565b505050613da992935090613d93613da292613d8a565b613e22613e27916108a9565b6105e0565b90565b613e349054613e16565b90565b5f7f75206d757374206265206f776e65722100000000000000000000000000000000910152565b613e6b60106020926118f8565b613e7481613e37565b0190565b613e8d9060208101905f818303910152613e5e565b90565b15613e9757565b613e9f610102565b7f08c379a000000000000000000000000000000000000000000000000000000000815280613ecf60048201613e78565b0390fd5b5f80613f9b92613efd33613ef7613ef1613eec86613e2a565b612c53565b91610526565b14613e90565b613f2181613f1a613f14613f0f61049a565b610220565b91610220565b1015613a04565b613f47613f2e60036108c5565b613f40613f3a84610220565b91610220565b1015612bf8565b613f64613f5d82613f5860036108c5565b61236f565b6003611e31565b613f75613f7083613e2a565b612c53565b90613f7e610102565b9081613f8981612c73565b03925af1613f95612cbe565b50612d14565b565b7f4e487b71000000000000000000000000000000000000000000000000000000005f52601260045260245ffd5b613fd6613fdc91610220565b91610220565b908115613fe7570490565b613f9d565b919061402161401061402992614000611c86565b50614009611c86565b5085612712565b61401b6103e8611606565b90613fca565b92839061236f565b919056fea2646970667358221220f4c842dd12fc7156757bf533ab9cbdac06e066d793895b9a6b6e4c4c0adcea9b64736f6c634300081c0033",
          "opcodes": "PUSH1 0x80 PUSH1 0x40 MSTORE CALLVALUE PUSH2 0x2F JUMPI PUSH2 0x19 PUSH2 0x14 PUSH2 0xE0 JUMP JUMPDEST PUSH2 0x31F JUMP JUMPDEST PUSH2 0x21 PUSH2 0x34 JUMP JUMPDEST PUSH2 0x4063 PUSH2 0x3A9 DUP3 CODECOPY PUSH2 0x4063 SWAP1 RETURN JUMPDEST PUSH2 0x3A JUMP JUMPDEST PUSH1 0x40 MLOAD SWAP1 JUMP JUMPDEST PUSH0 DUP1 REVERT JUMPDEST PUSH1 0x1F DUP1 NOT SWAP2 ADD AND SWAP1 JUMP JUMPDEST PUSH4 0x4E487B71 PUSH1 0xE0 SHL PUSH0 MSTORE PUSH1 0x41 PUSH1 0x4 MSTORE PUSH1 0x24 PUSH0 REVERT JUMPDEST SWAP1 PUSH2 0x66 SWAP1 PUSH2 0x3E JUMP JUMPDEST DUP2 ADD SWAP1 DUP2 LT PUSH1 0x1 DUP1 PUSH1 0x40 SHL SUB DUP3 GT OR PUSH2 0x7E JUMPI PUSH1 0x40 MSTORE JUMP JUMPDEST PUSH2 0x48 JUMP JUMPDEST SWAP1 PUSH2 0x96 PUSH2 0x8F PUSH2 0x34 JUMP JUMPDEST SWAP3 DUP4 PUSH2 0x5C JUMP JUMPDEST JUMP JUMPDEST PUSH0 DUP1 REVERT JUMPDEST SWAP1 JUMP JUMPDEST PUSH2 0xA8 DUP2 PUSH2 0x9C JUMP JUMPDEST SUB PUSH2 0xAF JUMPI JUMP JUMPDEST PUSH0 DUP1 REVERT JUMPDEST SWAP1 POP MLOAD SWAP1 PUSH2 0xC0 DUP3 PUSH2 0x9F JUMP JUMPDEST JUMP JUMPDEST SWAP1 PUSH1 0x20 DUP3 DUP3 SUB SLT PUSH2 0xDB JUMPI PUSH2 0xD8 SWAP2 PUSH0 ADD PUSH2 0xB3 JUMP JUMPDEST SWAP1 JUMP JUMPDEST PUSH2 0x98 JUMP JUMPDEST PUSH2 0xFE PUSH2 0x440C DUP1 CODESIZE SUB DUP1 PUSH2 0xF3 DUP2 PUSH2 0x83 JUMP JUMPDEST SWAP3 DUP4 CODECOPY DUP2 ADD SWAP1 PUSH2 0xC2 JUMP JUMPDEST SWAP1 JUMP JUMPDEST SWAP1 JUMP JUMPDEST SWAP1 JUMP JUMPDEST PUSH2 0x11B PUSH2 0x116 PUSH2 0x120 SWAP3 PUSH2 0x101 JUMP JUMPDEST PUSH2 0x104 JUMP JUMPDEST PUSH2 0x9C JUMP JUMPDEST SWAP1 JUMP JUMPDEST SWAP1 JUMP JUMPDEST PUSH2 0x13A PUSH2 0x135 PUSH2 0x13F SWAP3 PUSH2 0x123 JUMP JUMPDEST PUSH2 0x104 JUMP JUMPDEST PUSH2 0x9C JUMP JUMPDEST SWAP1 JUMP JUMPDEST PUSH1 0x20 SWAP2 DUP2 MSTORE ADD SWAP1 JUMP JUMPDEST PUSH1 0x20 PUSH32 0x616E203130000000000000000000000000000000000000000000000000000000 SWAP2 PUSH32 0x4B2063616E277420626520657175616C20746F2030206F72206D6F7265207468 PUSH0 DUP3 ADD MSTORE ADD MSTORE JUMP JUMPDEST PUSH2 0x1A5 PUSH1 0x25 PUSH1 0x40 SWAP3 PUSH2 0x142 JUMP JUMPDEST PUSH2 0x1AE DUP2 PUSH2 0x14B JUMP JUMPDEST ADD SWAP1 JUMP JUMPDEST PUSH2 0x1C7 SWAP1 PUSH1 0x20 DUP2 ADD SWAP1 PUSH0 DUP2 DUP4 SUB SWAP2 ADD MSTORE PUSH2 0x198 JUMP JUMPDEST SWAP1 JUMP JUMPDEST ISZERO PUSH2 0x1D1 JUMPI JUMP JUMPDEST PUSH2 0x1D9 PUSH2 0x34 JUMP JUMPDEST PUSH3 0x461BCD PUSH1 0xE5 SHL DUP2 MSTORE DUP1 PUSH2 0x1EF PUSH1 0x4 DUP3 ADD PUSH2 0x1B2 JUMP JUMPDEST SUB SWAP1 REVERT JUMPDEST PUSH1 0x1 DUP1 PUSH1 0xA0 SHL SUB AND SWAP1 JUMP JUMPDEST PUSH2 0x212 PUSH2 0x20D PUSH2 0x217 SWAP3 PUSH2 0x1F3 JUMP JUMPDEST PUSH2 0x104 JUMP JUMPDEST PUSH2 0x1F3 JUMP JUMPDEST SWAP1 JUMP JUMPDEST PUSH2 0x223 SWAP1 PUSH2 0x1FE JUMP JUMPDEST SWAP1 JUMP JUMPDEST PUSH2 0x22F SWAP1 PUSH2 0x21A JUMP JUMPDEST SWAP1 JUMP JUMPDEST PUSH0 SHL SWAP1 JUMP JUMPDEST SWAP1 PUSH2 0x248 PUSH1 0x1 DUP1 PUSH1 0xA0 SHL SUB SWAP2 PUSH2 0x232 JUMP JUMPDEST SWAP2 DUP2 NOT AND SWAP2 AND OR SWAP1 JUMP JUMPDEST PUSH2 0x25B SWAP1 PUSH2 0x21A JUMP JUMPDEST SWAP1 JUMP JUMPDEST SWAP1 JUMP JUMPDEST SWAP1 PUSH2 0x276 PUSH2 0x271 PUSH2 0x27D SWAP3 PUSH2 0x252 JUMP JUMPDEST PUSH2 0x25E JUMP JUMPDEST DUP3 SLOAD PUSH2 0x237 JUMP JUMPDEST SWAP1 SSTORE JUMP JUMPDEST SWAP1 PUSH2 0x28D PUSH0 NOT SWAP2 PUSH2 0x232 JUMP JUMPDEST SWAP2 DUP2 NOT AND SWAP2 AND OR SWAP1 JUMP JUMPDEST PUSH2 0x2AB PUSH2 0x2A6 PUSH2 0x2B0 SWAP3 PUSH2 0x9C JUMP JUMPDEST PUSH2 0x104 JUMP JUMPDEST PUSH2 0x9C JUMP JUMPDEST SWAP1 JUMP JUMPDEST SWAP1 JUMP JUMPDEST SWAP1 PUSH2 0x2CB PUSH2 0x2C6 PUSH2 0x2D2 SWAP3 PUSH2 0x297 JUMP JUMPDEST PUSH2 0x2B3 JUMP JUMPDEST DUP3 SLOAD PUSH2 0x281 JUMP JUMPDEST SWAP1 SSTORE JUMP JUMPDEST PUSH4 0x4E487B71 PUSH1 0xE0 SHL PUSH0 MSTORE PUSH1 0x11 PUSH1 0x4 MSTORE PUSH1 0x24 PUSH0 REVERT JUMPDEST PUSH2 0x2F9 PUSH2 0x2FF SWAP2 SWAP4 SWAP3 SWAP4 PUSH2 0x9C JUMP JUMPDEST SWAP3 PUSH2 0x9C JUMP JUMPDEST SWAP2 PUSH2 0x30B DUP4 DUP3 MUL PUSH2 0x9C JUMP JUMPDEST SWAP3 DUP2 DUP5 DIV EQ SWAP1 ISZERO OR ISZERO PUSH2 0x31A JUMPI JUMP JUMPDEST PUSH2 0x2D6 JUMP JUMPDEST PUSH2 0x37F PUSH2 0x386 SWAP2 DUP1 PUSH2 0x339 PUSH2 0x333 PUSH0 PUSH2 0x107 JUMP JUMPDEST SWAP2 PUSH2 0x9C JUMP JUMPDEST EQ ISZERO DUP1 PUSH2 0x388 JUMPI JUMPDEST PUSH2 0x34A SWAP1 PUSH2 0x1CA JUMP JUMPDEST PUSH2 0x35C PUSH2 0x356 CALLER PUSH2 0x226 JUMP JUMPDEST PUSH0 PUSH2 0x261 JUMP JUMPDEST PUSH2 0x36F PUSH2 0x368 PUSH0 PUSH2 0x107 JUMP JUMPDEST PUSH1 0x3 PUSH2 0x2B6 JUMP JUMPDEST PUSH2 0x379 PUSH1 0xA PUSH2 0x126 JUMP JUMPDEST SWAP1 PUSH2 0x2EA JUMP JUMPDEST PUSH1 0x1 PUSH2 0x2B6 JUMP JUMPDEST JUMP JUMPDEST POP PUSH2 0x34A DUP2 PUSH2 0x3A0 PUSH2 0x39A PUSH1 0xA PUSH2 0x126 JUMP JUMPDEST SWAP2 PUSH2 0x9C JUMP JUMPDEST LT SWAP1 POP PUSH2 0x341 JUMP INVALID PUSH1 0x80 PUSH1 0x40 MSTORE PUSH1 0x4 CALLDATASIZE LT ISZERO PUSH2 0x13 JUMPI JUMPDEST PUSH2 0x18C8 JUMP JUMPDEST PUSH2 0x1D PUSH0 CALLDATALOAD PUSH2 0xFC JUMP JUMPDEST DUP1 PUSH4 0x9722E0C EQ PUSH2 0xF7 JUMPI DUP1 PUSH4 0x5353A2D8 EQ PUSH2 0xF2 JUMPI DUP1 PUSH4 0x54845A47 EQ PUSH2 0xED JUMPI DUP1 PUSH4 0x6A162ECE EQ PUSH2 0xE8 JUMPI DUP1 PUSH4 0x8DA5CB5B EQ PUSH2 0xE3 JUMPI DUP1 PUSH4 0xA87430BA EQ PUSH2 0xDE JUMPI DUP1 PUSH4 0xA932492F EQ PUSH2 0xD9 JUMPI DUP1 PUSH4 0xBA73B818 EQ PUSH2 0xD4 JUMPI DUP1 PUSH4 0xBEDCF003 EQ PUSH2 0xCF JUMPI DUP1 PUSH4 0xC3C5A547 EQ PUSH2 0xCA JUMPI DUP1 PUSH4 0xE7A8C912 EQ PUSH2 0xC5 JUMPI DUP1 PUSH4 0xECED5526 EQ PUSH2 0xC0 JUMPI DUP1 PUSH4 0xF4426BFB EQ PUSH2 0xBB JUMPI PUSH4 0xF69E6D47 SUB PUSH2 0xE JUMPI PUSH2 0x1895 JUMP JUMPDEST PUSH2 0x184D JUMP JUMPDEST PUSH2 0x163B JUMP JUMPDEST PUSH2 0x15CF JUMP JUMPDEST PUSH2 0x1482 JUMP JUMPDEST PUSH2 0x142B JUMP JUMPDEST PUSH2 0x13E8 JUMP JUMPDEST PUSH2 0x1348 JUMP JUMPDEST PUSH2 0x12DD JUMP JUMPDEST PUSH2 0x65B JUMP JUMPDEST PUSH2 0x5A8 JUMP JUMPDEST PUSH2 0x4D8 JUMP JUMPDEST PUSH2 0x436 JUMP JUMPDEST PUSH2 0x3CE JUMP JUMPDEST PUSH1 0xE0 SHR SWAP1 JUMP JUMPDEST PUSH1 0x40 MLOAD SWAP1 JUMP JUMPDEST PUSH0 DUP1 REVERT JUMPDEST PUSH0 DUP1 REVERT JUMPDEST PUSH0 DUP1 REVERT JUMPDEST PUSH0 DUP1 REVERT JUMPDEST PUSH1 0x1F DUP1 NOT SWAP2 ADD AND SWAP1 JUMP JUMPDEST PUSH32 0x4E487B7100000000000000000000000000000000000000000000000000000000 PUSH0 MSTORE PUSH1 0x41 PUSH1 0x4 MSTORE PUSH1 0x24 PUSH0 REVERT JUMPDEST SWAP1 PUSH2 0x159 SWAP1 PUSH2 0x118 JUMP JUMPDEST DUP2 ADD SWAP1 DUP2 LT PUSH8 0xFFFFFFFFFFFFFFFF DUP3 GT OR PUSH2 0x173 JUMPI PUSH1 0x40 MSTORE JUMP JUMPDEST PUSH2 0x122 JUMP JUMPDEST SWAP1 PUSH2 0x18B PUSH2 0x184 PUSH2 0x102 JUMP JUMPDEST SWAP3 DUP4 PUSH2 0x14F JUMP JUMPDEST JUMP JUMPDEST PUSH0 DUP1 REVERT JUMPDEST PUSH0 DUP1 REVERT JUMPDEST PUSH0 DUP1 REVERT JUMPDEST PUSH8 0xFFFFFFFFFFFFFFFF DUP2 GT PUSH2 0x1B7 JUMPI PUSH2 0x1B3 PUSH1 0x20 SWAP2 PUSH2 0x118 JUMP JUMPDEST ADD SWAP1 JUMP JUMPDEST PUSH2 0x122 JUMP JUMPDEST SWAP1 DUP3 PUSH0 SWAP4 SWAP3 DUP3 CALLDATACOPY ADD MSTORE JUMP JUMPDEST SWAP1 SWAP3 SWAP2 SWAP3 PUSH2 0x1DC PUSH2 0x1D7 DUP3 PUSH2 0x199 JUMP JUMPDEST PUSH2 0x178 JUMP JUMPDEST SWAP4 DUP2 DUP6 MSTORE PUSH1 0x20 DUP6 ADD SWAP1 DUP3 DUP5 ADD GT PUSH2 0x1F8 JUMPI PUSH2 0x1F6 SWAP3 PUSH2 0x1BC JUMP JUMPDEST JUMP JUMPDEST PUSH2 0x195 JUMP JUMPDEST SWAP1 DUP1 PUSH1 0x1F DUP4 ADD SLT ISZERO PUSH2 0x21B JUMPI DUP2 PUSH1 0x20 PUSH2 0x218 SWAP4 CALLDATALOAD SWAP2 ADD PUSH2 0x1C7 JUMP JUMPDEST SWAP1 JUMP JUMPDEST PUSH2 0x191 JUMP JUMPDEST SWAP1 JUMP JUMPDEST PUSH2 0x22C DUP2 PUSH2 0x220 JUMP JUMPDEST SUB PUSH2 0x233 JUMPI JUMP JUMPDEST PUSH0 DUP1 REVERT JUMPDEST SWAP1 POP CALLDATALOAD SWAP1 PUSH2 0x244 DUP3 PUSH2 0x223 JUMP JUMPDEST JUMP JUMPDEST ISZERO ISZERO SWAP1 JUMP JUMPDEST PUSH2 0x254 DUP2 PUSH2 0x246 JUMP JUMPDEST SUB PUSH2 0x25B JUMPI JUMP JUMPDEST PUSH0 DUP1 REVERT JUMPDEST SWAP1 POP CALLDATALOAD SWAP1 PUSH2 0x26C DUP3 PUSH2 0x24B JUMP JUMPDEST JUMP JUMPDEST SWAP2 SWAP1 SWAP2 PUSH2 0x100 DUP2 DUP5 SUB SLT PUSH2 0x38F JUMPI PUSH2 0x287 PUSH2 0x100 PUSH2 0x178 JUMP JUMPDEST SWAP3 PUSH0 DUP3 ADD CALLDATALOAD PUSH8 0xFFFFFFFFFFFFFFFF DUP2 GT PUSH2 0x38A JUMPI DUP2 PUSH2 0x2A7 SWAP2 DUP5 ADD PUSH2 0x1FD JUMP JUMPDEST PUSH0 DUP6 ADD MSTORE PUSH1 0x20 DUP3 ADD CALLDATALOAD PUSH8 0xFFFFFFFFFFFFFFFF DUP2 GT PUSH2 0x385 JUMPI DUP2 PUSH2 0x2CB SWAP2 DUP5 ADD PUSH2 0x1FD JUMP JUMPDEST PUSH1 0x20 DUP6 ADD MSTORE PUSH2 0x2DD DUP2 PUSH1 0x40 DUP5 ADD PUSH2 0x237 JUMP JUMPDEST PUSH1 0x40 DUP6 ADD MSTORE PUSH2 0x2EF DUP2 PUSH1 0x60 DUP5 ADD PUSH2 0x237 JUMP JUMPDEST PUSH1 0x60 DUP6 ADD MSTORE PUSH1 0x80 DUP3 ADD CALLDATALOAD PUSH8 0xFFFFFFFFFFFFFFFF DUP2 GT PUSH2 0x380 JUMPI DUP2 PUSH2 0x314 SWAP2 DUP5 ADD PUSH2 0x1FD JUMP JUMPDEST PUSH1 0x80 DUP6 ADD MSTORE PUSH1 0xA0 DUP3 ADD CALLDATALOAD PUSH8 0xFFFFFFFFFFFFFFFF DUP2 GT PUSH2 0x37B JUMPI DUP2 PUSH2 0x339 SWAP2 DUP5 ADD PUSH2 0x1FD JUMP JUMPDEST PUSH1 0xA0 DUP6 ADD MSTORE PUSH1 0xC0 DUP3 ADD CALLDATALOAD SWAP2 PUSH8 0xFFFFFFFFFFFFFFFF DUP4 GT PUSH2 0x376 JUMPI PUSH2 0x362 DUP3 PUSH2 0x36F SWAP5 DUP4 ADD PUSH2 0x1FD JUMP JUMPDEST PUSH1 0xC0 DUP7 ADD MSTORE PUSH1 0xE0 ADD PUSH2 0x25F JUMP JUMPDEST PUSH1 0xE0 DUP4 ADD MSTORE JUMP JUMPDEST PUSH2 0x18D JUMP JUMPDEST PUSH2 0x18D JUMP JUMPDEST PUSH2 0x18D JUMP JUMPDEST PUSH2 0x18D JUMP JUMPDEST PUSH2 0x18D JUMP JUMPDEST PUSH2 0x114 JUMP JUMPDEST SWAP1 PUSH1 0x20 DUP3 DUP3 SUB SLT PUSH2 0x3C4 JUMPI PUSH0 DUP3 ADD CALLDATALOAD PUSH8 0xFFFFFFFFFFFFFFFF DUP2 GT PUSH2 0x3BF JUMPI PUSH2 0x3BC SWAP3 ADD PUSH2 0x26E JUMP JUMPDEST SWAP1 JUMP JUMPDEST PUSH2 0x110 JUMP JUMPDEST PUSH2 0x10C JUMP JUMPDEST PUSH0 ADD SWAP1 JUMP JUMPDEST CALLVALUE PUSH2 0x3FC JUMPI PUSH2 0x3E6 PUSH2 0x3E1 CALLDATASIZE PUSH1 0x4 PUSH2 0x394 JUMP JUMPDEST PUSH2 0x2056 JUMP JUMPDEST PUSH2 0x3EE PUSH2 0x102 JUMP JUMPDEST DUP1 PUSH2 0x3F8 DUP2 PUSH2 0x3C9 JUMP JUMPDEST SUB SWAP1 RETURN JUMPDEST PUSH2 0x108 JUMP JUMPDEST SWAP1 PUSH1 0x20 DUP3 DUP3 SUB SLT PUSH2 0x431 JUMPI PUSH0 DUP3 ADD CALLDATALOAD PUSH8 0xFFFFFFFFFFFFFFFF DUP2 GT PUSH2 0x42C JUMPI PUSH2 0x429 SWAP3 ADD PUSH2 0x1FD JUMP JUMPDEST SWAP1 JUMP JUMPDEST PUSH2 0x110 JUMP JUMPDEST PUSH2 0x10C JUMP JUMPDEST CALLVALUE PUSH2 0x464 JUMPI PUSH2 0x44E PUSH2 0x449 CALLDATASIZE PUSH1 0x4 PUSH2 0x401 JUMP JUMPDEST PUSH2 0x223F JUMP JUMPDEST PUSH2 0x456 PUSH2 0x102 JUMP JUMPDEST DUP1 PUSH2 0x460 DUP2 PUSH2 0x3C9 JUMP JUMPDEST SUB SWAP1 RETURN JUMPDEST PUSH2 0x108 JUMP JUMPDEST PUSH0 SWAP2 SUB SLT PUSH2 0x473 JUMPI JUMP JUMPDEST PUSH2 0x10C JUMP JUMPDEST SWAP1 JUMP JUMPDEST SWAP1 JUMP JUMPDEST PUSH2 0x492 PUSH2 0x48D PUSH2 0x497 SWAP3 PUSH2 0x478 JUMP JUMPDEST PUSH2 0x47B JUMP JUMPDEST PUSH2 0x220 JUMP JUMPDEST SWAP1 JUMP JUMPDEST PUSH2 0x4A8 PUSH5 0xE8D4A51000 PUSH2 0x47E JUMP JUMPDEST SWAP1 JUMP JUMPDEST PUSH2 0x4B3 PUSH2 0x49A JUMP JUMPDEST SWAP1 JUMP JUMPDEST PUSH2 0x4BF SWAP1 PUSH2 0x220 JUMP JUMPDEST SWAP1 MSTORE JUMP JUMPDEST SWAP2 SWAP1 PUSH2 0x4D6 SWAP1 PUSH0 PUSH1 0x20 DUP6 ADD SWAP5 ADD SWAP1 PUSH2 0x4B6 JUMP JUMPDEST JUMP JUMPDEST CALLVALUE PUSH2 0x508 JUMPI PUSH2 0x4E8 CALLDATASIZE PUSH1 0x4 PUSH2 0x469 JUMP JUMPDEST PUSH2 0x504 PUSH2 0x4F3 PUSH2 0x4AB JUMP JUMPDEST PUSH2 0x4FB PUSH2 0x102 JUMP JUMPDEST SWAP2 DUP3 SWAP2 DUP3 PUSH2 0x4C3 JUMP JUMPDEST SUB SWAP1 RETURN JUMPDEST PUSH2 0x108 JUMP JUMPDEST PUSH20 0xFFFFFFFFFFFFFFFFFFFFFFFFFFFFFFFFFFFFFFFF AND SWAP1 JUMP JUMPDEST PUSH2 0x52F SWAP1 PUSH2 0x50D JUMP JUMPDEST SWAP1 JUMP JUMPDEST PUSH2 0x53B DUP2 PUSH2 0x526 JUMP JUMPDEST SUB PUSH2 0x542 JUMPI JUMP JUMPDEST PUSH0 DUP1 REVERT JUMPDEST SWAP1 POP CALLDATALOAD SWAP1 PUSH2 0x553 DUP3 PUSH2 0x532 JUMP JUMPDEST JUMP JUMPDEST SWAP1 SWAP2 PUSH1 0x60 DUP3 DUP5 SUB SLT PUSH2 0x5A3 JUMPI PUSH2 0x56D DUP4 PUSH0 DUP5 ADD PUSH2 0x546 JUMP JUMPDEST SWAP3 PUSH1 0x20 DUP4 ADD CALLDATALOAD SWAP1 PUSH8 0xFFFFFFFFFFFFFFFF DUP3 GT PUSH2 0x59E JUMPI PUSH2 0x592 DUP2 PUSH2 0x59B SWAP4 DUP7 ADD PUSH2 0x1FD JUMP JUMPDEST SWAP4 PUSH1 0x40 ADD PUSH2 0x25F JUMP JUMPDEST SWAP1 JUMP JUMPDEST PUSH2 0x110 JUMP JUMPDEST PUSH2 0x10C JUMP JUMPDEST CALLVALUE PUSH2 0x5D7 JUMPI PUSH2 0x5C1 PUSH2 0x5BB CALLDATASIZE PUSH1 0x4 PUSH2 0x555 JUMP JUMPDEST SWAP2 PUSH2 0x295B JUMP JUMPDEST PUSH2 0x5C9 PUSH2 0x102 JUMP JUMPDEST DUP1 PUSH2 0x5D3 DUP2 PUSH2 0x3C9 JUMP JUMPDEST SUB SWAP1 RETURN JUMPDEST PUSH2 0x108 JUMP JUMPDEST SHR SWAP1 JUMP JUMPDEST PUSH20 0xFFFFFFFFFFFFFFFFFFFFFFFFFFFFFFFFFFFFFFFF AND SWAP1 JUMP JUMPDEST PUSH2 0x609 SWAP1 PUSH1 0x8 PUSH2 0x60E SWAP4 MUL PUSH2 0x5DC JUMP JUMPDEST PUSH2 0x5E0 JUMP JUMPDEST SWAP1 JUMP JUMPDEST SWAP1 PUSH2 0x61C SWAP2 SLOAD PUSH2 0x5F9 JUMP JUMPDEST SWAP1 JUMP JUMPDEST PUSH2 0x62A PUSH0 PUSH0 SWAP1 PUSH2 0x611 JUMP JUMPDEST SWAP1 JUMP JUMPDEST PUSH2 0x636 SWAP1 PUSH2 0x50D JUMP JUMPDEST SWAP1 JUMP JUMPDEST PUSH2 0x642 SWAP1 PUSH2 0x62D JUMP JUMPDEST SWAP1 MSTORE JUMP JUMPDEST SWAP2 SWAP1 PUSH2 0x659 SWAP1 PUSH0 PUSH1 0x20 DUP6 ADD SWAP5 ADD SWAP1 PUSH2 0x639 JUMP JUMPDEST JUMP JUMPDEST CALLVALUE PUSH2 0x68B JUMPI PUSH2 0x66B CALLDATASIZE PUSH1 0x4 PUSH2 0x469 JUMP JUMPDEST PUSH2 0x687 PUSH2 0x676 PUSH2 0x61F JUMP JUMPDEST PUSH2 0x67E PUSH2 0x102 JUMP JUMPDEST SWAP2 DUP3 SWAP2 DUP3 PUSH2 0x646 JUMP JUMPDEST SUB SWAP1 RETURN JUMPDEST PUSH2 0x108 JUMP JUMPDEST SWAP1 PUSH1 0x20 DUP3 DUP3 SUB SLT PUSH2 0x6A9 JUMPI PUSH2 0x6A6 SWAP2 PUSH0 ADD PUSH2 0x546 JUMP JUMPDEST SWAP1 JUMP JUMPDEST PUSH2 0x10C JUMP JUMPDEST PUSH2 0x6C2 PUSH2 0x6BD PUSH2 0x6C7 SWAP3 PUSH2 0x50D JUMP JUMPDEST PUSH2 0x47B JUMP JUMPDEST PUSH2 0x50D JUMP JUMPDEST SWAP1 JUMP JUMPDEST PUSH2 0x6D3 SWAP1 PUSH2 0x6AE JUMP JUMPDEST SWAP1 JUMP JUMPDEST PUSH2 0x6DF SWAP1 PUSH2 0x6CA JUMP JUMPDEST SWAP1 JUMP JUMPDEST SWAP1 PUSH2 0x6EC SWAP1 PUSH2 0x6D6 JUMP JUMPDEST PUSH0 MSTORE PUSH1 0x20 MSTORE PUSH1 0x40 PUSH0 KECCAK256 SWAP1 JUMP JUMPDEST PUSH32 0x4E487B7100000000000000000000000000000000000000000000000000000000 PUSH0 MSTORE PUSH1 0x22 PUSH1 0x4 MSTORE PUSH1 0x24 PUSH0 REVERT JUMPDEST SWAP1 PUSH1 0x1 PUSH1 0x2 DUP4 DIV SWAP3 AND DUP1 ISZERO PUSH2 0x745 JUMPI JUMPDEST PUSH1 0x20 DUP4 LT EQ PUSH2 0x740 JUMPI JUMP JUMPDEST PUSH2 0x6F8 JUMP JUMPDEST SWAP2 PUSH1 0x7F AND SWAP2 PUSH2 0x735 JUMP JUMPDEST PUSH1 0x20 SWAP2 DUP2 MSTORE ADD SWAP1 JUMP JUMPDEST PUSH0 MSTORE PUSH1 0x20 PUSH0 KECCAK256 SWAP1 JUMP JUMPDEST SWAP1 PUSH0 SWAP3 SWAP2 DUP1 SLOAD SWAP1 PUSH2 0x77B PUSH2 0x774 DUP4 PUSH2 0x725 JUMP JUMPDEST DUP1 SWAP5 PUSH2 0x74F JUMP JUMPDEST SWAP2 PUSH1 0x1 DUP2 AND SWAP1 DUP2 PUSH0 EQ PUSH2 0x7D2 JUMPI POP PUSH1 0x1 EQ PUSH2 0x796 JUMPI JUMPDEST POP POP POP JUMP JUMPDEST PUSH2 0x7A3 SWAP2 SWAP3 SWAP4 SWAP5 POP PUSH2 0x758 JUMP JUMPDEST SWAP2 PUSH0 SWAP3 JUMPDEST DUP2 DUP5 LT PUSH2 0x7BA JUMPI POP POP ADD SWAP1 PUSH0 DUP1 DUP1 PUSH2 0x791 JUMP JUMPDEST PUSH1 0x1 DUP2 PUSH1 0x20 SWAP3 SWAP6 SWAP4 SWAP6 SLOAD DUP5 DUP7 ADD MSTORE ADD SWAP2 ADD SWAP3 SWAP1 PUSH2 0x7A7 JUMP JUMPDEST SWAP3 SWAP5 SWAP6 POP POP POP PUSH1 0xFF NOT AND DUP3 MSTORE ISZERO ISZERO PUSH1 0x20 MUL ADD SWAP1 PUSH0 DUP1 DUP1 PUSH2 0x791 JUMP JUMPDEST SWAP1 PUSH2 0x7F7 SWAP2 PUSH2 0x761 JUMP JUMPDEST SWAP1 JUMP JUMPDEST SWAP1 PUSH2 0x81A PUSH2 0x813 SWAP3 PUSH2 0x80A PUSH2 0x102 JUMP JUMPDEST SWAP4 DUP5 DUP1 SWAP3 PUSH2 0x7ED JUMP JUMPDEST SUB DUP4 PUSH2 0x14F JUMP JUMPDEST JUMP JUMPDEST MSTORE JUMP JUMPDEST SLOAD SWAP1 JUMP JUMPDEST PUSH8 0xFFFFFFFFFFFFFFFF DUP2 GT PUSH2 0x83B JUMPI PUSH1 0x20 DUP1 SWAP2 MUL ADD SWAP1 JUMP JUMPDEST PUSH2 0x122 JUMP JUMPDEST SWAP1 PUSH2 0x852 PUSH2 0x84D DUP4 PUSH2 0x823 JUMP JUMPDEST PUSH2 0x178 JUMP JUMPDEST SWAP2 DUP3 MSTORE JUMP JUMPDEST PUSH0 MSTORE PUSH1 0x20 PUSH0 KECCAK256 SWAP1 JUMP JUMPDEST PUSH2 0x86A PUSH1 0x40 PUSH2 0x178 JUMP JUMPDEST SWAP1 JUMP JUMPDEST SWAP1 PUSH2 0x8A4 PUSH2 0x89B PUSH1 0x1 PUSH2 0x87E PUSH2 0x860 JUMP JUMPDEST SWAP5 PUSH2 0x895 PUSH2 0x88D PUSH0 DUP4 ADD PUSH2 0x7FA JUMP JUMPDEST PUSH0 DUP9 ADD PUSH2 0x81C JUMP JUMPDEST ADD PUSH2 0x7FA JUMP JUMPDEST PUSH1 0x20 DUP5 ADD PUSH2 0x81C JUMP JUMPDEST JUMP JUMPDEST MSTORE JUMP JUMPDEST PUSH0 SHR SWAP1 JUMP JUMPDEST SWAP1 JUMP JUMPDEST PUSH2 0x8BD PUSH2 0x8C2 SWAP2 PUSH2 0x8A9 JUMP JUMPDEST PUSH2 0x8AE JUMP JUMPDEST SWAP1 JUMP JUMPDEST PUSH2 0x8CF SWAP1 SLOAD PUSH2 0x8B1 JUMP JUMPDEST SWAP1 JUMP JUMPDEST SWAP1 PUSH2 0x8DC SWAP1 PUSH2 0x220 JUMP JUMPDEST SWAP1 MSTORE JUMP JUMPDEST PUSH20 0xFFFFFFFFFFFFFFFFFFFFFFFFFFFFFFFFFFFFFFFF AND SWAP1 JUMP JUMPDEST PUSH2 0x905 PUSH2 0x90A SWAP2 PUSH2 0x8A9 JUMP JUMPDEST PUSH2 0x8E0 JUMP JUMPDEST SWAP1 JUMP JUMPDEST PUSH2 0x917 SWAP1 SLOAD PUSH2 0x8F9 JUMP JUMPDEST SWAP1 JUMP JUMPDEST SWAP1 PUSH2 0x924 SWAP1 PUSH2 0x526 JUMP JUMPDEST SWAP1 MSTORE JUMP JUMPDEST PUSH1 0xA0 SHR SWAP1 JUMP JUMPDEST PUSH1 0xFF AND SWAP1 JUMP JUMPDEST PUSH2 0x940 PUSH2 0x945 SWAP2 PUSH2 0x928 JUMP JUMPDEST PUSH2 0x92E JUMP JUMPDEST SWAP1 JUMP JUMPDEST PUSH2 0x952 SWAP1 SLOAD PUSH2 0x934 JUMP JUMPDEST SWAP1 JUMP JUMPDEST PUSH32 0x4E487B7100000000000000000000000000000000000000000000000000000000 PUSH0 MSTORE PUSH1 0x21 PUSH1 0x4 MSTORE PUSH1 0x24 PUSH0 REVERT JUMPDEST PUSH1 0x2 GT ISZERO PUSH2 0x98C JUMPI JUMP JUMPDEST PUSH2 0x955 JUMP JUMPDEST SWAP1 PUSH2 0x99B DUP3 PUSH2 0x982 JUMP JUMPDEST JUMP JUMPDEST SWAP1 PUSH2 0x9A7 SWAP1 PUSH2 0x991 JUMP JUMPDEST SWAP1 MSTORE JUMP JUMPDEST PUSH2 0x9B5 PUSH1 0xC0 PUSH2 0x178 JUMP JUMPDEST SWAP1 JUMP JUMPDEST SWAP1 PUSH2 0xA4E PUSH2 0xA45 PUSH1 0x4 PUSH2 0x9C9 PUSH2 0x9AB JUMP JUMPDEST SWAP5 PUSH2 0x9E0 PUSH2 0x9D8 PUSH0 DUP4 ADD PUSH2 0x8C5 JUMP JUMPDEST PUSH0 DUP9 ADD PUSH2 0x8D2 JUMP JUMPDEST PUSH2 0x9F8 PUSH2 0x9EF PUSH1 0x1 DUP4 ADD PUSH2 0x7FA JUMP JUMPDEST PUSH1 0x20 DUP9 ADD PUSH2 0x81C JUMP JUMPDEST PUSH2 0xA10 PUSH2 0xA07 PUSH1 0x2 DUP4 ADD PUSH2 0x7FA JUMP JUMPDEST PUSH1 0x40 DUP9 ADD PUSH2 0x81C JUMP JUMPDEST PUSH2 0xA28 PUSH2 0xA1F PUSH1 0x3 DUP4 ADD PUSH2 0x7FA JUMP JUMPDEST PUSH1 0x60 DUP9 ADD PUSH2 0x81C JUMP JUMPDEST PUSH2 0xA3F PUSH2 0xA36 DUP4 DUP4 ADD PUSH2 0x90D JUMP JUMPDEST PUSH1 0x80 DUP9 ADD PUSH2 0x91A JUMP JUMPDEST ADD PUSH2 0x948 JUMP JUMPDEST PUSH1 0xA0 DUP5 ADD PUSH2 0x99D JUMP JUMPDEST JUMP JUMPDEST MSTORE JUMP JUMPDEST PUSH2 0xA5D PUSH1 0xA0 PUSH2 0x178 JUMP JUMPDEST SWAP1 JUMP JUMPDEST SWAP1 PUSH2 0xADF PUSH2 0xAD6 PUSH1 0x9 PUSH2 0xA71 PUSH2 0xA53 JUMP JUMPDEST SWAP5 PUSH2 0xA88 PUSH2 0xA80 PUSH0 DUP4 ADD PUSH2 0x7FA JUMP JUMPDEST PUSH0 DUP9 ADD PUSH2 0x81C JUMP JUMPDEST PUSH2 0xAA0 PUSH2 0xA97 PUSH1 0x1 DUP4 ADD PUSH2 0x86D JUMP JUMPDEST PUSH1 0x20 DUP9 ADD PUSH2 0x8A6 JUMP JUMPDEST PUSH2 0xAB8 PUSH2 0xAAF PUSH1 0x3 DUP4 ADD PUSH2 0x9B8 JUMP JUMPDEST PUSH1 0x40 DUP9 ADD PUSH2 0xA50 JUMP JUMPDEST PUSH2 0xAD0 PUSH2 0xAC7 PUSH1 0x8 DUP4 ADD PUSH2 0x8C5 JUMP JUMPDEST PUSH1 0x60 DUP9 ADD PUSH2 0x8D2 JUMP JUMPDEST ADD PUSH2 0x8C5 JUMP JUMPDEST PUSH1 0x80 DUP5 ADD PUSH2 0x8D2 JUMP JUMPDEST JUMP JUMPDEST PUSH2 0xAEA SWAP1 PUSH2 0xA60 JUMP JUMPDEST SWAP1 JUMP JUMPDEST SWAP1 PUSH2 0xAF7 DUP3 PUSH2 0x81F JUMP JUMPDEST PUSH2 0xB00 DUP2 PUSH2 0x840 JUMP JUMPDEST SWAP3 PUSH2 0xB0E PUSH1 0x20 DUP6 ADD SWAP2 PUSH2 0x857 JUMP JUMPDEST PUSH0 SWAP2 JUMPDEST DUP4 DUP4 LT PUSH2 0xB1E JUMPI POP POP POP POP JUMP JUMPDEST PUSH1 0xA PUSH1 0x20 PUSH1 0x1 SWAP3 PUSH2 0xB2E DUP6 PUSH2 0xAE1 JUMP JUMPDEST DUP2 MSTORE ADD SWAP3 ADD SWAP3 ADD SWAP2 SWAP1 PUSH2 0xB11 JUMP JUMPDEST MSTORE JUMP JUMPDEST SLOAD SWAP1 JUMP JUMPDEST PUSH8 0xFFFFFFFFFFFFFFFF DUP2 GT PUSH2 0xB5B JUMPI PUSH1 0x20 DUP1 SWAP2 MUL ADD SWAP1 JUMP JUMPDEST PUSH2 0x122 JUMP JUMPDEST SWAP1 PUSH2 0xB72 PUSH2 0xB6D DUP4 PUSH2 0xB43 JUMP JUMPDEST PUSH2 0x178 JUMP JUMPDEST SWAP2 DUP3 MSTORE JUMP JUMPDEST PUSH0 MSTORE PUSH1 0x20 PUSH0 KECCAK256 SWAP1 JUMP JUMPDEST PUSH1 0xFF AND SWAP1 JUMP JUMPDEST PUSH2 0xB92 PUSH2 0xB97 SWAP2 PUSH2 0x8A9 JUMP JUMPDEST PUSH2 0xB80 JUMP JUMPDEST SWAP1 JUMP JUMPDEST PUSH2 0xBA4 SWAP1 SLOAD PUSH2 0xB86 JUMP JUMPDEST SWAP1 JUMP JUMPDEST SWAP1 PUSH2 0xBB1 SWAP1 PUSH2 0x246 JUMP JUMPDEST SWAP1 MSTORE JUMP JUMPDEST PUSH2 0xBC0 PUSH2 0x100 PUSH2 0x178 JUMP JUMPDEST SWAP1 JUMP JUMPDEST SWAP1 PUSH2 0xC8A PUSH2 0xC81 PUSH1 0x7 PUSH2 0xBD4 PUSH2 0xBB5 JUMP JUMPDEST SWAP5 PUSH2 0xBEB PUSH2 0xBE3 PUSH0 DUP4 ADD PUSH2 0x7FA JUMP JUMPDEST PUSH0 DUP9 ADD PUSH2 0x81C JUMP JUMPDEST PUSH2 0xC03 PUSH2 0xBFA PUSH1 0x1 DUP4 ADD PUSH2 0x7FA JUMP JUMPDEST PUSH1 0x20 DUP9 ADD PUSH2 0x81C JUMP JUMPDEST PUSH2 0xC1B PUSH2 0xC12 PUSH1 0x2 DUP4 ADD PUSH2 0x8C5 JUMP JUMPDEST PUSH1 0x40 DUP9 ADD PUSH2 0x8D2 JUMP JUMPDEST PUSH2 0xC33 PUSH2 0xC2A PUSH1 0x3 DUP4 ADD PUSH2 0x8C5 JUMP JUMPDEST PUSH1 0x60 DUP9 ADD PUSH2 0x8D2 JUMP JUMPDEST PUSH2 0xC4B PUSH2 0xC42 PUSH1 0x4 DUP4 ADD PUSH2 0x7FA JUMP JUMPDEST PUSH1 0x80 DUP9 ADD PUSH2 0x81C JUMP JUMPDEST PUSH2 0xC63 PUSH2 0xC5A PUSH1 0x5 DUP4 ADD PUSH2 0x7FA JUMP JUMPDEST PUSH1 0xA0 DUP9 ADD PUSH2 0x81C JUMP JUMPDEST PUSH2 0xC7B PUSH2 0xC72 PUSH1 0x6 DUP4 ADD PUSH2 0x7FA JUMP JUMPDEST PUSH1 0xC0 DUP9 ADD PUSH2 0x81C JUMP JUMPDEST ADD PUSH2 0xB9A JUMP JUMPDEST PUSH1 0xE0 DUP5 ADD PUSH2 0xBA7 JUMP JUMPDEST JUMP JUMPDEST PUSH2 0xC95 SWAP1 PUSH2 0xBC3 JUMP JUMPDEST SWAP1 JUMP JUMPDEST SWAP1 PUSH2 0xCA2 DUP3 PUSH2 0xB3F JUMP JUMPDEST PUSH2 0xCAB DUP2 PUSH2 0xB60 JUMP JUMPDEST SWAP3 PUSH2 0xCB9 PUSH1 0x20 DUP6 ADD SWAP2 PUSH2 0xB77 JUMP JUMPDEST PUSH0 SWAP2 JUMPDEST DUP4 DUP4 LT PUSH2 0xCC9 JUMPI POP POP POP POP JUMP JUMPDEST PUSH1 0x8 PUSH1 0x20 PUSH1 0x1 SWAP3 PUSH2 0xCD9 DUP6 PUSH2 0xC8C JUMP JUMPDEST DUP2 MSTORE ADD SWAP3 ADD SWAP3 ADD SWAP2 SWAP1 PUSH2 0xCBC JUMP JUMPDEST MSTORE JUMP JUMPDEST SLOAD SWAP1 JUMP JUMPDEST PUSH8 0xFFFFFFFFFFFFFFFF DUP2 GT PUSH2 0xD06 JUMPI PUSH1 0x20 DUP1 SWAP2 MUL ADD SWAP1 JUMP JUMPDEST PUSH2 0x122 JUMP JUMPDEST SWAP1 PUSH2 0xD1D PUSH2 0xD18 DUP4 PUSH2 0xCEE JUMP JUMPDEST PUSH2 0x178 JUMP JUMPDEST SWAP2 DUP3 MSTORE JUMP JUMPDEST PUSH0 MSTORE PUSH1 0x20 PUSH0 KECCAK256 SWAP1 JUMP JUMPDEST PUSH2 0xD34 SWAP1 PUSH2 0x7FA JUMP JUMPDEST SWAP1 JUMP JUMPDEST SWAP1 PUSH2 0xD41 DUP3 PUSH2 0xCEA JUMP JUMPDEST PUSH2 0xD4A DUP2 PUSH2 0xD0B JUMP JUMPDEST SWAP3 PUSH2 0xD58 PUSH1 0x20 DUP6 ADD SWAP2 PUSH2 0xD22 JUMP JUMPDEST PUSH0 SWAP2 JUMPDEST DUP4 DUP4 LT PUSH2 0xD68 JUMPI POP POP POP POP JUMP JUMPDEST PUSH1 0x1 PUSH1 0x20 DUP2 SWAP3 PUSH2 0xD77 DUP6 PUSH2 0xD2B JUMP JUMPDEST DUP2 MSTORE ADD SWAP3 ADD SWAP3 ADD SWAP2 SWAP1 PUSH2 0xD5B JUMP JUMPDEST MSTORE JUMP JUMPDEST PUSH2 0xD92 PUSH1 0xC0 PUSH2 0x178 JUMP JUMPDEST SWAP1 JUMP JUMPDEST SWAP1 PUSH2 0xE2C PUSH2 0xE23 PUSH1 0x5 PUSH2 0xDA6 PUSH2 0xD88 JUMP JUMPDEST SWAP5 PUSH2 0xDBD PUSH2 0xDB5 PUSH0 DUP4 ADD PUSH2 0x7FA JUMP JUMPDEST PUSH0 DUP9 ADD PUSH2 0x81C JUMP JUMPDEST PUSH2 0xDD5 PUSH2 0xDCC PUSH1 0x1 DUP4 ADD PUSH2 0x7FA JUMP JUMPDEST PUSH1 0x20 DUP9 ADD PUSH2 0x81C JUMP JUMPDEST PUSH2 0xDED PUSH2 0xDE4 PUSH1 0x2 DUP4 ADD PUSH2 0xAED JUMP JUMPDEST PUSH1 0x40 DUP9 ADD PUSH2 0xB3C JUMP JUMPDEST PUSH2 0xE05 PUSH2 0xDFC PUSH1 0x3 DUP4 ADD PUSH2 0xC98 JUMP JUMPDEST PUSH1 0x60 DUP9 ADD PUSH2 0xCE7 JUMP JUMPDEST PUSH2 0xE1D PUSH2 0xE14 PUSH1 0x4 DUP4 ADD PUSH2 0xD37 JUMP JUMPDEST PUSH1 0x80 DUP9 ADD PUSH2 0xD85 JUMP JUMPDEST ADD PUSH2 0xB9A JUMP JUMPDEST PUSH1 0xA0 DUP5 ADD PUSH2 0xBA7 JUMP JUMPDEST JUMP JUMPDEST PUSH2 0xE39 SWAP1 PUSH1 0x2 PUSH2 0x6E2 JUMP JUMPDEST SWAP1 PUSH2 0xE51 PUSH1 0x6 PUSH2 0xE4A PUSH0 DUP6 ADD PUSH2 0xD95 JUMP JUMPDEST SWAP4 ADD PUSH2 0x8C5 JUMP JUMPDEST SWAP1 JUMP JUMPDEST MLOAD SWAP1 JUMP JUMPDEST SWAP1 DUP3 PUSH0 SWAP4 SWAP3 DUP3 MCOPY ADD MSTORE JUMP JUMPDEST PUSH2 0xE82 PUSH2 0xE8B PUSH1 0x20 SWAP4 PUSH2 0xE90 SWAP4 PUSH2 0xE79 DUP2 PUSH2 0xE54 JUMP JUMPDEST SWAP4 DUP5 DUP1 SWAP4 PUSH2 0x74F JUMP JUMPDEST SWAP6 DUP7 SWAP2 ADD PUSH2 0xE58 JUMP JUMPDEST PUSH2 0x118 JUMP JUMPDEST ADD SWAP1 JUMP JUMPDEST MLOAD SWAP1 JUMP JUMPDEST PUSH1 0x20 SWAP2 DUP2 MSTORE ADD SWAP1 JUMP JUMPDEST PUSH1 0x20 ADD SWAP1 JUMP JUMPDEST PUSH2 0xED5 SWAP2 PUSH1 0x20 PUSH2 0xEC4 PUSH1 0x40 DUP4 ADD PUSH0 DUP6 ADD MLOAD DUP5 DUP3 SUB PUSH0 DUP7 ADD MSTORE PUSH2 0xE63 JUMP JUMPDEST SWAP3 ADD MLOAD SWAP1 PUSH1 0x20 DUP2 DUP5 SUB SWAP2 ADD MSTORE PUSH2 0xE63 JUMP JUMPDEST SWAP1 JUMP JUMPDEST PUSH2 0xEE1 SWAP1 PUSH2 0x220 JUMP JUMPDEST SWAP1 MSTORE JUMP JUMPDEST PUSH2 0xEEE SWAP1 PUSH2 0x526 JUMP JUMPDEST SWAP1 MSTORE JUMP JUMPDEST PUSH2 0xEFB SWAP1 PUSH2 0x991 JUMP JUMPDEST SWAP1 JUMP JUMPDEST PUSH2 0xF07 SWAP1 PUSH2 0xEF2 JUMP JUMPDEST SWAP1 MSTORE JUMP JUMPDEST SWAP1 PUSH2 0xF83 SWAP1 PUSH1 0xA0 DUP1 PUSH2 0xF66 PUSH2 0xF54 PUSH2 0xF42 PUSH1 0xC0 DUP7 ADD PUSH2 0xF30 PUSH0 DUP11 ADD MLOAD PUSH0 DUP10 ADD SWAP1 PUSH2 0xED8 JUMP JUMPDEST PUSH1 0x20 DUP10 ADD MLOAD DUP8 DUP3 SUB PUSH1 0x20 DUP10 ADD MSTORE PUSH2 0xE63 JUMP JUMPDEST PUSH1 0x40 DUP9 ADD MLOAD DUP7 DUP3 SUB PUSH1 0x40 DUP9 ADD MSTORE PUSH2 0xE63 JUMP JUMPDEST PUSH1 0x60 DUP8 ADD MLOAD DUP6 DUP3 SUB PUSH1 0x60 DUP8 ADD MSTORE PUSH2 0xE63 JUMP JUMPDEST SWAP5 PUSH2 0xF79 PUSH1 0x80 DUP3 ADD MLOAD PUSH1 0x80 DUP7 ADD SWAP1 PUSH2 0xEE5 JUMP JUMPDEST ADD MLOAD SWAP2 ADD SWAP1 PUSH2 0xEFE JUMP JUMPDEST SWAP1 JUMP JUMPDEST SWAP1 PUSH2 0xFEC SWAP1 PUSH1 0x80 DUP1 PUSH2 0xFCF PUSH2 0xFBD PUSH2 0xFAB PUSH1 0xA0 DUP7 ADD PUSH0 DUP10 ADD MLOAD DUP8 DUP3 SUB PUSH0 DUP10 ADD MSTORE PUSH2 0xE63 JUMP JUMPDEST PUSH1 0x20 DUP9 ADD MLOAD DUP7 DUP3 SUB PUSH1 0x20 DUP9 ADD MSTORE PUSH2 0xEA7 JUMP JUMPDEST PUSH1 0x40 DUP8 ADD MLOAD DUP6 DUP3 SUB PUSH1 0x40 DUP8 ADD MSTORE PUSH2 0xF0B JUMP JUMPDEST SWAP5 PUSH2 0xFE2 PUSH1 0x60 DUP3 ADD MLOAD PUSH1 0x60 DUP7 ADD SWAP1 PUSH2 0xED8 JUMP JUMPDEST ADD MLOAD SWAP2 ADD SWAP1 PUSH2 0xED8 JUMP JUMPDEST SWAP1 JUMP JUMPDEST SWAP1 PUSH2 0xFF9 SWAP2 PUSH2 0xF86 JUMP JUMPDEST SWAP1 JUMP JUMPDEST PUSH1 0x20 ADD SWAP1 JUMP JUMPDEST SWAP1 PUSH2 0x1016 PUSH2 0x100F DUP4 PUSH2 0xE94 JUMP JUMPDEST DUP1 SWAP3 PUSH2 0xE98 JUMP JUMPDEST SWAP1 DUP2 PUSH2 0x1027 PUSH1 0x20 DUP4 MUL DUP5 ADD SWAP5 PUSH2 0xEA1 JUMP JUMPDEST SWAP3 PUSH0 SWAP2 JUMPDEST DUP4 DUP4 LT PUSH2 0x103A JUMPI POP POP POP POP POP SWAP1 JUMP JUMPDEST SWAP1 SWAP2 SWAP3 SWAP4 SWAP5 PUSH1 0x20 PUSH2 0x105C PUSH2 0x1056 DUP4 DUP6 PUSH1 0x1 SWAP6 SUB DUP8 MSTORE DUP10 MLOAD PUSH2 0xFEF JUMP JUMPDEST SWAP8 PUSH2 0xFFC JUMP JUMPDEST SWAP4 ADD SWAP4 ADD SWAP2 SWAP4 SWAP3 SWAP1 PUSH2 0x102B JUMP JUMPDEST MLOAD SWAP1 JUMP JUMPDEST PUSH1 0x20 SWAP2 DUP2 MSTORE ADD SWAP1 JUMP JUMPDEST PUSH1 0x20 ADD SWAP1 JUMP JUMPDEST PUSH2 0x1085 SWAP1 PUSH2 0x246 JUMP JUMPDEST SWAP1 MSTORE JUMP JUMPDEST SWAP1 PUSH2 0x112C SWAP1 PUSH1 0xE0 DUP1 PUSH2 0x1121 PUSH2 0x110F PUSH2 0x10FD PUSH2 0x10C7 PUSH2 0x10B5 PUSH2 0x100 DUP9 ADD PUSH0 DUP12 ADD MLOAD DUP10 DUP3 SUB PUSH0 DUP12 ADD MSTORE PUSH2 0xE63 JUMP JUMPDEST PUSH1 0x20 DUP11 ADD MLOAD DUP9 DUP3 SUB PUSH1 0x20 DUP11 ADD MSTORE PUSH2 0xE63 JUMP JUMPDEST PUSH2 0x10D9 PUSH1 0x40 DUP11 ADD MLOAD PUSH1 0x40 DUP10 ADD SWAP1 PUSH2 0xED8 JUMP JUMPDEST PUSH2 0x10EB PUSH1 0x60 DUP11 ADD MLOAD PUSH1 0x60 DUP10 ADD SWAP1 PUSH2 0xED8 JUMP JUMPDEST PUSH1 0x80 DUP10 ADD MLOAD DUP8 DUP3 SUB PUSH1 0x80 DUP10 ADD MSTORE PUSH2 0xE63 JUMP JUMPDEST PUSH1 0xA0 DUP9 ADD MLOAD DUP7 DUP3 SUB PUSH1 0xA0 DUP9 ADD MSTORE PUSH2 0xE63 JUMP JUMPDEST PUSH1 0xC0 DUP8 ADD MLOAD DUP6 DUP3 SUB PUSH1 0xC0 DUP8 ADD MSTORE PUSH2 0xE63 JUMP JUMPDEST SWAP5 ADD MLOAD SWAP2 ADD SWAP1 PUSH2 0x107C JUMP JUMPDEST SWAP1 JUMP JUMPDEST SWAP1 PUSH2 0x1139 SWAP2 PUSH2 0x1089 JUMP JUMPDEST SWAP1 JUMP JUMPDEST PUSH1 0x20 ADD SWAP1 JUMP JUMPDEST SWAP1 PUSH2 0x1156 PUSH2 0x114F DUP4 PUSH2 0x1069 JUMP JUMPDEST DUP1 SWAP3 PUSH2 0x106D JUMP JUMPDEST SWAP1 DUP2 PUSH2 0x1167 PUSH1 0x20 DUP4 MUL DUP5 ADD SWAP5 PUSH2 0x1076 JUMP JUMPDEST SWAP3 PUSH0 SWAP2 JUMPDEST DUP4 DUP4 LT PUSH2 0x117A JUMPI POP POP POP POP POP SWAP1 JUMP JUMPDEST SWAP1 SWAP2 SWAP3 SWAP4 SWAP5 PUSH1 0x20 PUSH2 0x119C PUSH2 0x1196 DUP4 DUP6 PUSH1 0x1 SWAP6 SUB DUP8 MSTORE DUP10 MLOAD PUSH2 0x112F JUMP JUMPDEST SWAP8 PUSH2 0x113C JUMP JUMPDEST SWAP4 ADD SWAP4 ADD SWAP2 SWAP4 SWAP3 SWAP1 PUSH2 0x116B JUMP JUMPDEST MLOAD SWAP1 JUMP JUMPDEST PUSH1 0x20 SWAP2 DUP2 MSTORE ADD SWAP1 JUMP JUMPDEST PUSH1 0x20 ADD SWAP1 JUMP JUMPDEST SWAP1 PUSH2 0x11C6 SWAP2 PUSH2 0xE63 JUMP JUMPDEST SWAP1 JUMP JUMPDEST PUSH1 0x20 ADD SWAP1 JUMP JUMPDEST SWAP1 PUSH2 0x11E3 PUSH2 0x11DC DUP4 PUSH2 0x11A9 JUMP JUMPDEST DUP1 SWAP3 PUSH2 0x11AD JUMP JUMPDEST SWAP1 DUP2 PUSH2 0x11F4 PUSH1 0x20 DUP4 MUL DUP5 ADD SWAP5 PUSH2 0x11B6 JUMP JUMPDEST SWAP3 PUSH0 SWAP2 JUMPDEST DUP4 DUP4 LT PUSH2 0x1207 JUMPI POP POP POP POP POP SWAP1 JUMP JUMPDEST SWAP1 SWAP2 SWAP3 SWAP4 SWAP5 PUSH1 0x20 PUSH2 0x1229 PUSH2 0x1223 DUP4 DUP6 PUSH1 0x1 SWAP6 SUB DUP8 MSTORE DUP10 MLOAD PUSH2 0x11BC JUMP JUMPDEST SWAP8 PUSH2 0x11C9 JUMP JUMPDEST SWAP4 ADD SWAP4 ADD SWAP2 SWAP4 SWAP3 SWAP1 PUSH2 0x11F8 JUMP JUMPDEST SWAP1 PUSH2 0x12B4 SWAP1 PUSH1 0xA0 DUP1 PUSH2 0x12A9 PUSH2 0x1297 PUSH2 0x1285 PUSH2 0x1273 PUSH2 0x1261 PUSH1 0xC0 DUP9 ADD PUSH0 DUP12 ADD MLOAD DUP10 DUP3 SUB PUSH0 DUP12 ADD MSTORE PUSH2 0xE63 JUMP JUMPDEST PUSH1 0x20 DUP11 ADD MLOAD DUP9 DUP3 SUB PUSH1 0x20 DUP11 ADD MSTORE PUSH2 0xE63 JUMP JUMPDEST PUSH1 0x40 DUP10 ADD MLOAD DUP8 DUP3 SUB PUSH1 0x40 DUP10 ADD MSTORE PUSH2 0x1002 JUMP JUMPDEST PUSH1 0x60 DUP9 ADD MLOAD DUP7 DUP3 SUB PUSH1 0x60 DUP9 ADD MSTORE PUSH2 0x1142 JUMP JUMPDEST PUSH1 0x80 DUP8 ADD MLOAD DUP6 DUP3 SUB PUSH1 0x80 DUP8 ADD MSTORE PUSH2 0x11CF JUMP JUMPDEST SWAP5 ADD MLOAD SWAP2 ADD SWAP1 PUSH2 0x107C JUMP JUMPDEST SWAP1 JUMP JUMPDEST SWAP3 SWAP2 PUSH1 0x20 PUSH2 0x12D3 PUSH2 0x12DB SWAP4 PUSH1 0x40 DUP8 ADD SWAP1 DUP8 DUP3 SUB PUSH0 DUP10 ADD MSTORE PUSH2 0x1236 JUMP JUMPDEST SWAP5 ADD SWAP1 PUSH2 0x4B6 JUMP JUMPDEST JUMP JUMPDEST CALLVALUE PUSH2 0x130E JUMPI PUSH2 0x12F5 PUSH2 0x12F0 CALLDATASIZE PUSH1 0x4 PUSH2 0x690 JUMP JUMPDEST PUSH2 0xE2E JUMP JUMPDEST SWAP1 PUSH2 0x130A PUSH2 0x1301 PUSH2 0x102 JUMP JUMPDEST SWAP3 DUP4 SWAP3 DUP4 PUSH2 0x12B7 JUMP JUMPDEST SUB SWAP1 RETURN JUMPDEST PUSH2 0x108 JUMP JUMPDEST PUSH2 0x1323 SWAP1 PUSH1 0x8 PUSH2 0x1328 SWAP4 MUL PUSH2 0x5DC JUMP JUMPDEST PUSH2 0x8AE JUMP JUMPDEST SWAP1 JUMP JUMPDEST SWAP1 PUSH2 0x1336 SWAP2 SLOAD PUSH2 0x1313 JUMP JUMPDEST SWAP1 JUMP JUMPDEST PUSH2 0x1345 PUSH1 0x1 PUSH0 SWAP1 PUSH2 0x132B JUMP JUMPDEST SWAP1 JUMP JUMPDEST CALLVALUE PUSH2 0x1378 JUMPI PUSH2 0x1358 CALLDATASIZE PUSH1 0x4 PUSH2 0x469 JUMP JUMPDEST PUSH2 0x1374 PUSH2 0x1363 PUSH2 0x1339 JUMP JUMPDEST PUSH2 0x136B PUSH2 0x102 JUMP JUMPDEST SWAP2 DUP3 SWAP2 DUP3 PUSH2 0x4C3 JUMP JUMPDEST SUB SWAP1 RETURN JUMPDEST PUSH2 0x108 JUMP JUMPDEST SWAP1 SWAP2 PUSH1 0x60 DUP3 DUP5 SUB SLT PUSH2 0x13E3 JUMPI PUSH0 DUP3 ADD CALLDATALOAD PUSH8 0xFFFFFFFFFFFFFFFF DUP2 GT PUSH2 0x13DE JUMPI DUP4 PUSH2 0x13A8 SWAP2 DUP5 ADD PUSH2 0x1FD JUMP JUMPDEST SWAP3 PUSH1 0x20 DUP4 ADD CALLDATALOAD SWAP1 PUSH8 0xFFFFFFFFFFFFFFFF DUP3 GT PUSH2 0x13D9 JUMPI PUSH2 0x13CD DUP2 PUSH2 0x13D6 SWAP4 DUP7 ADD PUSH2 0x1FD JUMP JUMPDEST SWAP4 PUSH1 0x40 ADD PUSH2 0x237 JUMP JUMPDEST SWAP1 JUMP JUMPDEST PUSH2 0x110 JUMP JUMPDEST PUSH2 0x110 JUMP JUMPDEST PUSH2 0x10C JUMP JUMPDEST CALLVALUE PUSH2 0x1417 JUMPI PUSH2 0x1401 PUSH2 0x13FB CALLDATASIZE PUSH1 0x4 PUSH2 0x137D JUMP JUMPDEST SWAP2 PUSH2 0x2E0F JUMP JUMPDEST PUSH2 0x1409 PUSH2 0x102 JUMP JUMPDEST DUP1 PUSH2 0x1413 DUP2 PUSH2 0x3C9 JUMP JUMPDEST SUB SWAP1 RETURN JUMPDEST PUSH2 0x108 JUMP JUMPDEST PUSH2 0x1428 PUSH1 0x3 PUSH0 SWAP1 PUSH2 0x132B JUMP JUMPDEST SWAP1 JUMP JUMPDEST CALLVALUE PUSH2 0x145B JUMPI PUSH2 0x143B CALLDATASIZE PUSH1 0x4 PUSH2 0x469 JUMP JUMPDEST PUSH2 0x1457 PUSH2 0x1446 PUSH2 0x141C JUMP JUMPDEST PUSH2 0x144E PUSH2 0x102 JUMP JUMPDEST SWAP2 DUP3 SWAP2 DUP3 PUSH2 0x4C3 JUMP JUMPDEST SUB SWAP1 RETURN JUMPDEST PUSH2 0x108 JUMP JUMPDEST PUSH2 0x1469 SWAP1 PUSH2 0x246 JUMP JUMPDEST SWAP1 MSTORE JUMP JUMPDEST SWAP2 SWAP1 PUSH2 0x1480 SWAP1 PUSH0 PUSH1 0x20 DUP6 ADD SWAP5 ADD SWAP1 PUSH2 0x1460 JUMP JUMPDEST JUMP JUMPDEST CALLVALUE PUSH2 0x14B2 JUMPI PUSH2 0x14AE PUSH2 0x149D PUSH2 0x1498 CALLDATASIZE PUSH1 0x4 PUSH2 0x690 JUMP JUMPDEST PUSH2 0x301E JUMP JUMPDEST PUSH2 0x14A5 PUSH2 0x102 JUMP JUMPDEST SWAP2 DUP3 SWAP2 DUP3 PUSH2 0x146D JUMP JUMPDEST SUB SWAP1 RETURN JUMPDEST PUSH2 0x108 JUMP JUMPDEST PUSH0 DUP1 REVERT JUMPDEST SWAP3 SWAP2 SWAP1 PUSH2 0x14CF PUSH2 0x14CA DUP3 PUSH2 0xCEE JUMP JUMPDEST PUSH2 0x178 JUMP JUMPDEST SWAP4 DUP2 DUP6 MSTORE PUSH1 0x20 DUP1 DUP7 ADD SWAP3 MUL DUP2 ADD SWAP2 DUP4 DUP4 GT PUSH2 0x1526 JUMPI DUP2 SWAP1 JUMPDEST DUP4 DUP3 LT PUSH2 0x14F5 JUMPI POP POP POP POP POP JUMP JUMPDEST DUP2 CALLDATALOAD PUSH8 0xFFFFFFFFFFFFFFFF DUP2 GT PUSH2 0x1521 JUMPI PUSH1 0x20 SWAP2 PUSH2 0x1516 DUP8 DUP5 SWAP4 DUP8 ADD PUSH2 0x1FD JUMP JUMPDEST DUP2 MSTORE ADD SWAP2 ADD SWAP1 PUSH2 0x14E7 JUMP JUMPDEST PUSH2 0x191 JUMP JUMPDEST PUSH2 0x14B7 JUMP JUMPDEST SWAP1 DUP1 PUSH1 0x1F DUP4 ADD SLT ISZERO PUSH2 0x1549 JUMPI DUP2 PUSH1 0x20 PUSH2 0x1546 SWAP4 CALLDATALOAD SWAP2 ADD PUSH2 0x14BB JUMP JUMPDEST SWAP1 JUMP JUMPDEST PUSH2 0x191 JUMP JUMPDEST SWAP2 PUSH1 0x60 DUP4 DUP4 SUB SLT PUSH2 0x15CA JUMPI PUSH0 DUP4 ADD CALLDATALOAD PUSH8 0xFFFFFFFFFFFFFFFF DUP2 GT PUSH2 0x15C5 JUMPI DUP3 PUSH2 0x1578 SWAP2 DUP6 ADD PUSH2 0x1FD JUMP JUMPDEST SWAP3 PUSH1 0x20 DUP2 ADD CALLDATALOAD PUSH8 0xFFFFFFFFFFFFFFFF DUP2 GT PUSH2 0x15C0 JUMPI DUP4 PUSH2 0x1599 SWAP2 DUP4 ADD PUSH2 0x1FD JUMP JUMPDEST SWAP3 PUSH1 0x40 DUP3 ADD CALLDATALOAD PUSH8 0xFFFFFFFFFFFFFFFF DUP2 GT PUSH2 0x15BB JUMPI PUSH2 0x15B8 SWAP3 ADD PUSH2 0x152B JUMP JUMPDEST SWAP1 JUMP JUMPDEST PUSH2 0x110 JUMP JUMPDEST PUSH2 0x110 JUMP JUMPDEST PUSH2 0x110 JUMP JUMPDEST PUSH2 0x10C JUMP JUMPDEST CALLVALUE PUSH2 0x15FE JUMPI PUSH2 0x15E8 PUSH2 0x15E2 CALLDATASIZE PUSH1 0x4 PUSH2 0x154E JUMP JUMPDEST SWAP2 PUSH2 0x381E JUMP JUMPDEST PUSH2 0x15F0 PUSH2 0x102 JUMP JUMPDEST DUP1 PUSH2 0x15FA DUP2 PUSH2 0x3C9 JUMP JUMPDEST SUB SWAP1 RETURN JUMPDEST PUSH2 0x108 JUMP JUMPDEST SWAP1 JUMP JUMPDEST PUSH2 0x161A PUSH2 0x1615 PUSH2 0x161F SWAP3 PUSH2 0x1603 JUMP JUMPDEST PUSH2 0x47B JUMP JUMPDEST PUSH2 0x220 JUMP JUMPDEST SWAP1 JUMP JUMPDEST PUSH2 0x162D PUSH2 0x3E8 PUSH2 0x1606 JUMP JUMPDEST SWAP1 JUMP JUMPDEST PUSH2 0x1638 PUSH2 0x1622 JUMP JUMPDEST SWAP1 JUMP JUMPDEST CALLVALUE PUSH2 0x166B JUMPI PUSH2 0x164B CALLDATASIZE PUSH1 0x4 PUSH2 0x469 JUMP JUMPDEST PUSH2 0x1667 PUSH2 0x1656 PUSH2 0x1630 JUMP JUMPDEST PUSH2 0x165E PUSH2 0x102 JUMP JUMPDEST SWAP2 DUP3 SWAP2 DUP3 PUSH2 0x4C3 JUMP JUMPDEST SUB SWAP1 RETURN JUMPDEST PUSH2 0x108 JUMP JUMPDEST SWAP2 SWAP1 SWAP2 PUSH1 0x40 DUP2 DUP5 SUB SLT PUSH2 0x16DA JUMPI PUSH2 0x1687 PUSH1 0x40 PUSH2 0x178 JUMP JUMPDEST SWAP3 PUSH0 DUP3 ADD CALLDATALOAD PUSH8 0xFFFFFFFFFFFFFFFF DUP2 GT PUSH2 0x16D5 JUMPI DUP2 PUSH2 0x16A7 SWAP2 DUP5 ADD PUSH2 0x1FD JUMP JUMPDEST PUSH0 DUP6 ADD MSTORE PUSH1 0x20 DUP3 ADD CALLDATALOAD PUSH8 0xFFFFFFFFFFFFFFFF DUP2 GT PUSH2 0x16D0 JUMPI PUSH2 0x16C9 SWAP3 ADD PUSH2 0x1FD JUMP JUMPDEST PUSH1 0x20 DUP4 ADD MSTORE JUMP JUMPDEST PUSH2 0x18D JUMP JUMPDEST PUSH2 0x18D JUMP JUMPDEST PUSH2 0x114 JUMP JUMPDEST PUSH1 0x2 GT ISZERO PUSH2 0x16E9 JUMPI JUMP JUMPDEST PUSH0 DUP1 REVERT JUMPDEST SWAP1 POP CALLDATALOAD SWAP1 PUSH2 0x16FA DUP3 PUSH2 0x16DF JUMP JUMPDEST JUMP JUMPDEST SWAP2 SWAP1 SWAP2 PUSH1 0xC0 DUP2 DUP5 SUB SLT PUSH2 0x17C7 JUMPI PUSH2 0x1713 PUSH1 0xC0 PUSH2 0x178 JUMP JUMPDEST SWAP3 PUSH2 0x1720 DUP2 PUSH0 DUP5 ADD PUSH2 0x237 JUMP JUMPDEST PUSH0 DUP6 ADD MSTORE PUSH1 0x20 DUP3 ADD CALLDATALOAD PUSH8 0xFFFFFFFFFFFFFFFF DUP2 GT PUSH2 0x17C2 JUMPI DUP2 PUSH2 0x1744 SWAP2 DUP5 ADD PUSH2 0x1FD JUMP JUMPDEST PUSH1 0x20 DUP6 ADD MSTORE PUSH1 0x40 DUP3 ADD CALLDATALOAD PUSH8 0xFFFFFFFFFFFFFFFF DUP2 GT PUSH2 0x17BD JUMPI DUP2 PUSH2 0x1769 SWAP2 DUP5 ADD PUSH2 0x1FD JUMP JUMPDEST PUSH1 0x40 DUP6 ADD MSTORE PUSH1 0x60 DUP3 ADD CALLDATALOAD SWAP2 PUSH8 0xFFFFFFFFFFFFFFFF DUP4 GT PUSH2 0x17B8 JUMPI PUSH2 0x1792 DUP3 PUSH2 0x17B1 SWAP5 DUP4 ADD PUSH2 0x1FD JUMP JUMPDEST PUSH1 0x60 DUP7 ADD MSTORE PUSH2 0x17A4 DUP3 PUSH1 0x80 DUP4 ADD PUSH2 0x546 JUMP JUMPDEST PUSH1 0x80 DUP7 ADD MSTORE PUSH1 0xA0 ADD PUSH2 0x16ED JUMP JUMPDEST PUSH1 0xA0 DUP4 ADD MSTORE JUMP JUMPDEST PUSH2 0x18D JUMP JUMPDEST PUSH2 0x18D JUMP JUMPDEST PUSH2 0x18D JUMP JUMPDEST PUSH2 0x114 JUMP JUMPDEST SWAP2 PUSH1 0x60 DUP4 DUP4 SUB SLT PUSH2 0x1848 JUMPI PUSH0 DUP4 ADD CALLDATALOAD PUSH8 0xFFFFFFFFFFFFFFFF DUP2 GT PUSH2 0x1843 JUMPI DUP3 PUSH2 0x17F6 SWAP2 DUP6 ADD PUSH2 0x1FD JUMP JUMPDEST SWAP3 PUSH1 0x20 DUP2 ADD CALLDATALOAD PUSH8 0xFFFFFFFFFFFFFFFF DUP2 GT PUSH2 0x183E JUMPI DUP4 PUSH2 0x1817 SWAP2 DUP4 ADD PUSH2 0x1670 JUMP JUMPDEST SWAP3 PUSH1 0x40 DUP3 ADD CALLDATALOAD PUSH8 0xFFFFFFFFFFFFFFFF DUP2 GT PUSH2 0x1839 JUMPI PUSH2 0x1836 SWAP3 ADD PUSH2 0x16FC JUMP JUMPDEST SWAP1 JUMP JUMPDEST PUSH2 0x110 JUMP JUMPDEST PUSH2 0x110 JUMP JUMPDEST PUSH2 0x110 JUMP JUMPDEST PUSH2 0x10C JUMP JUMPDEST PUSH2 0x1861 PUSH2 0x185B CALLDATASIZE PUSH1 0x4 PUSH2 0x17CC JUMP JUMPDEST SWAP2 PUSH2 0x3A65 JUMP JUMPDEST PUSH2 0x1869 PUSH2 0x102 JUMP JUMPDEST DUP1 PUSH2 0x1873 DUP2 PUSH2 0x3C9 JUMP JUMPDEST SUB SWAP1 RETURN JUMPDEST SWAP1 PUSH1 0x20 DUP3 DUP3 SUB SLT PUSH2 0x1890 JUMPI PUSH2 0x188D SWAP2 PUSH0 ADD PUSH2 0x237 JUMP JUMPDEST SWAP1 JUMP JUMPDEST PUSH2 0x10C JUMP JUMPDEST CALLVALUE PUSH2 0x18C3 JUMPI PUSH2 0x18AD PUSH2 0x18A8 CALLDATASIZE PUSH1 0x4 PUSH2 0x1877 JUMP JUMPDEST PUSH2 0x3ED3 JUMP JUMPDEST PUSH2 0x18B5 PUSH2 0x102 JUMP JUMPDEST DUP1 PUSH2 0x18BF DUP2 PUSH2 0x3C9 JUMP JUMPDEST SUB SWAP1 RETURN JUMPDEST PUSH2 0x108 JUMP JUMPDEST PUSH0 DUP1 REVERT JUMPDEST PUSH2 0x18D6 SWAP1 MLOAD PUSH2 0x220 JUMP JUMPDEST SWAP1 JUMP JUMPDEST SWAP1 JUMP JUMPDEST PUSH2 0x18F0 PUSH2 0x18EB PUSH2 0x18F5 SWAP3 PUSH2 0x18D9 JUMP JUMPDEST PUSH2 0x47B JUMP JUMPDEST PUSH2 0x220 JUMP JUMPDEST SWAP1 JUMP JUMPDEST PUSH1 0x20 SWAP2 DUP2 MSTORE ADD SWAP1 JUMP JUMPDEST PUSH0 PUSH32 0x636F7374206D757374206265206D6F7265207468616E207A65726F0000000000 SWAP2 ADD MSTORE JUMP JUMPDEST PUSH2 0x1935 PUSH1 0x1B PUSH1 0x20 SWAP3 PUSH2 0x18F8 JUMP JUMPDEST PUSH2 0x193E DUP2 PUSH2 0x1901 JUMP JUMPDEST ADD SWAP1 JUMP JUMPDEST PUSH2 0x1957 SWAP1 PUSH1 0x20 DUP2 ADD SWAP1 PUSH0 DUP2 DUP4 SUB SWAP2 ADD MSTORE PUSH2 0x1928 JUMP JUMPDEST SWAP1 JUMP JUMPDEST ISZERO PUSH2 0x1961 JUMPI JUMP JUMPDEST PUSH2 0x1969 PUSH2 0x102 JUMP JUMPDEST PUSH32 0x8C379A000000000000000000000000000000000000000000000000000000000 DUP2 MSTORE DUP1 PUSH2 0x1999 PUSH1 0x4 DUP3 ADD PUSH2 0x1942 JUMP JUMPDEST SUB SWAP1 REVERT JUMPDEST PUSH2 0x19A7 SWAP1 MLOAD PUSH2 0x246 JUMP JUMPDEST SWAP1 JUMP JUMPDEST PUSH0 PUSH32 0x63616E2774207075626C69736820636F6D706C65746564207769736800000000 SWAP2 ADD MSTORE JUMP JUMPDEST PUSH2 0x19DE PUSH1 0x1C PUSH1 0x20 SWAP3 PUSH2 0x18F8 JUMP JUMPDEST PUSH2 0x19E7 DUP2 PUSH2 0x19AA JUMP JUMPDEST ADD SWAP1 JUMP JUMPDEST PUSH2 0x1A00 SWAP1 PUSH1 0x20 DUP2 ADD SWAP1 PUSH0 DUP2 DUP4 SUB SWAP2 ADD MSTORE PUSH2 0x19D1 JUMP JUMPDEST SWAP1 JUMP JUMPDEST ISZERO PUSH2 0x1A0A JUMPI JUMP JUMPDEST PUSH2 0x1A12 PUSH2 0x102 JUMP JUMPDEST PUSH32 0x8C379A000000000000000000000000000000000000000000000000000000000 DUP2 MSTORE DUP1 PUSH2 0x1A42 PUSH1 0x4 DUP3 ADD PUSH2 0x19EB JUMP JUMPDEST SUB SWAP1 REVERT JUMPDEST SWAP1 JUMP JUMPDEST PUSH1 0x1 PUSH2 0x1A55 SWAP2 ADD PUSH2 0x220 JUMP JUMPDEST SWAP1 JUMP JUMPDEST SLOAD SWAP1 JUMP JUMPDEST PUSH32 0x4E487B7100000000000000000000000000000000000000000000000000000000 PUSH0 MSTORE PUSH1 0x32 PUSH1 0x4 MSTORE PUSH1 0x24 PUSH0 REVERT JUMPDEST PUSH0 MSTORE PUSH1 0x20 PUSH0 KECCAK256 SWAP1 JUMP JUMPDEST PUSH0 MSTORE PUSH1 0x20 PUSH0 KECCAK256 SWAP1 JUMP JUMPDEST PUSH2 0x1AA4 DUP2 PUSH2 0x1A58 JUMP JUMPDEST DUP3 LT ISZERO PUSH2 0x1ABE JUMPI PUSH2 0x1AB6 PUSH1 0x8 SWAP2 PUSH2 0x1A89 JUMP JUMPDEST SWAP2 MUL ADD SWAP1 PUSH0 SWAP1 JUMP JUMPDEST PUSH2 0x1A5C JUMP JUMPDEST SWAP1 JUMP JUMPDEST PUSH1 0x20 SWAP2 DUP2 MSTORE ADD SWAP1 JUMP JUMPDEST SWAP1 PUSH0 SWAP3 SWAP2 DUP1 SLOAD SWAP1 PUSH2 0x1AE9 PUSH2 0x1AE2 DUP4 PUSH2 0x725 JUMP JUMPDEST DUP1 SWAP5 PUSH2 0x1AC6 JUMP JUMPDEST SWAP2 PUSH1 0x1 DUP2 AND SWAP1 DUP2 PUSH0 EQ PUSH2 0x1B40 JUMPI POP PUSH1 0x1 EQ PUSH2 0x1B04 JUMPI JUMPDEST POP POP POP JUMP JUMPDEST PUSH2 0x1B11 SWAP2 SWAP3 SWAP4 SWAP5 POP PUSH2 0x1A92 JUMP JUMPDEST SWAP2 PUSH0 SWAP3 JUMPDEST DUP2 DUP5 LT PUSH2 0x1B28 JUMPI POP POP ADD SWAP1 PUSH0 DUP1 DUP1 PUSH2 0x1AFF JUMP JUMPDEST PUSH1 0x1 DUP2 PUSH1 0x20 SWAP3 SWAP6 SWAP4 SWAP6 SLOAD DUP5 DUP7 ADD MSTORE ADD SWAP2 ADD SWAP3 SWAP1 PUSH2 0x1B15 JUMP JUMPDEST SWAP3 SWAP5 SWAP6 POP POP POP PUSH1 0xFF NOT AND DUP3 MSTORE ISZERO ISZERO PUSH1 0x20 MUL ADD SWAP1 PUSH0 DUP1 DUP1 PUSH2 0x1AFF JUMP JUMPDEST SWAP1 PUSH2 0x1B65 SWAP2 PUSH2 0x1ACF JUMP JUMPDEST SWAP1 JUMP JUMPDEST SWAP1 PUSH2 0x1B88 PUSH2 0x1B81 SWAP3 PUSH2 0x1B78 PUSH2 0x102 JUMP JUMPDEST SWAP4 DUP5 DUP1 SWAP3 PUSH2 0x1B5B JUMP JUMPDEST SUB DUP4 PUSH2 0x14F JUMP JUMPDEST JUMP JUMPDEST PUSH2 0x1B93 SWAP1 PUSH2 0x1B68 JUMP JUMPDEST SWAP1 JUMP JUMPDEST PUSH1 0x20 ADD SWAP1 JUMP JUMPDEST MLOAD SWAP1 JUMP JUMPDEST SWAP1 JUMP JUMPDEST SWAP1 JUMP JUMPDEST ISZERO PUSH2 0x1BAD JUMPI JUMP JUMPDEST PUSH0 PUSH32 0x9BE4F88800000000000000000000000000000000000000000000000000000000 DUP2 MSTORE DUP1 PUSH2 0x1BDE PUSH1 0x4 DUP3 ADD PUSH2 0x3C9 JUMP JUMPDEST SUB SWAP1 REVERT JUMPDEST PUSH32 0x4E487B7100000000000000000000000000000000000000000000000000000000 PUSH0 MSTORE PUSH0 PUSH1 0x4 MSTORE PUSH1 0x24 PUSH0 REVERT JUMPDEST MLOAD SWAP1 JUMP JUMPDEST PUSH1 0x1F PUSH1 0x20 SWAP2 ADD DIV SWAP1 JUMP JUMPDEST SHL SWAP1 JUMP JUMPDEST SWAP2 SWAP1 PUSH1 0x8 PUSH2 0x1C3B SWAP2 MUL SWAP2 PUSH2 0x1C35 PUSH0 NOT DUP5 PUSH2 0x1C1C JUMP JUMPDEST SWAP3 PUSH2 0x1C1C JUMP JUMPDEST SWAP2 DUP2 NOT AND SWAP2 AND OR SWAP1 JUMP JUMPDEST PUSH2 0x1C59 PUSH2 0x1C54 PUSH2 0x1C5E SWAP3 PUSH2 0x220 JUMP JUMPDEST PUSH2 0x47B JUMP JUMPDEST PUSH2 0x220 JUMP JUMPDEST SWAP1 JUMP JUMPDEST SWAP1 JUMP JUMPDEST SWAP2 SWAP1 PUSH2 0x1C7A PUSH2 0x1C75 PUSH2 0x1C82 SWAP4 PUSH2 0x1C45 JUMP JUMPDEST PUSH2 0x1C61 JUMP JUMPDEST SWAP1 DUP4 SLOAD PUSH2 0x1C20 JUMP JUMPDEST SWAP1 SSTORE JUMP JUMPDEST PUSH0 SWAP1 JUMP JUMPDEST PUSH2 0x1C9C SWAP2 PUSH2 0x1C96 PUSH2 0x1C86 JUMP JUMPDEST SWAP2 PUSH2 0x1C64 JUMP JUMPDEST JUMP JUMPDEST JUMPDEST DUP2 DUP2 LT PUSH2 0x1CAA JUMPI POP POP JUMP JUMPDEST DUP1 PUSH2 0x1CB7 PUSH0 PUSH1 0x1 SWAP4 PUSH2 0x1C8A JUMP JUMPDEST ADD PUSH2 0x1C9F JUMP JUMPDEST SWAP2 SWAP1 PUSH1 0x1F DUP2 GT PUSH2 0x1CCD JUMPI JUMPDEST POP POP POP JUMP JUMPDEST PUSH2 0x1CD9 PUSH2 0x1CFE SWAP4 PUSH2 0x758 JUMP JUMPDEST SWAP1 PUSH1 0x20 PUSH2 0x1CE5 DUP5 PUSH2 0x1C12 JUMP JUMPDEST DUP4 ADD SWAP4 LT PUSH2 0x1D06 JUMPI JUMPDEST PUSH2 0x1CF7 SWAP1 PUSH2 0x1C12 JUMP JUMPDEST ADD SWAP1 PUSH2 0x1C9E JUMP JUMPDEST PUSH0 DUP1 DUP1 PUSH2 0x1CC8 JUMP JUMPDEST SWAP2 POP PUSH2 0x1CF7 DUP2 SWAP3 SWAP1 POP PUSH2 0x1CEE JUMP JUMPDEST SWAP1 PUSH2 0x1D24 SWAP1 PUSH0 NOT SWAP1 PUSH1 0x8 MUL PUSH2 0x5DC JUMP JUMPDEST NOT AND SWAP1 JUMP JUMPDEST DUP2 PUSH2 0x1D33 SWAP2 PUSH2 0x1D14 JUMP JUMPDEST SWAP1 PUSH1 0x2 MUL OR SWAP1 JUMP JUMPDEST SWAP1 PUSH2 0x1D45 DUP2 PUSH2 0xE54 JUMP JUMPDEST SWAP1 PUSH8 0xFFFFFFFFFFFFFFFF DUP3 GT PUSH2 0x1E05 JUMPI PUSH2 0x1D69 DUP3 PUSH2 0x1D63 DUP6 SLOAD PUSH2 0x725 JUMP JUMPDEST DUP6 PUSH2 0x1CBD JUMP JUMPDEST PUSH1 0x20 SWAP1 PUSH1 0x1F DUP4 GT PUSH1 0x1 EQ PUSH2 0x1D9D JUMPI SWAP2 DUP1 SWAP2 PUSH2 0x1D8C SWAP4 PUSH0 SWAP3 PUSH2 0x1D91 JUMPI JUMPDEST POP POP PUSH2 0x1D29 JUMP JUMPDEST SWAP1 SSTORE JUMPDEST JUMP JUMPDEST SWAP1 SWAP2 POP ADD MLOAD PUSH0 DUP1 PUSH2 0x1D85 JUMP JUMPDEST PUSH1 0x1F NOT DUP4 AND SWAP2 PUSH2 0x1DAC DUP6 PUSH2 0x758 JUMP JUMPDEST SWAP3 PUSH0 JUMPDEST DUP2 DUP2 LT PUSH2 0x1DED JUMPI POP SWAP2 PUSH1 0x2 SWAP4 SWAP2 DUP6 PUSH1 0x1 SWAP7 SWAP5 LT PUSH2 0x1DD3 JUMPI JUMPDEST POP POP POP MUL ADD SWAP1 SSTORE PUSH2 0x1D8F JUMP JUMPDEST PUSH2 0x1DE3 SWAP2 ADD MLOAD PUSH1 0x1F DUP5 AND SWAP1 PUSH2 0x1D14 JUMP JUMPDEST SWAP1 SSTORE PUSH0 DUP1 DUP1 PUSH2 0x1DC7 JUMP JUMPDEST SWAP2 SWAP4 PUSH1 0x20 PUSH1 0x1 DUP2 SWAP3 DUP8 DUP8 ADD MLOAD DUP2 SSTORE ADD SWAP6 ADD SWAP3 ADD PUSH2 0x1DAF JUMP JUMPDEST PUSH2 0x122 JUMP JUMPDEST SWAP1 PUSH2 0x1E14 SWAP2 PUSH2 0x1D3B JUMP JUMPDEST JUMP JUMPDEST PUSH0 SHL SWAP1 JUMP JUMPDEST SWAP1 PUSH2 0x1E27 PUSH0 NOT SWAP2 PUSH2 0x1E16 JUMP JUMPDEST SWAP2 DUP2 NOT AND SWAP2 AND OR SWAP1 JUMP JUMPDEST SWAP1 PUSH2 0x1E46 PUSH2 0x1E41 PUSH2 0x1E4D SWAP3 PUSH2 0x1C45 JUMP JUMPDEST PUSH2 0x1C61 JUMP JUMPDEST DUP3 SLOAD PUSH2 0x1E1B JUMP JUMPDEST SWAP1 SSTORE JUMP JUMPDEST SWAP1 PUSH2 0x1E5D PUSH1 0xFF SWAP2 PUSH2 0x1E16 JUMP JUMPDEST SWAP2 DUP2 NOT AND SWAP2 AND OR SWAP1 JUMP JUMPDEST PUSH2 0x1E70 SWAP1 PUSH2 0x246 JUMP JUMPDEST SWAP1 JUMP JUMPDEST SWAP1 JUMP JUMPDEST SWAP1 PUSH2 0x1E8B PUSH2 0x1E86 PUSH2 0x1E92 SWAP3 PUSH2 0x1E67 JUMP JUMPDEST PUSH2 0x1E73 JUMP JUMPDEST DUP3 SLOAD PUSH2 0x1E51 JUMP JUMPDEST SWAP1 SSTORE JUMP JUMPDEST SWAP1 PUSH2 0x1F57 PUSH1 0xE0 PUSH1 0x7 PUSH2 0x1F5D SWAP5 PUSH2 0x1EB9 PUSH0 DUP3 ADD PUSH2 0x1EB3 PUSH0 DUP9 ADD PUSH2 0x1C0E JUMP JUMPDEST SWAP1 PUSH2 0x1E0A JUMP JUMPDEST PUSH2 0x1ED2 PUSH1 0x1 DUP3 ADD PUSH2 0x1ECC PUSH1 0x20 DUP9 ADD PUSH2 0x1C0E JUMP JUMPDEST SWAP1 PUSH2 0x1E0A JUMP JUMPDEST PUSH2 0x1EEB PUSH1 0x2 DUP3 ADD PUSH2 0x1EE5 PUSH1 0x40 DUP9 ADD PUSH2 0x18CC JUMP JUMPDEST SWAP1 PUSH2 0x1E31 JUMP JUMPDEST PUSH2 0x1F04 PUSH1 0x3 DUP3 ADD PUSH2 0x1EFE PUSH1 0x60 DUP9 ADD PUSH2 0x18CC JUMP JUMPDEST SWAP1 PUSH2 0x1E31 JUMP JUMPDEST PUSH2 0x1F1D PUSH1 0x4 DUP3 ADD PUSH2 0x1F17 PUSH1 0x80 DUP9 ADD PUSH2 0x1C0E JUMP JUMPDEST SWAP1 PUSH2 0x1E0A JUMP JUMPDEST PUSH2 0x1F36 PUSH1 0x5 DUP3 ADD PUSH2 0x1F30 PUSH1 0xA0 DUP9 ADD PUSH2 0x1C0E JUMP JUMPDEST SWAP1 PUSH2 0x1E0A JUMP JUMPDEST PUSH2 0x1F4F PUSH1 0x6 DUP3 ADD PUSH2 0x1F49 PUSH1 0xC0 DUP9 ADD PUSH2 0x1C0E JUMP JUMPDEST SWAP1 PUSH2 0x1E0A JUMP JUMPDEST ADD SWAP3 ADD PUSH2 0x199D JUMP JUMPDEST SWAP1 PUSH2 0x1E76 JUMP JUMPDEST JUMP JUMPDEST SWAP2 SWAP1 PUSH2 0x1F70 JUMPI PUSH2 0x1F6E SWAP2 PUSH2 0x1E96 JUMP JUMPDEST JUMP JUMPDEST PUSH2 0x1BE2 JUMP JUMPDEST SWAP1 DUP2 SLOAD SWAP2 PUSH9 0x10000000000000000 DUP4 LT ISZERO PUSH2 0x1FA5 JUMPI DUP3 PUSH2 0x1F9D SWAP2 PUSH1 0x1 PUSH2 0x1FA3 SWAP6 ADD DUP2 SSTORE PUSH2 0x1A9B JUMP JUMPDEST SWAP1 PUSH2 0x1F5F JUMP JUMPDEST JUMP JUMPDEST PUSH2 0x122 JUMP JUMPDEST SWAP1 POP SWAP1 JUMP JUMPDEST PUSH2 0x1FD4 PUSH2 0x1FCB SWAP3 PUSH1 0x20 SWAP3 PUSH2 0x1FC2 DUP2 PUSH2 0xE54 JUMP JUMPDEST SWAP5 DUP6 DUP1 SWAP4 PUSH2 0x1FAA JUMP JUMPDEST SWAP4 DUP5 SWAP2 ADD PUSH2 0xE58 JUMP JUMPDEST ADD SWAP1 JUMP JUMPDEST PUSH2 0x1FE1 SWAP2 PUSH2 0x1FAF JUMP JUMPDEST SWAP1 JUMP JUMPDEST PUSH2 0x1FF9 SWAP1 PUSH2 0x1FF0 PUSH2 0x102 JUMP JUMPDEST SWAP2 DUP3 SWAP2 DUP3 PUSH2 0x1FD8 JUMP JUMPDEST SUB SWAP1 KECCAK256 SWAP1 JUMP JUMPDEST PUSH2 0x201E PUSH2 0x2027 PUSH1 0x20 SWAP4 PUSH2 0x202C SWAP4 PUSH2 0x2015 DUP2 PUSH2 0xE54 JUMP JUMPDEST SWAP4 DUP5 DUP1 SWAP4 PUSH2 0x18F8 JUMP JUMPDEST SWAP6 DUP7 SWAP2 ADD PUSH2 0xE58 JUMP JUMPDEST PUSH2 0x118 JUMP JUMPDEST ADD SWAP1 JUMP JUMPDEST SWAP3 SWAP2 PUSH1 0x20 PUSH2 0x204C PUSH2 0x2054 SWAP4 PUSH1 0x40 DUP8 ADD SWAP1 DUP8 DUP3 SUB PUSH0 DUP10 ADD MSTORE PUSH2 0x1FFF JUMP JUMPDEST SWAP5 ADD SWAP1 PUSH2 0x4B6 JUMP JUMPDEST JUMP JUMPDEST PUSH2 0x207D PUSH2 0x2065 PUSH1 0x60 DUP4 ADD PUSH2 0x18CC JUMP JUMPDEST PUSH2 0x2077 PUSH2 0x2071 PUSH0 PUSH2 0x18DC JUMP JUMPDEST SWAP2 PUSH2 0x220 JUMP JUMPDEST GT PUSH2 0x195A JUMP JUMPDEST PUSH2 0x20A4 PUSH2 0x208C PUSH1 0xE0 DUP4 ADD PUSH2 0x199D JUMP JUMPDEST PUSH2 0x209E PUSH2 0x2098 PUSH0 PUSH2 0x246 JUMP JUMPDEST SWAP2 PUSH2 0x246 JUMP JUMPDEST EQ PUSH2 0x1A03 JUMP JUMPDEST PUSH0 SWAP1 PUSH2 0x20BF PUSH1 0x3 PUSH0 PUSH2 0x20B8 PUSH1 0x2 CALLER SWAP1 PUSH2 0x6E2 JUMP JUMPDEST ADD ADD PUSH2 0x1A46 JUMP JUMPDEST PUSH2 0x20C8 PUSH0 PUSH2 0x18DC JUMP JUMPDEST JUMPDEST DUP1 PUSH2 0x20E4 PUSH2 0x20DE PUSH2 0x20D9 DUP6 PUSH2 0x1A58 JUMP JUMPDEST PUSH2 0x220 JUMP JUMPDEST SWAP2 PUSH2 0x220 JUMP JUMPDEST LT ISZERO PUSH2 0x21F4 JUMPI PUSH2 0x2109 PUSH2 0x2104 PUSH1 0x1 PUSH2 0x20FD DUP6 DUP6 SWAP1 PUSH2 0x1A9B JUMP JUMPDEST POP ADD PUSH2 0x1AC3 JUMP JUMPDEST PUSH2 0x1B8A JUMP JUMPDEST PUSH2 0x211B PUSH2 0x2115 DUP3 PUSH2 0x1B9C JUMP JUMPDEST SWAP2 PUSH2 0x1B96 JUMP JUMPDEST KECCAK256 PUSH2 0x214D PUSH2 0x2147 PUSH2 0x212F PUSH1 0x20 DUP8 ADD MLOAD PUSH2 0x1BA0 JUMP JUMPDEST PUSH2 0x2141 PUSH2 0x213B DUP3 PUSH2 0x1B9C JUMP JUMPDEST SWAP2 PUSH2 0x1B96 JUMP JUMPDEST KECCAK256 PUSH2 0x1BA3 JUMP JUMPDEST SWAP2 PUSH2 0x1BA3 JUMP JUMPDEST EQ PUSH2 0x2160 JUMPI PUSH2 0x215B SWAP1 PUSH2 0x1A49 JUMP JUMPDEST PUSH2 0x20C9 JUMP JUMPDEST POP POP SWAP1 POP PUSH2 0x2178 PUSH2 0x2173 PUSH1 0x1 JUMPDEST ISZERO PUSH2 0x246 JUMP JUMPDEST PUSH2 0x1BA6 JUMP JUMPDEST PUSH2 0x219B PUSH2 0x2194 PUSH1 0x3 PUSH0 PUSH2 0x218D PUSH1 0x2 CALLER SWAP1 PUSH2 0x6E2 JUMP JUMPDEST ADD ADD PUSH2 0x1A46 JUMP JUMPDEST DUP3 SWAP1 PUSH2 0x1F75 JUMP JUMPDEST PUSH0 DUP2 ADD MLOAD PUSH2 0x21B0 PUSH1 0x60 PUSH1 0x20 DUP5 ADD MLOAD SWAP4 ADD PUSH2 0x18CC JUMP JUMPDEST PUSH2 0x21DA PUSH32 0xA509BFECC93809E56EE5BD9357AED7029BADCA6F39F134ED21BE5D8F74422F4B SWAP3 PUSH2 0x1FE4 JUMP JUMPDEST SWAP3 PUSH2 0x21EF PUSH2 0x21E6 PUSH2 0x102 JUMP JUMPDEST SWAP3 DUP4 SWAP3 DUP4 PUSH2 0x2030 JUMP JUMPDEST SUB SWAP1 LOG2 JUMP JUMPDEST POP POP SWAP1 PUSH2 0x2173 PUSH2 0x2178 SWAP2 PUSH2 0x216D JUMP JUMPDEST ISZERO PUSH2 0x220A JUMPI JUMP JUMPDEST PUSH0 PUSH32 0x6BC8EBC400000000000000000000000000000000000000000000000000000000 DUP2 MSTORE DUP1 PUSH2 0x223B PUSH1 0x4 DUP3 ADD PUSH2 0x3C9 JUMP JUMPDEST SUB SWAP1 REVERT JUMPDEST PUSH2 0x2285 SWAP1 PUSH2 0x226F PUSH2 0x2257 PUSH2 0x2252 DUP4 PUSH2 0x1BA0 JUMP JUMPDEST PUSH2 0x1B9C JUMP JUMPDEST PUSH2 0x2269 PUSH2 0x2263 PUSH0 PUSH2 0x18DC JUMP JUMPDEST SWAP2 PUSH2 0x220 JUMP JUMPDEST GT PUSH2 0x2203 JUMP JUMPDEST PUSH1 0x1 PUSH0 PUSH2 0x227E PUSH1 0x2 CALLER SWAP1 PUSH2 0x6E2 JUMP JUMPDEST ADD ADD PUSH2 0x1E0A JUMP JUMPDEST JUMP JUMPDEST PUSH0 PUSH32 0x7769736865730000000000000000000000000000000000000000000000000000 SWAP2 ADD MSTORE JUMP JUMPDEST PUSH2 0x22BB PUSH1 0x6 PUSH1 0x20 SWAP3 PUSH2 0x18F8 JUMP JUMPDEST PUSH2 0x22C4 DUP2 PUSH2 0x2287 JUMP JUMPDEST ADD SWAP1 JUMP JUMPDEST PUSH2 0x22DD SWAP1 PUSH1 0x20 DUP2 ADD SWAP1 PUSH0 DUP2 DUP4 SUB SWAP2 ADD MSTORE PUSH2 0x22AE JUMP JUMPDEST SWAP1 JUMP JUMPDEST ISZERO PUSH2 0x22E7 JUMPI JUMP JUMPDEST PUSH2 0x22EF PUSH2 0x102 JUMP JUMPDEST PUSH32 0x38FE1E9A00000000000000000000000000000000000000000000000000000000 DUP2 MSTORE DUP1 PUSH2 0x231F PUSH1 0x4 DUP3 ADD PUSH2 0x22C8 JUMP JUMPDEST SUB SWAP1 REVERT JUMPDEST SWAP1 JUMP JUMPDEST PUSH2 0x233A PUSH2 0x2335 PUSH2 0x233F SWAP3 PUSH2 0x2323 JUMP JUMPDEST PUSH2 0x47B JUMP JUMPDEST PUSH2 0x220 JUMP JUMPDEST SWAP1 JUMP JUMPDEST PUSH32 0x4E487B7100000000000000000000000000000000000000000000000000000000 PUSH0 MSTORE PUSH1 0x11 PUSH1 0x4 MSTORE PUSH1 0x24 PUSH0 REVERT JUMPDEST PUSH2 0x237E PUSH2 0x2384 SWAP2 SWAP4 SWAP3 SWAP4 PUSH2 0x220 JUMP JUMPDEST SWAP3 PUSH2 0x220 JUMP JUMPDEST DUP3 SUB SWAP2 DUP3 GT PUSH2 0x238F JUMPI JUMP JUMPDEST PUSH2 0x2342 JUMP JUMPDEST PUSH2 0x239E SWAP1 SLOAD PUSH2 0x725 JUMP JUMPDEST SWAP1 JUMP JUMPDEST SWAP1 DUP1 DUP3 EQ PUSH2 0x2480 JUMPI PUSH2 0x23B2 DUP2 PUSH2 0x2394 JUMP JUMPDEST SWAP1 PUSH8 0xFFFFFFFFFFFFFFFF DUP3 GT PUSH2 0x247B JUMPI PUSH2 0x23D6 DUP3 PUSH2 0x23D0 DUP6 SLOAD PUSH2 0x725 JUMP JUMPDEST DUP6 PUSH2 0x1CBD JUMP JUMPDEST PUSH0 SWAP1 PUSH1 0x1F DUP4 GT PUSH1 0x1 EQ PUSH2 0x2409 JUMPI SWAP2 DUP1 SWAP2 PUSH2 0x23F8 SWAP4 PUSH0 SWAP3 PUSH2 0x23FD JUMPI JUMPDEST POP POP PUSH2 0x1D29 JUMP JUMPDEST SWAP1 SSTORE JUMPDEST JUMP JUMPDEST SWAP1 SWAP2 POP ADD SLOAD PUSH0 DUP1 PUSH2 0x23F1 JUMP JUMPDEST SWAP1 PUSH2 0x2418 PUSH1 0x1F NOT DUP5 AND SWAP3 PUSH2 0x758 JUMP JUMPDEST SWAP1 PUSH2 0x2422 DUP6 PUSH2 0x758 JUMP JUMPDEST SWAP3 PUSH0 JUMPDEST DUP2 DUP2 LT PUSH2 0x2463 JUMPI POP SWAP2 PUSH1 0x2 SWAP4 SWAP2 DUP6 PUSH1 0x1 SWAP7 SWAP5 LT PUSH2 0x2449 JUMPI JUMPDEST POP POP POP MUL ADD SWAP1 SSTORE PUSH2 0x23FB JUMP JUMPDEST PUSH2 0x2459 SWAP2 ADD SLOAD PUSH1 0x1F DUP5 AND SWAP1 PUSH2 0x1D14 JUMP JUMPDEST SWAP1 SSTORE PUSH0 DUP1 DUP1 PUSH2 0x243D JUMP JUMPDEST SWAP2 SWAP4 PUSH1 0x1 DUP1 PUSH1 0x20 SWAP3 DUP8 DUP8 ADD SLOAD DUP2 SSTORE ADD SWAP6 ADD SWAP3 ADD PUSH2 0x2425 JUMP JUMPDEST PUSH2 0x122 JUMP JUMPDEST POP POP JUMP JUMPDEST SWAP1 PUSH2 0x248E SWAP2 PUSH2 0x23A1 JUMP JUMPDEST JUMP JUMPDEST SWAP1 DUP1 DUP3 SUB PUSH2 0x249D JUMPI JUMPDEST POP POP JUMP JUMPDEST PUSH2 0x2534 PUSH1 0x7 DUP1 DUP5 PUSH2 0x24B6 PUSH0 PUSH2 0x253A SWAP8 ADD PUSH0 DUP8 ADD SWAP1 PUSH2 0x2484 JUMP JUMPDEST PUSH2 0x24C7 PUSH1 0x1 DUP3 ADD PUSH1 0x1 DUP8 ADD SWAP1 PUSH2 0x2484 JUMP JUMPDEST PUSH2 0x24E0 PUSH1 0x2 DUP3 ADD PUSH2 0x24DA PUSH1 0x2 DUP9 ADD PUSH2 0x8C5 JUMP JUMPDEST SWAP1 PUSH2 0x1E31 JUMP JUMPDEST PUSH2 0x24F9 PUSH1 0x3 DUP3 ADD PUSH2 0x24F3 PUSH1 0x3 DUP9 ADD PUSH2 0x8C5 JUMP JUMPDEST SWAP1 PUSH2 0x1E31 JUMP JUMPDEST PUSH2 0x250A PUSH1 0x4 DUP3 ADD PUSH1 0x4 DUP8 ADD SWAP1 PUSH2 0x2484 JUMP JUMPDEST PUSH2 0x251B PUSH1 0x5 DUP3 ADD PUSH1 0x5 DUP8 ADD SWAP1 PUSH2 0x2484 JUMP JUMPDEST PUSH2 0x252C PUSH1 0x6 DUP3 ADD PUSH1 0x6 DUP8 ADD SWAP1 PUSH2 0x2484 JUMP JUMPDEST ADD SWAP3 ADD PUSH2 0xB9A JUMP JUMPDEST SWAP1 PUSH2 0x1E76 JUMP JUMPDEST PUSH0 DUP1 PUSH2 0x2499 JUMP JUMPDEST SWAP2 SWAP1 PUSH2 0x2552 JUMPI PUSH2 0x2550 SWAP2 PUSH2 0x2490 JUMP JUMPDEST JUMP JUMPDEST PUSH2 0x1BE2 JUMP JUMPDEST PUSH32 0x4E487B7100000000000000000000000000000000000000000000000000000000 PUSH0 MSTORE PUSH1 0x31 PUSH1 0x4 MSTORE PUSH1 0x24 PUSH0 REVERT JUMPDEST SWAP1 PUSH2 0x2597 SWAP1 PUSH0 NOT SWAP1 PUSH1 0x20 SUB PUSH1 0x8 MUL PUSH2 0x5DC JUMP JUMPDEST DUP2 SLOAD AND SWAP1 SSTORE JUMP JUMPDEST SWAP1 PUSH0 SWAP2 PUSH2 0x25B5 PUSH2 0x25AD DUP3 PUSH2 0x758 JUMP JUMPDEST SWAP3 DUP4 SLOAD PUSH2 0x1D29 JUMP JUMPDEST SWAP1 SSTORE SSTORE JUMP JUMPDEST SWAP2 SWAP3 SWAP1 PUSH1 0x20 DUP3 LT PUSH0 EQ PUSH2 0x2613 JUMPI PUSH1 0x1F DUP5 GT PUSH1 0x1 EQ PUSH2 0x25E3 JUMPI PUSH2 0x25DD SWAP3 SWAP4 POP PUSH2 0x1D29 JUMP JUMPDEST SWAP1 SSTORE JUMPDEST JUMPDEST JUMP JUMPDEST POP SWAP1 PUSH2 0x2609 PUSH2 0x260E SWAP4 PUSH1 0x1 PUSH2 0x2600 PUSH2 0x25FA DUP6 PUSH2 0x758 JUMP JUMPDEST SWAP3 PUSH2 0x1C12 JUMP JUMPDEST DUP3 ADD SWAP2 ADD PUSH2 0x1C9E JUMP JUMPDEST PUSH2 0x259E JUMP JUMPDEST PUSH2 0x25E0 JUMP JUMPDEST POP PUSH2 0x264A DUP3 SWAP4 PUSH2 0x2624 PUSH1 0x1 SWAP5 PUSH2 0x758 JUMP JUMPDEST PUSH2 0x2643 PUSH2 0x2630 DUP6 PUSH2 0x1C12 JUMP JUMPDEST DUP3 ADD SWAP3 PUSH1 0x1F DUP7 AND DUP1 PUSH2 0x2655 JUMPI JUMPDEST POP PUSH2 0x1C12 JUMP JUMPDEST ADD SWAP1 PUSH2 0x1C9E JUMP JUMPDEST PUSH1 0x2 MUL OR SWAP1 SSTORE PUSH2 0x25E1 JUMP JUMPDEST PUSH2 0x2661 SWAP1 DUP9 DUP7 SUB PUSH2 0x2584 JUMP JUMPDEST PUSH0 PUSH2 0x263D JUMP JUMPDEST SWAP3 SWAP1 SWAP2 PUSH9 0x10000000000000000 DUP3 GT PUSH2 0x26C7 JUMPI PUSH1 0x20 GT PUSH0 EQ PUSH2 0x26B8 JUMPI PUSH1 0x20 DUP2 LT PUSH0 EQ PUSH2 0x269C JUMPI PUSH2 0x2696 SWAP2 PUSH2 0x1D29 JUMP JUMPDEST SWAP1 SSTORE JUMPDEST JUMPDEST JUMP JUMPDEST PUSH1 0x1 SWAP2 PUSH1 0xFF NOT AND PUSH2 0x26AC DUP5 PUSH2 0x758 JUMP JUMPDEST SSTORE PUSH1 0x2 MUL ADD SWAP1 SSTORE PUSH2 0x2699 JUMP JUMPDEST PUSH1 0x1 SWAP2 POP PUSH1 0x2 MUL ADD SWAP1 SSTORE PUSH2 0x269A JUMP JUMPDEST PUSH2 0x122 JUMP JUMPDEST SWAP1 DUP2 SLOAD PUSH2 0x26D8 DUP2 PUSH2 0x725 JUMP JUMPDEST SWAP1 DUP2 DUP4 GT PUSH2 0x2701 JUMPI JUMPDEST DUP2 DUP4 LT PUSH2 0x26EF JUMPI JUMPDEST POP POP POP POP JUMP JUMPDEST PUSH2 0x26F8 SWAP4 PUSH2 0x25BA JUMP JUMPDEST PUSH0 DUP1 DUP1 DUP1 PUSH2 0x26E9 JUMP JUMPDEST PUSH2 0x270D DUP4 DUP4 DUP4 DUP8 PUSH2 0x2667 JUMP JUMPDEST PUSH2 0x26E1 JUMP JUMPDEST PUSH2 0x2721 PUSH2 0x2727 SWAP2 SWAP4 SWAP3 SWAP4 PUSH2 0x220 JUMP JUMPDEST SWAP3 PUSH2 0x220 JUMP JUMPDEST SWAP2 PUSH2 0x2733 DUP4 DUP3 MUL PUSH2 0x220 JUMP JUMPDEST SWAP3 DUP2 DUP5 DIV EQ SWAP1 ISZERO OR ISZERO PUSH2 0x2742 JUMPI JUMP JUMPDEST PUSH2 0x2342 JUMP JUMPDEST PUSH0 PUSH2 0x2751 SWAP2 PUSH2 0x26CC JUMP JUMPDEST JUMP JUMPDEST SWAP1 PUSH0 SUB PUSH2 0x2765 JUMPI PUSH2 0x2763 SWAP1 PUSH2 0x2747 JUMP JUMPDEST JUMP JUMPDEST PUSH2 0x1BE2 JUMP JUMPDEST PUSH1 0x7 PUSH0 SWAP2 PUSH2 0x277A DUP4 DUP1 DUP4 ADD PUSH2 0x2753 JUMP JUMPDEST PUSH2 0x2787 DUP4 PUSH1 0x1 DUP4 ADD PUSH2 0x2753 JUMP JUMPDEST PUSH2 0x2794 DUP4 PUSH1 0x2 DUP4 ADD PUSH2 0x1C8A JUMP JUMPDEST PUSH2 0x27A1 DUP4 PUSH1 0x3 DUP4 ADD PUSH2 0x1C8A JUMP JUMPDEST PUSH2 0x27AE DUP4 PUSH1 0x4 DUP4 ADD PUSH2 0x2753 JUMP JUMPDEST PUSH2 0x27BB DUP4 PUSH1 0x5 DUP4 ADD PUSH2 0x2753 JUMP JUMPDEST PUSH2 0x27C8 DUP4 PUSH1 0x6 DUP4 ADD PUSH2 0x2753 JUMP JUMPDEST ADD SSTORE JUMP JUMPDEST SWAP1 PUSH0 SUB PUSH2 0x27DE JUMPI PUSH2 0x27DC SWAP1 PUSH2 0x276A JUMP JUMPDEST JUMP JUMPDEST PUSH2 0x1BE2 JUMP JUMPDEST PUSH2 0x27EC DUP2 PUSH2 0x1A58 JUMP JUMPDEST DUP1 ISZERO PUSH2 0x280D JUMPI PUSH1 0x1 SWAP1 SUB SWAP1 PUSH2 0x280A PUSH2 0x2804 DUP4 DUP4 PUSH2 0x1A9B JUMP JUMPDEST SWAP1 PUSH2 0x27CC JUMP JUMPDEST SSTORE JUMP JUMPDEST PUSH2 0x2557 JUMP JUMPDEST SWAP1 PUSH0 SWAP3 SWAP2 DUP1 SLOAD SWAP1 PUSH2 0x282C PUSH2 0x2825 DUP4 PUSH2 0x725 JUMP JUMPDEST DUP1 SWAP5 PUSH2 0x1FAA JUMP JUMPDEST SWAP2 PUSH1 0x1 DUP2 AND SWAP1 DUP2 PUSH0 EQ PUSH2 0x287E JUMPI POP PUSH1 0x1 EQ PUSH2 0x2847 JUMPI JUMPDEST POP POP POP JUMP JUMPDEST PUSH2 0x2854 SWAP2 SWAP3 SWAP4 SWAP5 POP PUSH2 0x758 JUMP JUMPDEST PUSH0 SWAP1 JUMPDEST DUP4 DUP3 LT PUSH2 0x286A JUMPI POP POP ADD SWAP1 PUSH0 DUP1 DUP1 PUSH2 0x2842 JUMP JUMPDEST PUSH1 0x1 DUP2 PUSH1 0x20 SWAP3 SLOAD DUP5 DUP7 ADD MSTORE ADD SWAP2 ADD SWAP1 PUSH2 0x2857 JUMP JUMPDEST SWAP3 SWAP5 SWAP6 POP POP POP PUSH1 0xFF NOT AND DUP3 MSTORE DUP1 ISZERO ISZERO MUL ADD SWAP1 PUSH0 DUP1 DUP1 PUSH2 0x2842 JUMP JUMPDEST PUSH2 0x28A1 SWAP2 PUSH2 0x2812 JUMP JUMPDEST SWAP1 JUMP JUMPDEST PUSH2 0x28B9 SWAP1 PUSH2 0x28B0 PUSH2 0x102 JUMP JUMPDEST SWAP2 DUP3 SWAP2 DUP3 PUSH2 0x2898 JUMP JUMPDEST SUB SWAP1 KECCAK256 SWAP1 JUMP JUMPDEST PUSH0 PUSH32 0x616C726561647920636F6D706C65746564000000000000000000000000000000 SWAP2 ADD MSTORE JUMP JUMPDEST PUSH2 0x28F3 PUSH1 0x11 PUSH1 0x20 SWAP3 PUSH2 0x18F8 JUMP JUMPDEST PUSH2 0x28FC DUP2 PUSH2 0x28BF JUMP JUMPDEST ADD SWAP1 JUMP JUMPDEST PUSH2 0x2915 SWAP1 PUSH1 0x20 DUP2 ADD SWAP1 PUSH0 DUP2 DUP4 SUB SWAP2 ADD MSTORE PUSH2 0x28E6 JUMP JUMPDEST SWAP1 JUMP JUMPDEST ISZERO PUSH2 0x291F JUMPI JUMP JUMPDEST PUSH2 0x2927 PUSH2 0x102 JUMP JUMPDEST PUSH32 0x8C379A000000000000000000000000000000000000000000000000000000000 DUP2 MSTORE DUP1 PUSH2 0x2957 PUSH1 0x4 DUP3 ADD PUSH2 0x2900 JUMP JUMPDEST SUB SWAP1 REVERT JUMPDEST PUSH2 0x2974 PUSH1 0x3 PUSH0 PUSH2 0x296D PUSH1 0x2 DUP6 SWAP1 PUSH2 0x6E2 JUMP JUMPDEST ADD ADD PUSH2 0x1A46 JUMP JUMPDEST SWAP1 PUSH2 0x2999 PUSH2 0x2981 DUP4 PUSH2 0x1A58 JUMP JUMPDEST PUSH2 0x2993 PUSH2 0x298D PUSH0 PUSH2 0x18DC JUMP JUMPDEST SWAP2 PUSH2 0x220 JUMP JUMPDEST GT PUSH2 0x22E0 JUMP JUMPDEST PUSH2 0x29A2 PUSH0 PUSH2 0x18DC JUMP JUMPDEST JUMPDEST DUP1 PUSH2 0x29BE PUSH2 0x29B8 PUSH2 0x29B3 DUP7 PUSH2 0x1A58 JUMP JUMPDEST PUSH2 0x220 JUMP JUMPDEST SWAP2 PUSH2 0x220 JUMP JUMPDEST LT ISZERO PUSH2 0x2B98 JUMPI PUSH2 0x29E3 PUSH2 0x29DE PUSH1 0x1 PUSH2 0x29D7 DUP7 DUP6 SWAP1 PUSH2 0x1A9B JUMP JUMPDEST POP ADD PUSH2 0x1AC3 JUMP JUMPDEST PUSH2 0x1B8A JUMP JUMPDEST PUSH2 0x29F5 PUSH2 0x29EF DUP3 PUSH2 0x1B9C JUMP JUMPDEST SWAP2 PUSH2 0x1B96 JUMP JUMPDEST KECCAK256 PUSH2 0x2A23 PUSH2 0x2A1D PUSH2 0x2A05 DUP8 PUSH2 0x1BA0 JUMP JUMPDEST PUSH2 0x2A17 PUSH2 0x2A11 DUP3 PUSH2 0x1B9C JUMP JUMPDEST SWAP2 PUSH2 0x1B96 JUMP JUMPDEST KECCAK256 PUSH2 0x1BA3 JUMP JUMPDEST SWAP2 PUSH2 0x1BA3 JUMP JUMPDEST EQ PUSH2 0x2A36 JUMPI PUSH2 0x2A31 SWAP1 PUSH2 0x1A49 JUMP JUMPDEST PUSH2 0x29A3 JUMP JUMPDEST SWAP4 SWAP2 PUSH0 SWAP3 SWAP2 DUP4 SWAP3 PUSH2 0x2AEB JUMPI PUSH2 0x2A9C DUP3 PUSH2 0x2A70 PUSH2 0x2A6B PUSH2 0x2A65 PUSH1 0x7 PUSH2 0x2A5E PUSH2 0x2AA3 SWAP9 DUP14 SWAP1 PUSH2 0x1A9B JUMP JUMPDEST POP ADD PUSH2 0xB9A JUMP JUMPDEST ISZERO PUSH2 0x246 JUMP JUMPDEST PUSH2 0x2918 JUMP JUMPDEST PUSH1 0x7 PUSH2 0x2A95 PUSH2 0x2A8C PUSH1 0x3 PUSH2 0x2A85 DUP6 DUP14 SWAP1 PUSH2 0x1A9B JUMP JUMPDEST POP ADD PUSH2 0x8C5 JUMP JUMPDEST SWAP10 PUSH1 0x1 SWAP4 PUSH2 0x1A9B JUMP JUMPDEST POP ADD PUSH2 0x1E76 JUMP JUMPDEST PUSH1 0x2 PUSH2 0x6E2 JUMP JUMPDEST ADD ADD SWAP1 SWAP2 PUSH2 0x2AD1 PUSH32 0xAEB5EFF15BA550FB48D68CE3A5D6793A723C0452E39484838A85522D519AEF9 SWAP3 PUSH2 0x28A4 JUMP JUMPDEST SWAP3 PUSH2 0x2AE6 PUSH2 0x2ADD PUSH2 0x102 JUMP JUMPDEST SWAP3 DUP4 SWAP3 DUP4 PUSH2 0x2030 JUMP JUMPDEST SUB SWAP1 LOG2 JUMP JUMPDEST PUSH2 0x2B49 DUP3 PUSH2 0x2B44 PUSH2 0x2B0C PUSH1 0x2 PUSH2 0x2B05 PUSH2 0x2B50 SWAP8 DUP13 SWAP1 PUSH2 0x1A9B JUMP JUMPDEST POP ADD PUSH2 0x8C5 JUMP JUMPDEST SWAP9 PUSH2 0x2B3E PUSH2 0x2B36 DUP5 PUSH2 0x2B30 PUSH2 0x2B20 DUP8 PUSH2 0x1A58 JUMP JUMPDEST PUSH2 0x2B2A PUSH1 0x1 PUSH2 0x2326 JUMP JUMPDEST SWAP1 PUSH2 0x236F JUMP JUMPDEST SWAP1 PUSH2 0x1A9B JUMP JUMPDEST POP SWAP2 DUP5 PUSH2 0x1A9B JUMP JUMPDEST SWAP1 PUSH2 0x2541 JUMP JUMPDEST PUSH2 0x27E3 JUMP JUMPDEST PUSH1 0x2 PUSH2 0x6E2 JUMP JUMPDEST ADD ADD SWAP1 SWAP2 PUSH2 0x2B7E PUSH32 0x48EE7A6EE9C61106257852A19D18931AA63A7BA0A58F77FB497E5567832B8757 SWAP3 PUSH2 0x28A4 JUMP JUMPDEST SWAP3 PUSH2 0x2B93 PUSH2 0x2B8A PUSH2 0x102 JUMP JUMPDEST SWAP3 DUP4 SWAP3 DUP4 PUSH2 0x2030 JUMP JUMPDEST SUB SWAP1 LOG2 JUMP JUMPDEST POP POP POP POP POP JUMP JUMPDEST PUSH0 PUSH32 0x6E6F7420656E6F756768206D6F6E657900000000000000000000000000000000 SWAP2 ADD MSTORE JUMP JUMPDEST PUSH2 0x2BD3 PUSH1 0x10 PUSH1 0x20 SWAP3 PUSH2 0x18F8 JUMP JUMPDEST PUSH2 0x2BDC DUP2 PUSH2 0x2B9F JUMP JUMPDEST ADD SWAP1 JUMP JUMPDEST PUSH2 0x2BF5 SWAP1 PUSH1 0x20 DUP2 ADD SWAP1 PUSH0 DUP2 DUP4 SUB SWAP2 ADD MSTORE PUSH2 0x2BC6 JUMP JUMPDEST SWAP1 JUMP JUMPDEST ISZERO PUSH2 0x2BFF JUMPI JUMP JUMPDEST PUSH2 0x2C07 PUSH2 0x102 JUMP JUMPDEST PUSH32 0x8C379A000000000000000000000000000000000000000000000000000000000 DUP2 MSTORE DUP1 PUSH2 0x2C37 PUSH1 0x4 DUP3 ADD PUSH2 0x2BE0 JUMP JUMPDEST SUB SWAP1 REVERT JUMPDEST PUSH2 0x2C44 SWAP1 PUSH2 0x6AE JUMP JUMPDEST SWAP1 JUMP JUMPDEST PUSH2 0x2C50 SWAP1 PUSH2 0x2C3B JUMP JUMPDEST SWAP1 JUMP JUMPDEST PUSH2 0x2C5C SWAP1 PUSH2 0x6CA JUMP JUMPDEST SWAP1 JUMP JUMPDEST SWAP1 POP SWAP1 JUMP JUMPDEST PUSH2 0x2C6F PUSH0 DUP1 SWAP3 PUSH2 0x2C5F JUMP JUMPDEST ADD SWAP1 JUMP JUMPDEST PUSH2 0x2C7C SWAP1 PUSH2 0x2C64 JUMP JUMPDEST SWAP1 JUMP JUMPDEST PUSH8 0xFFFFFFFFFFFFFFFF DUP2 GT PUSH2 0x2C9D JUMPI PUSH2 0x2C99 PUSH1 0x20 SWAP2 PUSH2 0x118 JUMP JUMPDEST ADD SWAP1 JUMP JUMPDEST PUSH2 0x122 JUMP JUMPDEST SWAP1 PUSH2 0x2CB4 PUSH2 0x2CAF DUP4 PUSH2 0x2C7F JUMP JUMPDEST PUSH2 0x178 JUMP JUMPDEST SWAP2 DUP3 MSTORE JUMP JUMPDEST PUSH1 0x60 SWAP1 JUMP JUMPDEST RETURNDATASIZE PUSH0 EQ PUSH2 0x2CD9 JUMPI PUSH2 0x2CCE RETURNDATASIZE PUSH2 0x2CA2 JUMP JUMPDEST SWAP1 RETURNDATASIZE PUSH0 PUSH1 0x20 DUP5 ADD RETURNDATACOPY JUMPDEST JUMP JUMPDEST PUSH2 0x2CE1 PUSH2 0x2CB9 JUMP JUMPDEST SWAP1 PUSH2 0x2CD7 JUMP JUMPDEST PUSH32 0x4E487B7100000000000000000000000000000000000000000000000000000000 PUSH0 MSTORE PUSH1 0x1 PUSH1 0x4 MSTORE PUSH1 0x24 PUSH0 REVERT JUMPDEST ISZERO PUSH2 0x2D1B JUMPI JUMP JUMPDEST PUSH2 0x2CE7 JUMP JUMPDEST PUSH2 0x2D2A PUSH1 0xC0 PUSH2 0x178 JUMP JUMPDEST SWAP1 JUMP JUMPDEST SWAP1 PUSH2 0x2D3F PUSH2 0x2D3A DUP4 PUSH2 0x199 JUMP JUMPDEST PUSH2 0x178 JUMP JUMPDEST SWAP2 DUP3 MSTORE JUMP JUMPDEST PUSH2 0x2D4D PUSH0 PUSH2 0x2D2D JUMP JUMPDEST SWAP1 JUMP JUMPDEST PUSH2 0x2D58 PUSH2 0x2D44 JUMP JUMPDEST SWAP1 JUMP JUMPDEST PUSH2 0x2D65 PUSH1 0x40 PUSH2 0x178 JUMP JUMPDEST SWAP1 JUMP JUMPDEST PUSH2 0x2D72 PUSH1 0xA0 PUSH2 0x178 JUMP JUMPDEST SWAP1 JUMP JUMPDEST PUSH2 0x2D7F SWAP1 MLOAD PUSH2 0x991 JUMP JUMPDEST SWAP1 JUMP JUMPDEST PUSH2 0x2D8B SWAP1 PUSH2 0x991 JUMP JUMPDEST SWAP1 JUMP JUMPDEST SWAP1 PUSH2 0x2DF4 SWAP1 PUSH1 0x80 DUP1 PUSH2 0x2DD7 PUSH2 0x2DC5 PUSH2 0x2DB3 PUSH1 0xA0 DUP7 ADD PUSH0 DUP10 ADD MLOAD DUP8 DUP3 SUB PUSH0 DUP10 ADD MSTORE PUSH2 0xE63 JUMP JUMPDEST PUSH1 0x20 DUP9 ADD MLOAD DUP7 DUP3 SUB PUSH1 0x20 DUP9 ADD MSTORE PUSH2 0xEA7 JUMP JUMPDEST PUSH1 0x40 DUP8 ADD MLOAD DUP6 DUP3 SUB PUSH1 0x40 DUP8 ADD MSTORE PUSH2 0xF0B JUMP JUMPDEST SWAP5 PUSH2 0x2DEA PUSH1 0x60 DUP3 ADD MLOAD PUSH1 0x60 DUP7 ADD SWAP1 PUSH2 0xED8 JUMP JUMPDEST ADD MLOAD SWAP2 ADD SWAP1 PUSH2 0xED8 JUMP JUMPDEST SWAP1 JUMP JUMPDEST PUSH2 0x2E0C SWAP2 PUSH1 0x20 DUP3 ADD SWAP2 PUSH0 DUP2 DUP5 SUB SWAP2 ADD MSTORE PUSH2 0x2D8E JUMP JUMPDEST SWAP1 JUMP JUMPDEST PUSH2 0x2FA3 PUSH2 0x2FAC SWAP3 SWAP4 PUSH2 0x2F2A PUSH0 SWAP4 PUSH2 0x2E4F PUSH2 0x2E36 PUSH1 0x6 PUSH2 0x2E30 PUSH1 0x2 CALLER SWAP1 PUSH2 0x6E2 JUMP JUMPDEST ADD PUSH2 0x8C5 JUMP JUMPDEST PUSH2 0x2E48 PUSH2 0x2E42 DUP7 PUSH2 0x220 JUMP JUMPDEST SWAP2 PUSH2 0x220 JUMP JUMPDEST LT ISZERO PUSH2 0x2BF8 JUMP JUMPDEST PUSH2 0x2E7A DUP4 PUSH2 0x2E74 PUSH1 0x6 PUSH2 0x2E64 PUSH1 0x2 CALLER SWAP1 PUSH2 0x6E2 JUMP JUMPDEST ADD SWAP2 PUSH2 0x2E6F DUP4 PUSH2 0x8C5 JUMP JUMPDEST PUSH2 0x236F JUMP JUMPDEST SWAP1 PUSH2 0x1E31 JUMP JUMPDEST PUSH2 0x2EB6 DUP6 DUP1 PUSH2 0x2E90 PUSH2 0x2E8B CALLER PUSH2 0x2C47 JUMP JUMPDEST PUSH2 0x2C53 JUMP JUMPDEST DUP7 PUSH2 0x2E99 PUSH2 0x102 JUMP JUMPDEST SWAP1 DUP2 PUSH2 0x2EA4 DUP2 PUSH2 0x2C73 JUMP JUMPDEST SUB SWAP3 GAS CALL PUSH2 0x2EB0 PUSH2 0x2CBE JUMP JUMPDEST POP PUSH2 0x2D14 JUMP JUMPDEST SWAP6 PUSH2 0x2F21 TIMESTAMP SWAP2 PUSH2 0x2F04 PUSH2 0x2EFB DUP9 DUP1 PUSH2 0x2ED0 PUSH1 0x2 CALLER SWAP1 PUSH2 0x6E2 JUMP JUMPDEST ADD ADD PUSH2 0x2EF6 CALLER SWAP5 PUSH2 0x2EED PUSH1 0x1 SWAP9 PUSH2 0x2EE5 PUSH2 0x2D20 JUMP JUMPDEST SWAP14 DUP15 ADD PUSH2 0x8D2 JUMP JUMPDEST PUSH1 0x20 DUP13 ADD PUSH2 0x81C JUMP JUMPDEST PUSH2 0xD2B JUMP JUMPDEST PUSH1 0x40 DUP10 ADD PUSH2 0x81C JUMP JUMPDEST PUSH2 0x2F18 PUSH2 0x2F0F PUSH2 0x2D50 JUMP JUMPDEST PUSH1 0x60 DUP10 ADD PUSH2 0x81C JUMP JUMPDEST PUSH1 0x80 DUP8 ADD PUSH2 0x91A JUMP JUMPDEST PUSH1 0xA0 DUP6 ADD PUSH2 0x99D JUMP JUMPDEST PUSH2 0x2F9A PUSH1 0x1 PUSH0 PUSH2 0x2F3C PUSH1 0x2 CALLER SWAP1 PUSH2 0x6E2 JUMP JUMPDEST ADD ADD SWAP4 PUSH2 0x2F5B PUSH2 0x2F53 PUSH2 0x2F4D PUSH2 0x2D5B JUMP JUMPDEST SWAP7 PUSH2 0xD2B JUMP JUMPDEST PUSH0 DUP8 ADD PUSH2 0x81C JUMP JUMPDEST PUSH2 0x2F6F PUSH2 0x2F66 PUSH2 0x2D50 JUMP JUMPDEST PUSH1 0x20 DUP8 ADD PUSH2 0x81C JUMP JUMPDEST PUSH2 0x2F91 DUP4 SWAP6 PUSH2 0x2F88 PUSH2 0x2F7F PUSH2 0x2D68 JUMP JUMPDEST SWAP10 PUSH0 DUP12 ADD PUSH2 0x81C JUMP JUMPDEST PUSH1 0x20 DUP10 ADD PUSH2 0x8A6 JUMP JUMPDEST PUSH1 0x40 DUP8 ADD PUSH2 0xA50 JUMP JUMPDEST PUSH1 0x60 DUP6 ADD PUSH2 0x8D2 JUMP JUMPDEST PUSH1 0x80 DUP4 ADD PUSH2 0x8D2 JUMP JUMPDEST PUSH0 DUP1 PUSH2 0x2FBA PUSH1 0x2 CALLER SWAP1 PUSH2 0x6E2 JUMP JUMPDEST ADD ADD PUSH2 0x2FCC PUSH1 0xA0 PUSH1 0x40 DUP5 ADD MLOAD ADD PUSH2 0x2D75 JUMP JUMPDEST SWAP1 PUSH2 0x3015 PUSH2 0x3003 PUSH2 0x2FFD PUSH32 0xC251291991957F26D7775677114F287EF7A70D464267D3BD4297334AFC95E7E7 SWAP4 PUSH2 0x28A4 JUMP JUMPDEST SWAP4 PUSH2 0x2D82 JUMP JUMPDEST SWAP4 PUSH2 0x300C PUSH2 0x102 JUMP JUMPDEST SWAP2 DUP3 SWAP2 DUP3 PUSH2 0x2DF7 JUMP JUMPDEST SUB SWAP1 LOG3 JUMP JUMPDEST PUSH0 SWAP1 JUMP JUMPDEST PUSH1 0x5 PUSH0 PUSH2 0x3038 PUSH2 0x303F SWAP4 PUSH2 0x3030 PUSH2 0x301A JUMP JUMPDEST POP PUSH1 0x2 PUSH2 0x6E2 JUMP JUMPDEST ADD ADD PUSH2 0xB9A JUMP JUMPDEST SWAP1 JUMP JUMPDEST PUSH0 PUSH32 0x6E616D652063616E277420626520656D70747900000000000000000000000000 SWAP2 ADD MSTORE JUMP JUMPDEST PUSH2 0x3076 PUSH1 0x13 PUSH1 0x20 SWAP3 PUSH2 0x18F8 JUMP JUMPDEST PUSH2 0x307F DUP2 PUSH2 0x3042 JUMP JUMPDEST ADD SWAP1 JUMP JUMPDEST PUSH2 0x3098 SWAP1 PUSH1 0x20 DUP2 ADD SWAP1 PUSH0 DUP2 DUP4 SUB SWAP2 ADD MSTORE PUSH2 0x3069 JUMP JUMPDEST SWAP1 JUMP JUMPDEST ISZERO PUSH2 0x30A2 JUMPI JUMP JUMPDEST PUSH2 0x30AA PUSH2 0x102 JUMP JUMPDEST PUSH32 0x8C379A000000000000000000000000000000000000000000000000000000000 DUP2 MSTORE DUP1 PUSH2 0x30DA PUSH1 0x4 DUP3 ADD PUSH2 0x3083 JUMP JUMPDEST SUB SWAP1 REVERT JUMPDEST PUSH1 0x60 SWAP1 JUMP JUMPDEST PUSH1 0x60 SWAP1 JUMP JUMPDEST PUSH2 0x30F2 PUSH1 0xC0 PUSH2 0x178 JUMP JUMPDEST SWAP1 JUMP JUMPDEST PUSH2 0x30FF PUSH1 0x40 PUSH2 0x178 JUMP JUMPDEST SWAP1 JUMP JUMPDEST MSTORE JUMP JUMPDEST MLOAD SWAP1 JUMP JUMPDEST MLOAD SWAP1 JUMP JUMPDEST PUSH2 0x3118 SWAP1 PUSH1 0xA PUSH2 0x2712 JUMP JUMPDEST SWAP1 JUMP JUMPDEST PUSH0 PUSH1 0x1 PUSH2 0x3134 SWAP3 PUSH2 0x312E DUP4 DUP1 DUP4 ADD PUSH2 0x2753 JUMP JUMPDEST ADD PUSH2 0x2753 JUMP JUMPDEST JUMP JUMPDEST SWAP1 PUSH0 SUB PUSH2 0x3148 JUMPI PUSH2 0x3146 SWAP1 PUSH2 0x311B JUMP JUMPDEST JUMP JUMPDEST PUSH2 0x1BE2 JUMP JUMPDEST PUSH1 0x4 PUSH0 SWAP2 PUSH2 0x315D DUP4 DUP1 DUP4 ADD PUSH2 0x1C8A JUMP JUMPDEST PUSH2 0x316A DUP4 PUSH1 0x1 DUP4 ADD PUSH2 0x2753 JUMP JUMPDEST PUSH2 0x3177 DUP4 PUSH1 0x2 DUP4 ADD PUSH2 0x2753 JUMP JUMPDEST PUSH2 0x3184 DUP4 PUSH1 0x3 DUP4 ADD PUSH2 0x2753 JUMP JUMPDEST ADD SSTORE JUMP JUMPDEST SWAP1 PUSH0 SUB PUSH2 0x319A JUMPI PUSH2 0x3198 SWAP1 PUSH2 0x314D JUMP JUMPDEST JUMP JUMPDEST PUSH2 0x1BE2 JUMP JUMPDEST PUSH0 PUSH1 0x9 PUSH2 0x31DF SWAP3 PUSH2 0x31B2 DUP4 DUP1 DUP4 ADD PUSH2 0x2753 JUMP JUMPDEST PUSH2 0x31BF DUP4 PUSH1 0x1 DUP4 ADD PUSH2 0x3136 JUMP JUMPDEST PUSH2 0x31CC DUP4 PUSH1 0x3 DUP4 ADD PUSH2 0x3188 JUMP JUMPDEST PUSH2 0x31D9 DUP4 PUSH1 0x8 DUP4 ADD PUSH2 0x1C8A JUMP JUMPDEST ADD PUSH2 0x1C8A JUMP JUMPDEST JUMP JUMPDEST SWAP1 PUSH0 SUB PUSH2 0x31F3 JUMPI PUSH2 0x31F1 SWAP1 PUSH2 0x319F JUMP JUMPDEST JUMP JUMPDEST PUSH2 0x1BE2 JUMP JUMPDEST JUMPDEST DUP2 DUP2 LT PUSH2 0x3204 JUMPI POP POP JUMP JUMPDEST DUP1 PUSH2 0x3211 PUSH0 PUSH1 0xA SWAP4 PUSH2 0x31E1 JUMP JUMPDEST ADD PUSH2 0x31F9 JUMP JUMPDEST SWAP1 SWAP2 DUP3 DUP2 LT PUSH2 0x3226 JUMPI JUMPDEST POP POP POP JUMP JUMPDEST PUSH2 0x3244 PUSH2 0x323E PUSH2 0x3238 PUSH2 0x324F SWAP6 PUSH2 0x310D JUMP JUMPDEST SWAP3 PUSH2 0x310D JUMP JUMPDEST SWAP3 PUSH2 0x857 JUMP JUMPDEST SWAP2 DUP3 ADD SWAP2 ADD SWAP1 PUSH2 0x31F8 JUMP JUMPDEST PUSH0 DUP1 DUP1 PUSH2 0x3221 JUMP JUMPDEST SWAP1 PUSH9 0x10000000000000000 DUP2 GT PUSH2 0x3280 JUMPI DUP2 PUSH2 0x3275 PUSH2 0x327E SWAP4 PUSH2 0x81F JUMP JUMPDEST SWAP1 DUP3 DUP2 SSTORE PUSH2 0x3217 JUMP JUMPDEST JUMP JUMPDEST PUSH2 0x122 JUMP JUMPDEST MLOAD SWAP1 JUMP JUMPDEST MLOAD SWAP1 JUMP JUMPDEST SWAP1 PUSH2 0x32B8 PUSH1 0x20 PUSH1 0x1 PUSH2 0x32BE SWAP5 PUSH2 0x32B0 PUSH0 DUP3 ADD PUSH2 0x32AA PUSH0 DUP9 ADD PUSH2 0x1C0E JUMP JUMPDEST SWAP1 PUSH2 0x1E0A JUMP JUMPDEST ADD SWAP3 ADD PUSH2 0x1C0E JUMP JUMPDEST SWAP1 PUSH2 0x1E0A JUMP JUMPDEST JUMP JUMPDEST SWAP1 PUSH2 0x32CA SWAP2 PUSH2 0x328D JUMP JUMPDEST JUMP JUMPDEST MLOAD SWAP1 JUMP JUMPDEST PUSH2 0x32DA SWAP1 MLOAD PUSH2 0x526 JUMP JUMPDEST SWAP1 JUMP JUMPDEST SWAP1 PUSH2 0x32FC PUSH20 0xFFFFFFFFFFFFFFFFFFFFFFFFFFFFFFFFFFFFFFFF SWAP2 PUSH2 0x1E16 JUMP JUMPDEST SWAP2 DUP2 NOT AND SWAP2 AND OR SWAP1 JUMP JUMPDEST SWAP1 JUMP JUMPDEST SWAP1 PUSH2 0x331E PUSH2 0x3319 PUSH2 0x3325 SWAP3 PUSH2 0x6D6 JUMP JUMPDEST PUSH2 0x3306 JUMP JUMPDEST DUP3 SLOAD PUSH2 0x32DD JUMP JUMPDEST SWAP1 SSTORE JUMP JUMPDEST PUSH1 0xA0 SHL SWAP1 JUMP JUMPDEST SWAP1 PUSH2 0x334F PUSH21 0xFF0000000000000000000000000000000000000000 SWAP2 PUSH2 0x3329 JUMP JUMPDEST SWAP2 DUP2 NOT AND SWAP2 AND OR SWAP1 JUMP JUMPDEST SWAP1 JUMP JUMPDEST SWAP1 PUSH2 0x3371 PUSH2 0x336C PUSH2 0x3378 SWAP3 PUSH2 0x2D82 JUMP JUMPDEST PUSH2 0x3359 JUMP JUMPDEST DUP3 SLOAD PUSH2 0x332F JUMP JUMPDEST SWAP1 SSTORE JUMP JUMPDEST SWAP1 PUSH2 0x340A PUSH1 0xA0 PUSH1 0x4 PUSH2 0x3410 SWAP5 PUSH2 0x339F PUSH0 DUP3 ADD PUSH2 0x3399 PUSH0 DUP9 ADD PUSH2 0x18CC JUMP JUMPDEST SWAP1 PUSH2 0x1E31 JUMP JUMPDEST PUSH2 0x33B8 PUSH1 0x1 DUP3 ADD PUSH2 0x33B2 PUSH1 0x20 DUP9 ADD PUSH2 0x1C0E JUMP JUMPDEST SWAP1 PUSH2 0x1E0A JUMP JUMPDEST PUSH2 0x33D1 PUSH1 0x2 DUP3 ADD PUSH2 0x33CB PUSH1 0x40 DUP9 ADD PUSH2 0x1C0E JUMP JUMPDEST SWAP1 PUSH2 0x1E0A JUMP JUMPDEST PUSH2 0x33EA PUSH1 0x3 DUP3 ADD PUSH2 0x33E4 PUSH1 0x60 DUP9 ADD PUSH2 0x1C0E JUMP JUMPDEST SWAP1 PUSH2 0x1E0A JUMP JUMPDEST PUSH2 0x3402 DUP3 DUP3 ADD PUSH2 0x33FC PUSH1 0x80 DUP9 ADD PUSH2 0x32D0 JUMP JUMPDEST SWAP1 PUSH2 0x3309 JUMP JUMPDEST ADD SWAP3 ADD PUSH2 0x2D75 JUMP JUMPDEST SWAP1 PUSH2 0x335C JUMP JUMPDEST JUMP JUMPDEST SWAP1 PUSH2 0x341C SWAP2 PUSH2 0x337C JUMP JUMPDEST JUMP JUMPDEST SWAP1 PUSH2 0x3494 PUSH1 0x80 PUSH1 0x9 PUSH2 0x349A SWAP5 PUSH2 0x3441 PUSH0 DUP3 ADD PUSH2 0x343B PUSH0 DUP9 ADD PUSH2 0x1C0E JUMP JUMPDEST SWAP1 PUSH2 0x1E0A JUMP JUMPDEST PUSH2 0x345A PUSH1 0x1 DUP3 ADD PUSH2 0x3454 PUSH1 0x20 DUP9 ADD PUSH2 0x3289 JUMP JUMPDEST SWAP1 PUSH2 0x32C0 JUMP JUMPDEST PUSH2 0x3473 PUSH1 0x3 DUP3 ADD PUSH2 0x346D PUSH1 0x40 DUP9 ADD PUSH2 0x32CC JUMP JUMPDEST SWAP1 PUSH2 0x3412 JUMP JUMPDEST PUSH2 0x348C PUSH1 0x8 DUP3 ADD PUSH2 0x3486 PUSH1 0x60 DUP9 ADD PUSH2 0x18CC JUMP JUMPDEST SWAP1 PUSH2 0x1E31 JUMP JUMPDEST ADD SWAP3 ADD PUSH2 0x18CC JUMP JUMPDEST SWAP1 PUSH2 0x1E31 JUMP JUMPDEST JUMP JUMPDEST SWAP1 PUSH2 0x34A6 SWAP2 PUSH2 0x341E JUMP JUMPDEST JUMP JUMPDEST PUSH2 0x34CD PUSH2 0x34C7 PUSH2 0x34B7 DUP5 PUSH2 0xE94 JUMP JUMPDEST SWAP4 PUSH2 0x34C2 DUP6 DUP6 PUSH2 0x3257 JUMP JUMPDEST PUSH2 0xEA1 JUMP JUMPDEST SWAP2 PUSH2 0x857 JUMP JUMPDEST PUSH0 SWAP2 JUMPDEST DUP4 DUP4 LT PUSH2 0x34DD JUMPI POP POP POP POP JUMP JUMPDEST PUSH1 0xA PUSH1 0x20 DUP3 PUSH2 0x34F6 PUSH2 0x34F0 PUSH1 0x1 SWAP6 PUSH2 0x3285 JUMP JUMPDEST DUP7 PUSH2 0x349C JUMP JUMPDEST ADD SWAP3 ADD SWAP3 ADD SWAP2 SWAP1 PUSH2 0x34D0 JUMP JUMPDEST SWAP1 PUSH2 0x350C SWAP2 PUSH2 0x34A8 JUMP JUMPDEST JUMP JUMPDEST MLOAD SWAP1 JUMP JUMPDEST PUSH2 0x351D SWAP1 PUSH1 0x8 PUSH2 0x2712 JUMP JUMPDEST SWAP1 JUMP JUMPDEST JUMPDEST DUP2 DUP2 LT PUSH2 0x352C JUMPI POP POP JUMP JUMPDEST DUP1 PUSH2 0x3539 PUSH0 PUSH1 0x8 SWAP4 PUSH2 0x27CC JUMP JUMPDEST ADD PUSH2 0x3521 JUMP JUMPDEST SWAP1 SWAP2 DUP3 DUP2 LT PUSH2 0x354E JUMPI JUMPDEST POP POP POP JUMP JUMPDEST PUSH2 0x356C PUSH2 0x3566 PUSH2 0x3560 PUSH2 0x3577 SWAP6 PUSH2 0x3512 JUMP JUMPDEST SWAP3 PUSH2 0x3512 JUMP JUMPDEST SWAP3 PUSH2 0xB77 JUMP JUMPDEST SWAP2 DUP3 ADD SWAP2 ADD SWAP1 PUSH2 0x3520 JUMP JUMPDEST PUSH0 DUP1 DUP1 PUSH2 0x3549 JUMP JUMPDEST SWAP1 PUSH9 0x10000000000000000 DUP2 GT PUSH2 0x35A8 JUMPI DUP2 PUSH2 0x359D PUSH2 0x35A6 SWAP4 PUSH2 0xB3F JUMP JUMPDEST SWAP1 DUP3 DUP2 SSTORE PUSH2 0x353F JUMP JUMPDEST JUMP JUMPDEST PUSH2 0x122 JUMP JUMPDEST MLOAD SWAP1 JUMP JUMPDEST SWAP1 PUSH2 0x35BB SWAP2 PUSH2 0x1E96 JUMP JUMPDEST JUMP JUMPDEST PUSH2 0x35E2 PUSH2 0x35DC PUSH2 0x35CC DUP5 PUSH2 0x1069 JUMP JUMPDEST SWAP4 PUSH2 0x35D7 DUP6 DUP6 PUSH2 0x357F JUMP JUMPDEST PUSH2 0x1076 JUMP JUMPDEST SWAP2 PUSH2 0xB77 JUMP JUMPDEST PUSH0 SWAP2 JUMPDEST DUP4 DUP4 LT PUSH2 0x35F2 JUMPI POP POP POP POP JUMP JUMPDEST PUSH1 0x8 PUSH1 0x20 DUP3 PUSH2 0x360B PUSH2 0x3605 PUSH1 0x1 SWAP6 PUSH2 0x35AD JUMP JUMPDEST DUP7 PUSH2 0x35B1 JUMP JUMPDEST ADD SWAP3 ADD SWAP3 ADD SWAP2 SWAP1 PUSH2 0x35E5 JUMP JUMPDEST SWAP1 PUSH2 0x3621 SWAP2 PUSH2 0x35BD JUMP JUMPDEST JUMP JUMPDEST MLOAD SWAP1 JUMP JUMPDEST PUSH1 0x1 SWAP1 DUP2 DUP1 SUB ADD DIV SWAP1 JUMP JUMPDEST JUMPDEST DUP2 DUP2 LT PUSH2 0x363E JUMPI POP POP JUMP JUMPDEST DUP1 PUSH2 0x364B PUSH0 PUSH1 0x1 SWAP4 PUSH2 0x2753 JUMP JUMPDEST ADD PUSH2 0x3633 JUMP JUMPDEST SWAP1 SWAP2 DUP3 DUP2 LT PUSH2 0x3660 JUMPI JUMPDEST POP POP POP JUMP JUMPDEST PUSH2 0x367E PUSH2 0x3678 PUSH2 0x3672 PUSH2 0x3689 SWAP6 PUSH2 0x3627 JUMP JUMPDEST SWAP3 PUSH2 0x3627 JUMP JUMPDEST SWAP3 PUSH2 0xD22 JUMP JUMPDEST SWAP2 DUP3 ADD SWAP2 ADD SWAP1 PUSH2 0x3632 JUMP JUMPDEST PUSH0 DUP1 DUP1 PUSH2 0x365B JUMP JUMPDEST SWAP1 PUSH9 0x10000000000000000 DUP2 GT PUSH2 0x36BA JUMPI DUP2 PUSH2 0x36AF PUSH2 0x36B8 SWAP4 PUSH2 0xCEA JUMP JUMPDEST SWAP1 DUP3 DUP2 SSTORE PUSH2 0x3651 JUMP JUMPDEST JUMP JUMPDEST PUSH2 0x122 JUMP JUMPDEST PUSH2 0x36E4 PUSH2 0x36DE PUSH2 0x36CE DUP5 PUSH2 0x11A9 JUMP JUMPDEST SWAP4 PUSH2 0x36D9 DUP6 DUP6 PUSH2 0x3691 JUMP JUMPDEST PUSH2 0x11B6 JUMP JUMPDEST SWAP2 PUSH2 0xD22 JUMP JUMPDEST PUSH0 SWAP2 JUMPDEST DUP4 DUP4 LT PUSH2 0x36F4 JUMPI POP POP POP POP JUMP JUMPDEST PUSH1 0x1 PUSH1 0x20 DUP3 PUSH2 0x370C PUSH2 0x3706 DUP5 SWAP6 PUSH2 0x1C0E JUMP JUMPDEST DUP7 PUSH2 0x1E0A JUMP JUMPDEST ADD SWAP3 ADD SWAP3 ADD SWAP2 SWAP1 PUSH2 0x36E7 JUMP JUMPDEST SWAP1 PUSH2 0x3722 SWAP2 PUSH2 0x36BF JUMP JUMPDEST JUMP JUMPDEST SWAP1 PUSH2 0x37B3 PUSH1 0xA0 PUSH1 0x5 PUSH2 0x37B9 SWAP5 PUSH2 0x3747 PUSH0 DUP3 ADD PUSH2 0x3741 PUSH0 DUP9 ADD PUSH2 0x1C0E JUMP JUMPDEST SWAP1 PUSH2 0x1E0A JUMP JUMPDEST PUSH2 0x3760 PUSH1 0x1 DUP3 ADD PUSH2 0x375A PUSH1 0x20 DUP9 ADD PUSH2 0x1C0E JUMP JUMPDEST SWAP1 PUSH2 0x1E0A JUMP JUMPDEST PUSH2 0x3779 PUSH1 0x2 DUP3 ADD PUSH2 0x3773 PUSH1 0x40 DUP9 ADD PUSH2 0x3109 JUMP JUMPDEST SWAP1 PUSH2 0x3502 JUMP JUMPDEST PUSH2 0x3792 PUSH1 0x3 DUP3 ADD PUSH2 0x378C PUSH1 0x60 DUP9 ADD PUSH2 0x350E JUMP JUMPDEST SWAP1 PUSH2 0x3617 JUMP JUMPDEST PUSH2 0x37AB PUSH1 0x4 DUP3 ADD PUSH2 0x37A5 PUSH1 0x80 DUP9 ADD PUSH2 0x3623 JUMP JUMPDEST SWAP1 PUSH2 0x3718 JUMP JUMPDEST ADD SWAP3 ADD PUSH2 0x199D JUMP JUMPDEST SWAP1 PUSH2 0x1E76 JUMP JUMPDEST JUMP JUMPDEST SWAP1 PUSH2 0x37C5 SWAP2 PUSH2 0x3724 JUMP JUMPDEST JUMP JUMPDEST SWAP1 PUSH2 0x37F2 PUSH1 0x20 PUSH1 0x6 PUSH2 0x37F8 SWAP5 PUSH2 0x37EA PUSH0 DUP3 ADD PUSH2 0x37E4 PUSH0 DUP9 ADD PUSH2 0x3105 JUMP JUMPDEST SWAP1 PUSH2 0x37BB JUMP JUMPDEST ADD SWAP3 ADD PUSH2 0x18CC JUMP JUMPDEST SWAP1 PUSH2 0x1E31 JUMP JUMPDEST JUMP JUMPDEST SWAP1 PUSH2 0x3804 SWAP2 PUSH2 0x37C7 JUMP JUMPDEST JUMP JUMPDEST PUSH2 0x381B SWAP2 PUSH1 0x20 DUP3 ADD SWAP2 PUSH0 DUP2 DUP5 SUB SWAP2 ADD MSTORE PUSH2 0x1FFF JUMP JUMPDEST SWAP1 JUMP JUMPDEST PUSH1 0x20 SWAP2 SWAP3 PUSH2 0x38E0 PUSH0 SWAP3 PUSH2 0x3853 PUSH2 0x383B PUSH2 0x3836 DUP4 PUSH2 0x1BA0 JUMP JUMPDEST PUSH2 0x1B9C JUMP JUMPDEST PUSH2 0x384D PUSH2 0x3847 DUP8 PUSH2 0x18DC JUMP JUMPDEST SWAP2 PUSH2 0x220 JUMP JUMPDEST GT PUSH2 0x309B JUMP JUMPDEST PUSH2 0x387D PUSH2 0x3878 PUSH2 0x3872 PUSH1 0x5 DUP8 PUSH2 0x386B PUSH1 0x2 CALLER SWAP1 PUSH2 0x6E2 JUMP JUMPDEST ADD ADD PUSH2 0xB9A JUMP JUMPDEST ISZERO PUSH2 0x246 JUMP JUMPDEST PUSH2 0x1BA6 JUMP JUMPDEST PUSH2 0x38D7 PUSH2 0x3888 PUSH2 0x30DE JUMP JUMPDEST PUSH2 0x38CE PUSH2 0x3893 PUSH2 0x30E3 JUMP JUMPDEST PUSH2 0x38C5 DUP11 SWAP8 SWAP4 SWAP2 PUSH2 0x38BC PUSH1 0x1 SWAP8 PUSH2 0x38B4 PUSH2 0x38AB PUSH2 0x30E8 JUMP JUMPDEST SWAP12 DUP14 DUP14 ADD PUSH2 0x81C JUMP JUMPDEST DUP13 DUP12 ADD PUSH2 0x81C JUMP JUMPDEST PUSH1 0x40 DUP10 ADD PUSH2 0xB3C JUMP JUMPDEST PUSH1 0x60 DUP8 ADD PUSH2 0xCE7 JUMP JUMPDEST PUSH1 0x80 DUP6 ADD PUSH2 0xD85 JUMP JUMPDEST PUSH1 0xA0 DUP4 ADD PUSH2 0xBA7 JUMP JUMPDEST PUSH2 0x3908 PUSH2 0x3900 DUP4 PUSH2 0x38FB PUSH2 0x38F2 PUSH2 0x30F5 JUMP JUMPDEST SWAP5 DUP7 DUP7 ADD PUSH2 0x3102 JUMP JUMPDEST PUSH2 0x18DC JUMP JUMPDEST DUP5 DUP4 ADD PUSH2 0x8D2 JUMP JUMPDEST SWAP3 PUSH2 0x391E DUP5 PUSH2 0x3919 PUSH1 0x2 CALLER SWAP1 PUSH2 0x6E2 JUMP JUMPDEST PUSH2 0x37FA JUMP JUMPDEST SWAP3 ADD MLOAD ADD MLOAD SWAP1 PUSH2 0x3963 PUSH2 0x3951 PUSH32 0xF32A9EE0D17D25C086BBE1FD7492121A0D326DB5884D4B48A2401572DB4844FB SWAP3 PUSH2 0x1FE4 JUMP JUMPDEST SWAP3 PUSH2 0x395A PUSH2 0x102 JUMP JUMPDEST SWAP2 DUP3 SWAP2 DUP3 PUSH2 0x3806 JUMP JUMPDEST SUB SWAP1 LOG2 JUMP JUMPDEST PUSH0 PUSH32 0x757569642063616E2774206265206E756C6C0000000000000000000000000000 SWAP2 ADD MSTORE JUMP JUMPDEST PUSH2 0x399C PUSH1 0x12 PUSH1 0x20 SWAP3 PUSH2 0x18F8 JUMP JUMPDEST PUSH2 0x39A5 DUP2 PUSH2 0x3968 JUMP JUMPDEST ADD SWAP1 JUMP JUMPDEST PUSH2 0x39BE SWAP1 PUSH1 0x20 DUP2 ADD SWAP1 PUSH0 DUP2 DUP4 SUB SWAP2 ADD MSTORE PUSH2 0x398F JUMP JUMPDEST SWAP1 JUMP JUMPDEST ISZERO PUSH2 0x39C8 JUMPI JUMP JUMPDEST PUSH2 0x39D0 PUSH2 0x102 JUMP JUMPDEST PUSH32 0x8C379A000000000000000000000000000000000000000000000000000000000 DUP2 MSTORE DUP1 PUSH2 0x3A00 PUSH1 0x4 DUP3 ADD PUSH2 0x39A9 JUMP JUMPDEST SUB SWAP1 REVERT JUMPDEST ISZERO PUSH2 0x3A0B JUMPI JUMP JUMPDEST PUSH0 PUSH32 0xE589BCC800000000000000000000000000000000000000000000000000000000 DUP2 MSTORE DUP1 PUSH2 0x3A3C PUSH1 0x4 DUP3 ADD PUSH2 0x3C9 JUMP JUMPDEST SUB SWAP1 REVERT JUMPDEST PUSH2 0x3A4F PUSH2 0x3A55 SWAP2 SWAP4 SWAP3 SWAP4 PUSH2 0x220 JUMP JUMPDEST SWAP3 PUSH2 0x220 JUMP JUMPDEST DUP3 ADD DUP1 SWAP3 GT PUSH2 0x3A60 JUMPI JUMP JUMPDEST PUSH2 0x2342 JUMP JUMPDEST SWAP2 SWAP1 PUSH2 0x3A93 PUSH2 0x3A7B PUSH2 0x3A76 DUP6 PUSH2 0x1BA0 JUMP JUMPDEST PUSH2 0x1B9C JUMP JUMPDEST PUSH2 0x3A8D PUSH2 0x3A87 PUSH0 PUSH2 0x18DC JUMP JUMPDEST SWAP2 PUSH2 0x220 JUMP JUMPDEST GT PUSH2 0x39C1 JUMP JUMPDEST PUSH2 0x3AB7 CALLVALUE PUSH2 0x3AB0 PUSH2 0x3AAA PUSH2 0x3AA5 PUSH2 0x49A JUMP JUMPDEST PUSH2 0x220 JUMP JUMPDEST SWAP2 PUSH2 0x220 JUMP JUMPDEST LT ISZERO PUSH2 0x3A04 JUMP JUMPDEST PUSH2 0x3B79 PUSH2 0x3B70 DUP5 SWAP3 PUSH2 0x3B6B TIMESTAMP PUSH2 0x3B32 PUSH1 0x20 DUP9 ADD MLOAD PUSH2 0x3B29 PUSH1 0x40 DUP11 ADD MLOAD PUSH2 0x3B20 DUP12 PUSH2 0x3B17 PUSH2 0x3AEB PUSH1 0x80 PUSH1 0x60 DUP5 ADD MLOAD SWAP4 ADD PUSH2 0x32D0 JUMP JUMPDEST SWAP4 PUSH2 0x3B0E PUSH0 SWAP8 PUSH2 0x3B05 PUSH2 0x3AFC PUSH2 0x2D20 JUMP JUMPDEST SWAP12 PUSH0 DUP14 ADD PUSH2 0x8D2 JUMP JUMPDEST PUSH1 0x20 DUP12 ADD PUSH2 0x81C JUMP JUMPDEST PUSH1 0x40 DUP10 ADD PUSH2 0x81C JUMP JUMPDEST PUSH1 0x60 DUP8 ADD PUSH2 0x81C JUMP JUMPDEST PUSH1 0x80 DUP6 ADD PUSH2 0x91A JUMP JUMPDEST PUSH1 0xA0 DUP4 ADD PUSH2 0x99D JUMP JUMPDEST PUSH2 0x3B62 CALLVALUE SWAP2 PUSH2 0x3B59 PUSH0 SWAP6 PUSH2 0x3B50 PUSH2 0x3B47 PUSH2 0x2D68 JUMP JUMPDEST SWAP11 PUSH0 DUP13 ADD PUSH2 0x81C JUMP JUMPDEST PUSH1 0x20 DUP11 ADD PUSH2 0x8A6 JUMP JUMPDEST PUSH1 0x40 DUP9 ADD PUSH2 0xA50 JUMP JUMPDEST PUSH1 0x60 DUP7 ADD PUSH2 0x8D2 JUMP JUMPDEST PUSH2 0x18DC JUMP JUMPDEST PUSH1 0x80 DUP4 ADD PUSH2 0x8D2 JUMP JUMPDEST SWAP1 PUSH2 0x3B8E CALLVALUE PUSH2 0x3B88 PUSH1 0x1 PUSH2 0x8C5 JUMP JUMPDEST SWAP1 PUSH2 0x3FEC JUMP JUMPDEST SWAP2 PUSH2 0x3BC9 DUP3 PUSH2 0x3BC3 PUSH1 0x6 PUSH2 0x3BB3 PUSH1 0x2 PUSH2 0x3BAD PUSH1 0x80 PUSH1 0x40 DUP13 ADD MLOAD ADD PUSH2 0x32D0 JUMP JUMPDEST SWAP1 PUSH2 0x6E2 JUMP JUMPDEST ADD SWAP2 PUSH2 0x3BBE DUP4 PUSH2 0x8C5 JUMP JUMPDEST PUSH2 0x3A40 JUMP JUMPDEST SWAP1 PUSH2 0x1E31 JUMP JUMPDEST PUSH2 0x3BF1 PUSH1 0x3 PUSH0 PUSH2 0x3BEA PUSH1 0x2 PUSH2 0x3BE4 PUSH1 0x80 PUSH1 0x40 DUP12 ADD MLOAD ADD PUSH2 0x32D0 JUMP JUMPDEST SWAP1 PUSH2 0x6E2 JUMP JUMPDEST ADD ADD PUSH2 0x1A46 JUMP JUMPDEST SWAP1 PUSH2 0x3BFB PUSH0 PUSH2 0x18DC JUMP JUMPDEST JUMPDEST DUP1 PUSH2 0x3C17 PUSH2 0x3C11 PUSH2 0x3C0C DUP7 PUSH2 0x1A58 JUMP JUMPDEST PUSH2 0x220 JUMP JUMPDEST SWAP2 PUSH2 0x220 JUMP JUMPDEST LT ISZERO PUSH2 0x3E00 JUMPI PUSH2 0x3C3C PUSH2 0x3C37 PUSH1 0x1 PUSH2 0x3C30 DUP7 DUP6 SWAP1 PUSH2 0x1A9B JUMP JUMPDEST POP ADD PUSH2 0x1AC3 JUMP JUMPDEST PUSH2 0x1B8A JUMP JUMPDEST PUSH2 0x3C4E PUSH2 0x3C48 DUP3 PUSH2 0x1B9C JUMP JUMPDEST SWAP2 PUSH2 0x1B96 JUMP JUMPDEST KECCAK256 PUSH2 0x3C80 PUSH2 0x3C7A PUSH2 0x3C62 PUSH1 0x60 DUP7 ADD MLOAD PUSH2 0x1BA0 JUMP JUMPDEST PUSH2 0x3C74 PUSH2 0x3C6E DUP3 PUSH2 0x1B9C JUMP JUMPDEST SWAP2 PUSH2 0x1B96 JUMP JUMPDEST KECCAK256 PUSH2 0x1BA3 JUMP JUMPDEST SWAP2 PUSH2 0x1BA3 JUMP JUMPDEST EQ PUSH2 0x3C94 JUMPI JUMPDEST PUSH2 0x3C8F SWAP1 PUSH2 0x1A49 JUMP JUMPDEST PUSH2 0x3BFC JUMP JUMPDEST PUSH2 0x3CBF DUP5 PUSH2 0x3CB9 PUSH1 0x2 PUSH2 0x3CA8 DUP8 DUP7 SWAP1 PUSH2 0x1A9B JUMP JUMPDEST POP ADD SWAP2 PUSH2 0x3CB4 DUP4 PUSH2 0x8C5 JUMP JUMPDEST PUSH2 0x3A40 JUMP JUMPDEST SWAP1 PUSH2 0x1E31 JUMP JUMPDEST PUSH2 0x3CD6 PUSH1 0x2 PUSH2 0x3CCF DUP6 DUP5 SWAP1 PUSH2 0x1A9B JUMP JUMPDEST POP ADD PUSH2 0x8C5 JUMP JUMPDEST PUSH2 0x3CFE PUSH2 0x3CF8 PUSH2 0x3CF3 PUSH1 0x3 PUSH2 0x3CEC DUP9 DUP8 SWAP1 PUSH2 0x1A9B JUMP JUMPDEST POP ADD PUSH2 0x8C5 JUMP JUMPDEST PUSH2 0x220 JUMP JUMPDEST SWAP2 PUSH2 0x220 JUMP JUMPDEST LT PUSH2 0x3C86 JUMPI SWAP2 DUP2 PUSH2 0x3D47 PUSH1 0x3 PUSH2 0x3D40 PUSH2 0x3D93 SWAP7 PUSH1 0x60 PUSH2 0x3DA9 SWAP12 SWAP13 PUSH2 0x3D37 PUSH2 0x3D2C PUSH1 0x80 PUSH2 0x3DA2 SWAP15 SWAP14 SWAP12 ADD PUSH2 0x32D0 JUMP JUMPDEST DUP4 DUP10 ADD MLOAD PUSH0 SWAP2 PUSH2 0x295B JUMP JUMPDEST SWAP6 ADD MLOAD SWAP6 PUSH2 0x1A9B JUMP JUMPDEST POP ADD PUSH2 0x8C5 JUMP JUMPDEST PUSH2 0x3D71 PUSH32 0xAEB5EFF15BA550FB48D68CE3A5D6793A723C0452E39484838A85522D519AEF9 SWAP3 PUSH2 0x1FE4 JUMP JUMPDEST SWAP3 PUSH2 0x3D86 PUSH2 0x3D7D PUSH2 0x102 JUMP JUMPDEST SWAP3 DUP4 SWAP3 DUP4 PUSH2 0x2030 JUMP JUMPDEST SUB SWAP1 LOG2 JUMPDEST PUSH1 0x80 DUP7 ADD PUSH2 0x8D2 JUMP JUMPDEST PUSH2 0x3D9D PUSH1 0x3 PUSH2 0x8C5 JUMP JUMPDEST PUSH2 0x3A40 JUMP JUMPDEST PUSH1 0x3 PUSH2 0x1E31 JUMP JUMPDEST PUSH1 0x40 DUP1 DUP3 ADD MLOAD ADD MLOAD PUSH0 SWAP1 PUSH2 0x3DFB PUSH2 0x3DE9 PUSH2 0x3DE3 PUSH32 0xC251291991957F26D7775677114F287EF7A70D464267D3BD4297334AFC95E7E7 SWAP4 PUSH2 0x1FE4 JUMP JUMPDEST SWAP4 PUSH2 0x2D82 JUMP JUMPDEST SWAP4 PUSH2 0x3DF2 PUSH2 0x102 JUMP JUMPDEST SWAP2 DUP3 SWAP2 DUP3 PUSH2 0x2DF7 JUMP JUMPDEST SUB SWAP1 LOG3 JUMP JUMPDEST POP POP POP PUSH2 0x3DA9 SWAP3 SWAP4 POP SWAP1 PUSH2 0x3D93 PUSH2 0x3DA2 SWAP3 PUSH2 0x3D8A JUMP JUMPDEST PUSH2 0x3E22 PUSH2 0x3E27 SWAP2 PUSH2 0x8A9 JUMP JUMPDEST PUSH2 0x5E0 JUMP JUMPDEST SWAP1 JUMP JUMPDEST PUSH2 0x3E34 SWAP1 SLOAD PUSH2 0x3E16 JUMP JUMPDEST SWAP1 JUMP JUMPDEST PUSH0 PUSH32 0x75206D757374206265206F776E65722100000000000000000000000000000000 SWAP2 ADD MSTORE JUMP JUMPDEST PUSH2 0x3E6B PUSH1 0x10 PUSH1 0x20 SWAP3 PUSH2 0x18F8 JUMP JUMPDEST PUSH2 0x3E74 DUP2 PUSH2 0x3E37 JUMP JUMPDEST ADD SWAP1 JUMP JUMPDEST PUSH2 0x3E8D SWAP1 PUSH1 0x20 DUP2 ADD SWAP1 PUSH0 DUP2 DUP4 SUB SWAP2 ADD MSTORE PUSH2 0x3E5E JUMP JUMPDEST SWAP1 JUMP JUMPDEST ISZERO PUSH2 0x3E97 JUMPI JUMP JUMPDEST PUSH2 0x3E9F PUSH2 0x102 JUMP JUMPDEST PUSH32 0x8C379A000000000000000000000000000000000000000000000000000000000 DUP2 MSTORE DUP1 PUSH2 0x3ECF PUSH1 0x4 DUP3 ADD PUSH2 0x3E78 JUMP JUMPDEST SUB SWAP1 REVERT JUMPDEST PUSH0 DUP1 PUSH2 0x3F9B SWAP3 PUSH2 0x3EFD CALLER PUSH2 0x3EF7 PUSH2 0x3EF1 PUSH2 0x3EEC DUP7 PUSH2 0x3E2A JUMP JUMPDEST PUSH2 0x2C53 JUMP JUMPDEST SWAP2 PUSH2 0x526 JUMP JUMPDEST EQ PUSH2 0x3E90 JUMP JUMPDEST PUSH2 0x3F21 DUP2 PUSH2 0x3F1A PUSH2 0x3F14 PUSH2 0x3F0F PUSH2 0x49A JUMP JUMPDEST PUSH2 0x220 JUMP JUMPDEST SWAP2 PUSH2 0x220 JUMP JUMPDEST LT ISZERO PUSH2 0x3A04 JUMP JUMPDEST PUSH2 0x3F47 PUSH2 0x3F2E PUSH1 0x3 PUSH2 0x8C5 JUMP JUMPDEST PUSH2 0x3F40 PUSH2 0x3F3A DUP5 PUSH2 0x220 JUMP JUMPDEST SWAP2 PUSH2 0x220 JUMP JUMPDEST LT ISZERO PUSH2 0x2BF8 JUMP JUMPDEST PUSH2 0x3F64 PUSH2 0x3F5D DUP3 PUSH2 0x3F58 PUSH1 0x3 PUSH2 0x8C5 JUMP JUMPDEST PUSH2 0x236F JUMP JUMPDEST PUSH1 0x3 PUSH2 0x1E31 JUMP JUMPDEST PUSH2 0x3F75 PUSH2 0x3F70 DUP4 PUSH2 0x3E2A JUMP JUMPDEST PUSH2 0x2C53 JUMP JUMPDEST SWAP1 PUSH2 0x3F7E PUSH2 0x102 JUMP JUMPDEST SWAP1 DUP2 PUSH2 0x3F89 DUP2 PUSH2 0x2C73 JUMP JUMPDEST SUB SWAP3 GAS CALL PUSH2 0x3F95 PUSH2 0x2CBE JUMP JUMPDEST POP PUSH2 0x2D14 JUMP JUMPDEST JUMP JUMPDEST PUSH32 0x4E487B7100000000000000000000000000000000000000000000000000000000 PUSH0 MSTORE PUSH1 0x12 PUSH1 0x4 MSTORE PUSH1 0x24 PUSH0 REVERT JUMPDEST PUSH2 0x3FD6 PUSH2 0x3FDC SWAP2 PUSH2 0x220 JUMP JUMPDEST SWAP2 PUSH2 0x220 JUMP JUMPDEST SWAP1 DUP2 ISZERO PUSH2 0x3FE7 JUMPI DIV SWAP1 JUMP JUMPDEST PUSH2 0x3F9D JUMP JUMPDEST SWAP2 SWAP1 PUSH2 0x4021 PUSH2 0x4010 PUSH2 0x4029 SWAP3 PUSH2 0x4000 PUSH2 0x1C86 JUMP JUMPDEST POP PUSH2 0x4009 PUSH2 0x1C86 JUMP JUMPDEST POP DUP6 PUSH2 0x2712 JUMP JUMPDEST PUSH2 0x401B PUSH2 0x3E8 PUSH2 0x1606 JUMP JUMPDEST SWAP1 PUSH2 0x3FCA JUMP JUMPDEST SWAP3 DUP4 SWAP1 PUSH2 0x236F JUMP JUMPDEST SWAP2 SWAP1 JUMP INVALID LOG2 PUSH5 0x6970667358 0x22 SLT KECCAK256 DELEGATECALL 0xC8 TIMESTAMP 0xDD SLT 0xFC PUSH18 0x56757BF533AB9CBDAC06E066D793895B9A6B PUSH15 0x4C4C0ADCEA9B64736F6C634300081C STOP CALLER "
        },
        "methodIdentifiers": {
          "K()": "a932492f",
          "MINIMAL_TRANSFER_COST()": "54845a47",
          "SCALE()": "eced5526",
          "addWish((string,string,uint256,uint256,string,string,string,bool))": "09722e0c",
          "changeName(string)": "5353a2d8",
          "completeOrRemoveWish(address,string,bool)": "6a162ece",
          "donate(string,(string,string),(uint256,string,string,string,address,uint8))": "f4426bfb",
          "isRegistered(address)": "c3c5a547",
          "owner()": "8da5cb5b",
          "ownerBalance()": "bedcf003",
          "ownerWithdaw(uint256)": "f69e6d47",
          "registerUser(string,string,string[])": "e7a8c912",
          "users(address)": "a87430ba",
          "withdraw(string,string,uint256)": "ba73b818"
        }
      }
    }
  }
}