{
  "contracts/Donates.sol": {
    "Donates": {
      "abi": [
        {
          "inputs": [
            {
              "internalType": "uint256",
              "name": "k",
              "type": "uint256"
            }
          ],
          "stateMutability": "nonpayable",
          "type": "constructor"
        },
        {
          "inputs": [],
          "name": "Alreadyexists",
          "type": "error"
        },
        {
          "inputs": [
            {
              "internalType": "string",
              "name": "arrName",
              "type": "string"
            }
          ],
          "name": "ArrayIsEmpty",
          "type": "error"
        },
        {
          "inputs": [],
          "name": "CantBeEmpty",
          "type": "error"
        },
        {
          "inputs": [],
          "name": "MustBeMoreThanMinimalTransferCost",
          "type": "error"
        },
        {
          "anonymous": false,
          "inputs": [
            {
              "indexed": true,
              "internalType": "string",
              "name": "streamerUUid",
              "type": "string"
            },
            {
              "components": [
                {
                  "internalType": "string",
                  "name": "uuid",
                  "type": "string"
                },
                {
                  "components": [
                    {
                      "internalType": "string",
                      "name": "userName",
                      "type": "string"
                    },
                    {
                      "internalType": "string",
                      "name": "messageText",
                      "type": "string"
                    }
                  ],
                  "internalType": "struct PaymentUserData",
                  "name": "paymentUserData",
                  "type": "tuple"
                },
                {
                  "components": [
                    {
                      "internalType": "uint256",
                      "name": "date",
                      "type": "uint256"
                    },
                    {
                      "internalType": "string",
                      "name": "fromUUID",
                      "type": "string"
                    },
                    {
                      "internalType": "string",
                      "name": "toUUID",
                      "type": "string"
                    },
                    {
                      "internalType": "uint256",
                      "name": "wishId",
                      "type": "uint256"
                    },
                    {
                      "internalType": "address",
                      "name": "toAddress",
                      "type": "address"
                    },
                    {
                      "internalType": "enum PaymentType",
                      "name": "paymentType",
                      "type": "uint8"
                    }
                  ],
                  "internalType": "struct PaymentInfo",
                  "name": "paymentInfo",
                  "type": "tuple"
                },
                {
                  "internalType": "uint256",
                  "name": "amount",
                  "type": "uint256"
                },
                {
                  "internalType": "uint256",
                  "name": "transferedToUserAmount",
                  "type": "uint256"
                }
              ],
              "indexed": false,
              "internalType": "struct Payment",
              "name": "payment",
              "type": "tuple"
            },
            {
              "indexed": true,
              "internalType": "enum PaymentType",
              "name": "paymentType",
              "type": "uint8"
            }
          ],
          "name": "PaymentCredited",
          "type": "event"
        },
        {
          "anonymous": false,
          "inputs": [
            {
              "indexed": true,
              "internalType": "string",
              "name": "uuid",
              "type": "string"
            },
            {
              "indexed": false,
              "internalType": "string",
              "name": "name",
              "type": "string"
            }
          ],
          "name": "UserCreated",
          "type": "event"
        },
        {
          "anonymous": false,
          "inputs": [
            {
              "indexed": true,
              "internalType": "string",
              "name": "userUUID",
              "type": "string"
            },
            {
              "indexed": false,
              "internalType": "uint256",
              "name": "wishId",
              "type": "uint256"
            },
            {
              "indexed": false,
              "internalType": "uint256",
              "name": "price",
              "type": "uint256"
            }
          ],
          "name": "WishAdded",
          "type": "event"
        },
        {
          "anonymous": false,
          "inputs": [
            {
              "indexed": true,
              "internalType": "string",
              "name": "userUUID",
              "type": "string"
            },
            {
              "indexed": false,
              "internalType": "uint256",
              "name": "wishid",
              "type": "uint256"
            },
            {
              "indexed": false,
              "internalType": "uint256",
              "name": "price",
              "type": "uint256"
            }
          ],
          "name": "WishCompleted",
          "type": "event"
        },
        {
          "anonymous": false,
          "inputs": [
            {
              "indexed": true,
              "internalType": "string",
              "name": "userUUID",
              "type": "string"
            },
            {
              "indexed": false,
              "internalType": "uint256",
              "name": "wishid",
              "type": "uint256"
            },
            {
              "indexed": false,
              "internalType": "uint256",
              "name": "accumulatedAmount",
              "type": "uint256"
            }
          ],
          "name": "WishDeleted",
          "type": "event"
        },
        {
          "inputs": [],
          "name": "K",
          "outputs": [
            {
              "internalType": "uint256",
              "name": "",
              "type": "uint256"
            }
          ],
          "stateMutability": "view",
          "type": "function"
        },
        {
          "inputs": [],
          "name": "MINIMAL_TRANSFER_COST",
          "outputs": [
            {
              "internalType": "uint256",
              "name": "",
              "type": "uint256"
            }
          ],
          "stateMutability": "view",
          "type": "function"
        },
        {
          "inputs": [],
          "name": "SCALE",
          "outputs": [
            {
              "internalType": "uint256",
              "name": "",
              "type": "uint256"
            }
          ],
          "stateMutability": "view",
          "type": "function"
        },
        {
          "inputs": [
            {
              "components": [
                {
                  "internalType": "string",
                  "name": "userUUID",
                  "type": "string"
                },
                {
                  "internalType": "uint256",
                  "name": "id",
                  "type": "uint256"
                },
                {
                  "internalType": "uint256",
                  "name": "currentBalance",
                  "type": "uint256"
                },
                {
                  "internalType": "uint256",
                  "name": "price",
                  "type": "uint256"
                },
                {
                  "internalType": "string",
                  "name": "name",
                  "type": "string"
                },
                {
                  "internalType": "string",
                  "name": "link",
                  "type": "string"
                },
                {
                  "internalType": "string",
                  "name": "description",
                  "type": "string"
                },
                {
                  "internalType": "bool",
                  "name": "completed",
                  "type": "bool"
                }
              ],
              "internalType": "struct Wish",
              "name": "wish",
              "type": "tuple"
            }
          ],
          "name": "addWish",
          "outputs": [],
          "stateMutability": "nonpayable",
          "type": "function"
        },
        {
          "inputs": [
            {
              "internalType": "string",
              "name": "newName",
              "type": "string"
            }
          ],
          "name": "changeName",
          "outputs": [],
          "stateMutability": "nonpayable",
          "type": "function"
        },
        {
          "inputs": [
            {
              "internalType": "address",
              "name": "useraddr",
              "type": "address"
            },
            {
              "internalType": "uint256",
              "name": "wishId",
              "type": "uint256"
            },
            {
              "internalType": "bool",
              "name": "remove",
              "type": "bool"
            }
          ],
          "name": "completeOrRemoveWish",
          "outputs": [],
          "stateMutability": "nonpayable",
          "type": "function"
        },
        {
          "inputs": [
            {
              "internalType": "string",
              "name": "uuid",
              "type": "string"
            },
            {
              "components": [
                {
                  "internalType": "string",
                  "name": "userName",
                  "type": "string"
                },
                {
                  "internalType": "string",
                  "name": "messageText",
                  "type": "string"
                }
              ],
              "internalType": "struct PaymentUserData",
              "name": "pud",
              "type": "tuple"
            },
            {
              "components": [
                {
                  "internalType": "uint256",
                  "name": "date",
                  "type": "uint256"
                },
                {
                  "internalType": "string",
                  "name": "fromUUID",
                  "type": "string"
                },
                {
                  "internalType": "string",
                  "name": "toUUID",
                  "type": "string"
                },
                {
                  "internalType": "uint256",
                  "name": "wishId",
                  "type": "uint256"
                },
                {
                  "internalType": "address",
                  "name": "toAddress",
                  "type": "address"
                },
                {
                  "internalType": "enum PaymentType",
                  "name": "paymentType",
                  "type": "uint8"
                }
              ],
              "internalType": "struct PaymentInfo",
              "name": "pi",
              "type": "tuple"
            }
          ],
          "name": "donate",
          "outputs": [],
          "stateMutability": "payable",
          "type": "function"
        },
        {
          "inputs": [],
          "name": "owner",
          "outputs": [
            {
              "internalType": "address payable",
              "name": "",
              "type": "address"
            }
          ],
          "stateMutability": "view",
          "type": "function"
        },
        {
          "inputs": [],
          "name": "ownerBalance",
          "outputs": [
            {
              "internalType": "uint256",
              "name": "",
              "type": "uint256"
            }
          ],
          "stateMutability": "view",
          "type": "function"
        },
        {
          "inputs": [
            {
              "internalType": "uint256",
              "name": "amount",
              "type": "uint256"
            }
          ],
          "name": "ownerWithdaw",
          "outputs": [],
          "stateMutability": "nonpayable",
          "type": "function"
        },
        {
          "inputs": [
            {
              "internalType": "string",
              "name": "name",
              "type": "string"
            },
            {
              "internalType": "string",
              "name": "uuid",
              "type": "string"
            },
            {
              "internalType": "string[]",
              "name": "topics",
              "type": "string[]"
            }
          ],
          "name": "registerUser",
          "outputs": [],
          "stateMutability": "nonpayable",
          "type": "function"
        },
        {
          "inputs": [
            {
              "internalType": "address",
              "name": "",
              "type": "address"
            }
          ],
          "name": "users",
          "outputs": [
            {
              "components": [
                {
                  "internalType": "string",
                  "name": "uuid",
                  "type": "string"
                },
                {
                  "internalType": "string",
                  "name": "name",
                  "type": "string"
                },
                {
                  "components": [
                    {
                      "internalType": "string",
                      "name": "uuid",
                      "type": "string"
                    },
                    {
                      "components": [
                        {
                          "internalType": "string",
                          "name": "userName",
                          "type": "string"
                        },
                        {
                          "internalType": "string",
                          "name": "messageText",
                          "type": "string"
                        }
                      ],
                      "internalType": "struct PaymentUserData",
                      "name": "paymentUserData",
                      "type": "tuple"
                    },
                    {
                      "components": [
                        {
                          "internalType": "uint256",
                          "name": "date",
                          "type": "uint256"
                        },
                        {
                          "internalType": "string",
                          "name": "fromUUID",
                          "type": "string"
                        },
                        {
                          "internalType": "string",
                          "name": "toUUID",
                          "type": "string"
                        },
                        {
                          "internalType": "uint256",
                          "name": "wishId",
                          "type": "uint256"
                        },
                        {
                          "internalType": "address",
                          "name": "toAddress",
                          "type": "address"
                        },
                        {
                          "internalType": "enum PaymentType",
                          "name": "paymentType",
                          "type": "uint8"
                        }
                      ],
                      "internalType": "struct PaymentInfo",
                      "name": "paymentInfo",
                      "type": "tuple"
                    },
                    {
                      "internalType": "uint256",
                      "name": "amount",
                      "type": "uint256"
                    },
                    {
                      "internalType": "uint256",
                      "name": "transferedToUserAmount",
                      "type": "uint256"
                    }
                  ],
                  "internalType": "struct Payment[]",
                  "name": "payments",
                  "type": "tuple[]"
                },
                {
                  "components": [
                    {
                      "internalType": "string",
                      "name": "userUUID",
                      "type": "string"
                    },
                    {
                      "internalType": "uint256",
                      "name": "id",
                      "type": "uint256"
                    },
                    {
                      "internalType": "uint256",
                      "name": "currentBalance",
                      "type": "uint256"
                    },
                    {
                      "internalType": "uint256",
                      "name": "price",
                      "type": "uint256"
                    },
                    {
                      "internalType": "string",
                      "name": "name",
                      "type": "string"
                    },
                    {
                      "internalType": "string",
                      "name": "link",
                      "type": "string"
                    },
                    {
                      "internalType": "string",
                      "name": "description",
                      "type": "string"
                    },
                    {
                      "internalType": "bool",
                      "name": "completed",
                      "type": "bool"
                    }
                  ],
                  "internalType": "struct Wish[]",
                  "name": "wishes",
                  "type": "tuple[]"
                },
                {
                  "internalType": "string[]",
                  "name": "topics",
                  "type": "string[]"
                }
              ],
              "internalType": "struct User",
              "name": "user",
              "type": "tuple"
            },
            {
              "internalType": "uint256",
              "name": "currentBalance",
              "type": "uint256"
            }
          ],
          "stateMutability": "view",
          "type": "function"
        },
        {
          "inputs": [
            {
              "internalType": "string",
              "name": "uuid",
              "type": "string"
            },
            {
              "internalType": "string",
              "name": "userUUID",
              "type": "string"
            },
            {
              "internalType": "uint256",
              "name": "amount",
              "type": "uint256"
            }
          ],
          "name": "withdraw",
          "outputs": [],
          "stateMutability": "nonpayable",
          "type": "function"
        }
      ],
      "evm": {
        "bytecode": {
          "linkReferences": {},
          "object": "6080346100f457601f6127d338819003918201601f19168301916001600160401b038311848410176100f8578084926020946040528339810103126100f4575180158015806100ea575b15610097575f80546001600160a01b03191633178155600355600a828102928304141715610083576001556040516126c6908161010d8239f35b634e487b7160e01b5f52601160045260245ffd5b60405162461bcd60e51b815260206004820152602560248201527f4b2063616e277420626520657175616c20746f2030206f72206d6f72652074686044820152640616e2031360dc1b6064820152608490fd5b50600a8210610049565b5f80fd5b634e487b7160e01b5f52604160045260245ffdfe60806040526004361015610011575f80fd5b5f3560e01c80635353a2d81461194a57806354845a471461192b578063591794a51461165a578063708e8d6d146113a15780638da5cb5b1461137c578063a87430ba14610f00578063a932492f14610ee3578063b3767e5814610eb1578063ba73b81814610d0f578063bedcf00314610cf2578063e7a8c9121461019b578063eced55261461017f5763f69e6d47146100a8575f80fd5b3461017b57602036600319011261017b576004356001600160a01b035f541633036101375764e8d4a51000811061010f575f808080846100f961010d966003546100f4828210156125fb565b61215f565b600355335af1610107612646565b50612675565b005b7fe589bcc8000000000000000000000000000000000000000000000000000000005f5260045ffd5b606460405162461bcd60e51b815260206004820152601060248201527f75206d757374206265206f776e657221000000000000000000000000000000006044820152fd5b5f80fd5b3461017b575f36600319011261017b5760206040516103e88152f35b3461017b57606036600319011261017b5760043567ffffffffffffffff811161017b576101cc903690600401611b27565b60243567ffffffffffffffff811161017b576101ec903690600401611b27565b9060443567ffffffffffffffff811161017b573660238201121561017b57806004013561021881611c5b565b916102266040519384611ae9565b8183526024602084019260051b8201019036821161017b5760248101925b828410610cc25750505050815115610c7e576040519161026383611ab0565b83835260208301526060604083015260608083015260808201526040519061028a82611a78565b8152602081015f8152335f52600260205260405f20908251805180519067ffffffffffffffff8211610555576102ca826102c48754611b83565b87611d80565b602090601f8311600114610c1b576102f992915f9183610c10575b50508160011b915f199060031b1c19161790565b83555b60018301602082015180519067ffffffffffffffff82116105555761032b826103258554611b83565b85611d80565b602090601f8311600114610bad5761035992915f9183610ba25750508160011b915f199060031b1c19161790565b90555b600283016040820151805190680100000000000000008211610555578254828455808310610b0c575b50602001915f5260205f20915f905b8282106106895750505050600383016060820151908151916801000000000000000083116105555781548383558084106105b4575b50602001905f5260205f205f915b83831061059657505050506080015180516004840191680100000000000000008211610555578254828455808310610569575b50602001915f5260205f20915f905b82821061047457845160058701558651602001517ff32a9ee0d17d25c086bbe1fd7492121a0d326db5884d4b48a2401572db4844fb61046f61045a8b611dd0565b92604051918291602083526020830190611c73565b0390a2005b805180519067ffffffffffffffff82116105555761049c826104968854611b83565b88611d80565b602090601f83116001146104ec57926104d2836001959460209487965f926104e15750508160011b915f199060031b1c19161790565b87555b01940191019092610419565b015190508e806102e5565b90601f19831691875f52815f20925f5b81811061053d5750936020936001969387969383889510610525575b505050811b0187556104d5565b01515f1960f88460031b161c191690558d8080610518565b929360206001819287860151815501950193016104fc565b634e487b7160e01b5f52604160045260245ffd5b835f528260205f2091820191015b818110610584575061040a565b80610590600192612246565b01610577565b60086020826105a86001945186611e19565b019201920191906103d7565b7f1fffffffffffffffffffffffffffffffffffffffffffffffffffffffffffffff81168103610675577f1fffffffffffffffffffffffffffffffffffffffffffffffffffffffffffffff8416840361067557825f5260205f209060031b8101908460031b015b81811061062757506103c9565b60089061063381612246565b5f60018201555f60028201555f600382015561065160048201612246565b61065d60058201612246565b61066960068201612246565b5f60078201550161061a565b634e487b7160e01b5f52601160045260245ffd5b8051805180519067ffffffffffffffff8211610555576106b3826106ad8954611b83565b89611d80565b602090601f8311600114610aa9576106e192915f9183610a9e5750508160011b915f199060031b1c19161790565b85555b602081015180518051600188019167ffffffffffffffff82116105555761070f826103258554611b83565b602090601f8311600114610a3b5761073d92915f91836109075750508160011b915f199060031b1c19161790565b90555b602001518051600287019167ffffffffffffffff821161055557610768826103258554611b83565b602090601f83116001146109d85761079692915f91836104e15750508160011b915f199060031b1c19161790565b90555b6040810151908151600387015560048601602083015180519067ffffffffffffffff8211610555576107cf826103258554611b83565b602090601f8311600114610975576107fd92915f91836109075750508160011b915f199060031b1c19161790565b90555b60058601604083015180519067ffffffffffffffff821161055557610829826103258554611b83565b602090601f83116001146109125761085792915f91836109075750508160011b915f199060031b1c19161790565b90555b6060820151600687015560078601926001600160a01b036080840151169160a085549401519060028210156108f357600195600a956020957fffffffffffffffffffffff00000000000000000000000000000000000000000074ff000000000000000000000000000000000000000060809660a01b16921617179055606081015160088a01550151600988015501940191019092610394565b634e487b7160e01b5f52602160045260245ffd5b015190508f806102e5565b90601f19831691845f52815f20925f5b81811061095d5750908460019594939210610945575b505050811b01905561085a565b01515f1960f88460031b161c191690558e8080610938565b92936020600181928786015181550195019301610922565b90601f19831691845f52815f20925f5b8181106109c057509084600195949392106109a8575b505050811b019055610800565b01515f1960f88460031b161c191690558e808061099b565b92936020600181928786015181550195019301610985565b90601f19831691845f52815f20925f5b818110610a235750908460019594939210610a0b575b505050811b019055610799565b01515f1960f88460031b161c191690558d80806109fe565b929360206001819287860151815501950193016109e8565b90601f19831691845f52815f20925f5b818110610a865750908460019594939210610a6e575b505050811b019055610740565b01515f1960f88460031b161c191690558e8080610a61565b92936020600181928786015181550195019301610a4b565b015190508d806102e5565b90601f19831691885f52815f20925f5b818110610af45750908460019594939210610adc575b505050811b0185556106e4565b01515f1960f88460031b161c191690558c8080610acf565b92936020600181928786015181550195019301610ab9565b80600a0290600a8204036106755782600a02600a8104840361067557845f5260205f2091820191015b818110610b425750610385565b80610b4e600a92612246565b610b5a60018201612246565b610b6660028201612246565b5f6003820155610b7860048201612246565b610b8460058201612246565b5f60068201555f60078201555f60088201555f600982015501610b35565b0151905089806102e5565b90601f19831691845f52815f20925f5b818110610bf85750908460019594939210610be0575b505050811b01905561035c565b01515f1960f88460031b161c19169055888080610bd3565b92936020600181928786015181550195019301610bbd565b0151905088806102e5565b90601f19831691865f52815f20925f5b818110610c665750908460019594939210610c4e575b505050811b0183556102fc565b01515f1960f88460031b161c19169055878080610c41565b92936020600181928786015181550195019301610c2b565b606460405162461bcd60e51b815260206004820152601360248201527f6e616d652063616e277420626520656d707479000000000000000000000000006044820152fd5b833567ffffffffffffffff811161017b57602091610ce7839260243691870101611b27565b815201930192610244565b3461017b575f36600319011261017b576020600354604051908152f35b3461017b57606036600319011261017b5760043567ffffffffffffffff811161017b57610d40903690600401611b27565b60243567ffffffffffffffff811161017b57610d60903690600401611b27565b60443590335f526002602052610d7f82600560405f20015410156125fb565b335f526002602052600560405f2001610d9983825461215f565b9055610dae5f80808086335af1610107612646565b335f526002602052610dd760405f2060405192610dca84611a94565b4284526020840152611bbb565b60408201525f6060820152336080820152600160a0820152335f526002602052600160405f200191610e1460405193610e0f85611a78565b611bbb565b8352602092604051610e268582611ae9565b5f81528482015260405194610e3a86611ab0565b855283850152604084019182528060608501526080840152335f526002825260a060405f20915101519260028410156108f357610e977f8641214593227d3404460886f37864b6475408b50d7e677738e122aaae424bde92612294565b92610eac604051928284938452830190611c97565b0390a3005b3461017b57606036600319011261017b57610eca611b6d565b604435801515810361017b5761010d9160243590612310565b3461017b575f36600319011261017b576020600154604051908152f35b3461017b57602036600319011261017b576001600160a01b03610f21611b6d565b165f52600260205260405f20604051610f3981611ab0565b610f4282611bbb565b8152610f5060018301611bbb565b91602082019283526002810190815491610f6983611c5b565b92610f776040519485611ae9565b80845260208401915f5260205f205f925b82841061129b575050505060408301918252600381018054610fa981611c5b565b91610fb76040519384611ae9565b81835260208301905f5260205f205f915b83831061121157505050506060840190815260048201918254610fea81611c5b565b93610ff86040519586611ae9565b81855260208501905f5260205f205f915b8383106111f457505050506005611054916080870194855201549561104160405196604088525160a0604089015260e0880190611c73565b9051868203603f19016060880152611c73565b925192603f19858203016080860152835180825260208201916020808360051b8301019601925f915b8383106111c75750505050505191603f198482030160a0850152825180825260208201916020808360051b8301019501925f915b8383106111265750505050505190603f198382030160c0840152815180825260208201916020808360051b8301019401925f915b8383106110f9578680878a60208301520390f35b9091929394602080611117600193601f198682030187528951611c73565b970193019301919392906110e5565b9091929395602080600192601f1985820301865289519060e0806111b061119e61118c61115e87516101008852610100880190611c73565b8888015189880152604088015160408801526060880151606088015260808801518782036080890152611c73565b60a087015186820360a0880152611c73565b60c086015185820360c0870152611c73565b9301511515910152980193019301919392906110b1565b90919293966020806111e5600193601f198682030187528b51611c97565b9901930193019193929061107d565b60016020819261120385611bbb565b815201920192019190611009565b6008602060019260405161122481611acc565b61122d86611bbb565b81528486015483820152600286015460408201526003860154606082015261125760048701611bbb565b608082015261126860058701611bbb565b60a082015261127960068701611bbb565b60c082015260ff600787015416151560e0820152815201920192019190610fc8565b604051906112a882611ab0565b6112b183611bbb565b82526040516112bf81611a78565b6112cb60018501611bbb565b81526112d960028501611bbb565b60208201526020830152604051906112f082611a94565b6003840154825261130360048501611bbb565b602083015261131460058501611bbb565b60408301526006840154606083015260ff60078501546001600160a01b038116608085015260a01c169060028210156108f3576001938360209360a0600a96015260408201526008860154606082015260098601546080820152815201920193019290610f88565b3461017b575f36600319011261017b5760206001600160a01b035f5416604051908152f35b3461017b57602036600319011261017b5760043567ffffffffffffffff811161017b57610100600319823603011261017b57604051906113e082611acc565b806004013567ffffffffffffffff811161017b576114049060043691840101611b27565b825260208201916024820135835260448201356040820152606081019160648101358352608481013567ffffffffffffffff811161017b5761144c9060043691840101611b27565b608083015260a481013567ffffffffffffffff811161017b576114759060043691840101611b27565b60a083015260c48101359067ffffffffffffffff821161017b576114a160e49260043691840101611b27565b60c08401520135801515810361017b5760e0820190815282511561161657516115d2575f335f526002602052600360405f20015f908054915b8281106115a6575b50505061157e57335f526002602052600360405f20018054680100000000000000008110156105555761151a91600182018155611dec565b92909261156b5761155d826115526040947f33f37c1926ec5e25b995fcdebaa47564a57577a1ea9159a27e0bda8f10297b8996611e19565b519451915194611dd0565b9382519182526020820152a2005b634e487b7160e01b5f525f60045260245ffd5b7f9be4f888000000000000000000000000000000000000000000000000000000005f5260045ffd5b60016115b28284611dec565b5001548751146115c4576001016114da565b5050505060018480806114e2565b606460405162461bcd60e51b815260206004820152601c60248201527f63616e2774207075626c69736820636f6d706c657465642077697368000000006044820152fd5b606460405162461bcd60e51b815260206004820152601b60248201527f636f7374206d757374206265206d6f7265207468616e207a65726f00000000006044820152fd5b606036600319011261017b5760043567ffffffffffffffff811161017b57611686903690600401611b27565b6024359067ffffffffffffffff821161017b576040600319833603011261017b57604051916116b483611a78565b806004013567ffffffffffffffff811161017b576116d89060043691840101611b27565b835260248101359067ffffffffffffffff821161017b5760046116fe9236920101611b27565b60208301526044359167ffffffffffffffff831161017b5760c0600319843603011261017b5760405161173081611a94565b83600401358152602484013567ffffffffffffffff811161017b5761175b9060043691870101611b27565b9360208201948552604481013567ffffffffffffffff811161017b576117879060043691840101611b27565b94604083019586526060830192606483013584526084830135926001600160a01b038416840361017b576080820193845260a4013590600282101561017b5760a001528451156118e75764e8d4a51000341061010f576001600160a01b0390519551925191511691604051956117fc87611a94565b42875260208701526040860152606085015260808401525f60a08401526040519161182683611ab0565b8252602082015260408101918252346060820152608081015f815260015492833402933485041434151715610675576118d26040610eac926118c77f8641214593227d3404460886f37864b6475408b50d7e677738e122aaae424bde956103e85f990490611894823461215f565b906001600160a01b03608086510151168b5260026020526005868c20016118bc838254611dc3565b905552600354611dc3565b600355510151611dd0565b92604051918291602083526020830190611c97565b606460405162461bcd60e51b815260206004820152601260248201527f757569642063616e2774206265206e756c6c00000000000000000000000000006044820152fd5b3461017b575f36600319011261017b57602060405164e8d4a510008152f35b3461017b57602036600319011261017b5760043567ffffffffffffffff811161017b5761197b903690600401611b27565b805115611a5057335f526002602052600160405f2001815167ffffffffffffffff8111610555576119b6816119b08454611b83565b84611d80565b602092601f82116001146119f4576119e5929382915f926119e95750508160011b915f199060031b1c19161790565b9055005b0151905084806102e5565b601f19821693835f52805f20915f5b868110611a385750836001959610611a20575b505050811b019055005b01515f1960f88460031b161c19169055838080611a16565b91926020600181928685015181550194019201611a03565b7f6bc8ebc4000000000000000000000000000000000000000000000000000000005f5260045ffd5b6040810190811067ffffffffffffffff82111761055557604052565b60c0810190811067ffffffffffffffff82111761055557604052565b60a0810190811067ffffffffffffffff82111761055557604052565b610100810190811067ffffffffffffffff82111761055557604052565b90601f8019910116810190811067ffffffffffffffff82111761055557604052565b67ffffffffffffffff811161055557601f01601f191660200190565b81601f8201121561017b57803590611b3e82611b0b565b92611b4c6040519485611ae9565b8284526020838301011161017b57815f926020809301838601378301015290565b600435906001600160a01b038216820361017b57565b90600182811c92168015611bb1575b6020831014611b9d57565b634e487b7160e01b5f52602260045260245ffd5b91607f1691611b92565b9060405191825f825492611bce84611b83565b8084529360018116908115611c395750600114611bf5575b50611bf392500383611ae9565b565b90505f9291925260205f20905f915b818310611c1d575050906020611bf3928201015f611be6565b6020919350806001915483858901015201910190918492611c04565b905060209250611bf394915060ff191682840152151560051b8201015f611be6565b67ffffffffffffffff81116105555760051b60200190565b805180835260209291819084018484015e5f828201840152601f01601f1916010190565b90611ce2611cae835160a0845260a0840190611c73565b60208401519083810360208501526020611cd18351604084526040840190611c73565b920151906020818403910152611c73565b9160408101519282810360408401528351815260a0611d25611d13602087015160c0602086015260c0850190611c73565b60408701518482036040860152611c73565b94606081015160608401526001600160a01b03608082015116608084015201519160028310156108f35760809260a08493015260608101516060850152015191015290565b818110611d75575050565b5f8155600101611d6a565b9190601f8111611d8f57505050565b611bf3925f5260205f20906020601f840160051c83019310611db9575b601f0160051c0190611d6a565b9091508190611dac565b9190820180921161067557565b602090604051918183925191829101835e81015f815203902090565b8054821015611e05575f5260205f209060031b01905f90565b634e487b7160e01b5f52603260045260245ffd5b919091825192835167ffffffffffffffff811161055557611e3e816103258554611b83565b602094601f82116001146120fe57611e6f9293949582915f92611fc05750508160011b915f199060031b1c19161790565b82555b60208101516001830155604081015160028301556060810151600383015560048201608082015180519067ffffffffffffffff821161055557611eb9826103258554611b83565b602090601f831160011461209b57611ee792915f9183611fc05750508160011b915f199060031b1c19161790565b90555b6005820160a082015180519067ffffffffffffffff821161055557611f13826103258554611b83565b602090601f831160011461203857611f4192915f9183611fc05750508160011b915f199060031b1c19161790565b90555b6006820160c082015180519067ffffffffffffffff821161055557611f6d826103258554611b83565b602090601f8311600114611fcb5792611fa68360e094611bf39897946007975f92611fc05750508160011b915f199060031b1c19161790565b90555b0151151591019060ff801983541691151516179055565b015190505f806102e5565b90601f19831691845f52815f20925f5b818110612020575093611bf3979693600796936001938360e09810612008575b505050811b019055611fa9565b01515f1960f88460031b161c191690555f8080611ffb565b92936020600181928786015181550195019301611fdb565b90601f19831691845f52815f20925f5b818110612083575090846001959493921061206b575b505050811b019055611f44565b01515f1960f88460031b161c191690555f808061205e565b92936020600181928786015181550195019301612048565b90601f19831691845f52815f20925f5b8181106120e657509084600195949392106120ce575b505050811b019055611eea565b01515f1960f88460031b161c191690555f80806120c1565b929360206001819287860151815501950193016120ab565b601f19821695845f52805f20915f5b8881106121475750836001959697981061212f575b505050811b018255611e72565b01515f1960f88460031b161c191690555f8080612122565b9192602060018192868501518155019401920161210d565b9190820391821161067557565b919091828114612241576121808354611b83565b67ffffffffffffffff81116105555761219d816119b08454611b83565b5f93601f82116001146121db576121cc92939482915f926121d05750508160011b915f199060031b1c19161790565b9055565b015490505f806102e5565b601f198216905f5260205f2094835f5260205f20915f5b81811061222957509583600195969710612211575b505050811b019055565b01545f1960f88460031b161c191690555f8080612207565b9192600180602092868b0154815501940192016121f2565b509050565b6122508154611b83565b908161225a575050565b81601f5f931160011461226b575055565b8183526020832061228791601f0160051c810190600101611d6a565b8082528160208120915555565b60405180915f908054906122a782611b83565b91600181169081156122f957506001146122c4575b505003902090565b9091505f5260205f205f905b8282106122e257505081015f806122bc565b8054828601528493506020909101906001016122d0565b60ff19168552505080151502820190505f806122bc565b6001600160a01b0316805f526002602052600360405f20019182541561259d575f5b835480821015612595578260016123498488611dec565b5001541461235a5750600101612332565b90929394612429575060ff60076123718487611dec565b500154166123e5577fa1dd8bfffc07fc409283ebe17379c69ebf3009c7850e520417c606d1859533ff9260076123b88460036123af6040978a611dec565b50015497611dec565b5001600160ff198254161790555f5260026020526123d7825f20612294565b9382519182526020820152a2565b606460405162461bcd60e51b815260206004820152601160248201527f616c726561647920636f6d706c657465640000000000000000000000000000006044820152fd5b93929160026124388286611dec565b500154945f1981019081116106755761245461245c9186611dec565b509185611dec565b61156b57818103612517575b505082548015612503575f1901916124808385611dec565b93909361156b577fa1dd8bfffc07fc409283ebe17379c69ebf3009c7850e520417c606d1859533ff945f6007866124b8604098612246565b8260018201558260028201558260038201556124d660048201612246565b6124e260058201612246565b6124ee60068201612246565b0155555f5260026020526123d7825f20612294565b634e487b7160e01b5f52603160045260245ffd5b600760ff818461252a61258e968661216c565b600181015460018601556002810154600286015560038101546003860155612558600482016004870161216c565b612568600582016005870161216c565b612578600682016006870161216c565b01541691019060ff801983541691151516179055565b5f80612468565b505050505050565b60646040517f38fe1e9a00000000000000000000000000000000000000000000000000000000815260206004820152600660248201527f77697368657300000000000000000000000000000000000000000000000000006044820152fd5b1561260257565b606460405162461bcd60e51b815260206004820152601060248201527f6e6f7420656e6f756768206d6f6e6579000000000000000000000000000000006044820152fd5b3d15612670573d9061265782611b0b565b916126656040519384611ae9565b82523d5f602084013e565b606090565b1561267c57565b634e487b7160e01b5f52600160045260245ffdfea264697066735822122096c73284a6a664041a5249a72fbfe8c58182039e5fcea65d8029fc1d86fb6b1864736f6c634300081c0033",
          "opcodes": "PUSH1 0x80 CALLVALUE PUSH2 0xF4 JUMPI PUSH1 0x1F PUSH2 0x27D3 CODESIZE DUP2 SWAP1 SUB SWAP2 DUP3 ADD PUSH1 0x1F NOT AND DUP4 ADD SWAP2 PUSH1 0x1 PUSH1 0x1 PUSH1 0x40 SHL SUB DUP4 GT DUP5 DUP5 LT OR PUSH2 0xF8 JUMPI DUP1 DUP5 SWAP3 PUSH1 0x20 SWAP5 PUSH1 0x40 MSTORE DUP4 CODECOPY DUP2 ADD SUB SLT PUSH2 0xF4 JUMPI MLOAD DUP1 ISZERO DUP1 ISZERO DUP1 PUSH2 0xEA JUMPI JUMPDEST ISZERO PUSH2 0x97 JUMPI PUSH0 DUP1 SLOAD PUSH1 0x1 PUSH1 0x1 PUSH1 0xA0 SHL SUB NOT AND CALLER OR DUP2 SSTORE PUSH1 0x3 SSTORE PUSH1 0xA DUP3 DUP2 MUL SWAP3 DUP4 DIV EQ OR ISZERO PUSH2 0x83 JUMPI PUSH1 0x1 SSTORE PUSH1 0x40 MLOAD PUSH2 0x26C6 SWAP1 DUP2 PUSH2 0x10D DUP3 CODECOPY RETURN JUMPDEST PUSH4 0x4E487B71 PUSH1 0xE0 SHL PUSH0 MSTORE PUSH1 0x11 PUSH1 0x4 MSTORE PUSH1 0x24 PUSH0 REVERT JUMPDEST PUSH1 0x40 MLOAD PUSH3 0x461BCD PUSH1 0xE5 SHL DUP2 MSTORE PUSH1 0x20 PUSH1 0x4 DUP3 ADD MSTORE PUSH1 0x25 PUSH1 0x24 DUP3 ADD MSTORE PUSH32 0x4B2063616E277420626520657175616C20746F2030206F72206D6F7265207468 PUSH1 0x44 DUP3 ADD MSTORE PUSH5 0x616E20313 PUSH1 0xDC SHL PUSH1 0x64 DUP3 ADD MSTORE PUSH1 0x84 SWAP1 REVERT JUMPDEST POP PUSH1 0xA DUP3 LT PUSH2 0x49 JUMP JUMPDEST PUSH0 DUP1 REVERT JUMPDEST PUSH4 0x4E487B71 PUSH1 0xE0 SHL PUSH0 MSTORE PUSH1 0x41 PUSH1 0x4 MSTORE PUSH1 0x24 PUSH0 REVERT INVALID PUSH1 0x80 PUSH1 0x40 MSTORE PUSH1 0x4 CALLDATASIZE LT ISZERO PUSH2 0x11 JUMPI PUSH0 DUP1 REVERT JUMPDEST PUSH0 CALLDATALOAD PUSH1 0xE0 SHR DUP1 PUSH4 0x5353A2D8 EQ PUSH2 0x194A JUMPI DUP1 PUSH4 0x54845A47 EQ PUSH2 0x192B JUMPI DUP1 PUSH4 0x591794A5 EQ PUSH2 0x165A JUMPI DUP1 PUSH4 0x708E8D6D EQ PUSH2 0x13A1 JUMPI DUP1 PUSH4 0x8DA5CB5B EQ PUSH2 0x137C JUMPI DUP1 PUSH4 0xA87430BA EQ PUSH2 0xF00 JUMPI DUP1 PUSH4 0xA932492F EQ PUSH2 0xEE3 JUMPI DUP1 PUSH4 0xB3767E58 EQ PUSH2 0xEB1 JUMPI DUP1 PUSH4 0xBA73B818 EQ PUSH2 0xD0F JUMPI DUP1 PUSH4 0xBEDCF003 EQ PUSH2 0xCF2 JUMPI DUP1 PUSH4 0xE7A8C912 EQ PUSH2 0x19B JUMPI DUP1 PUSH4 0xECED5526 EQ PUSH2 0x17F JUMPI PUSH4 0xF69E6D47 EQ PUSH2 0xA8 JUMPI PUSH0 DUP1 REVERT JUMPDEST CALLVALUE PUSH2 0x17B JUMPI PUSH1 0x20 CALLDATASIZE PUSH1 0x3 NOT ADD SLT PUSH2 0x17B JUMPI PUSH1 0x4 CALLDATALOAD PUSH1 0x1 PUSH1 0x1 PUSH1 0xA0 SHL SUB PUSH0 SLOAD AND CALLER SUB PUSH2 0x137 JUMPI PUSH5 0xE8D4A51000 DUP2 LT PUSH2 0x10F JUMPI PUSH0 DUP1 DUP1 DUP1 DUP5 PUSH2 0xF9 PUSH2 0x10D SWAP7 PUSH1 0x3 SLOAD PUSH2 0xF4 DUP3 DUP3 LT ISZERO PUSH2 0x25FB JUMP JUMPDEST PUSH2 0x215F JUMP JUMPDEST PUSH1 0x3 SSTORE CALLER GAS CALL PUSH2 0x107 PUSH2 0x2646 JUMP JUMPDEST POP PUSH2 0x2675 JUMP JUMPDEST STOP JUMPDEST PUSH32 0xE589BCC800000000000000000000000000000000000000000000000000000000 PUSH0 MSTORE PUSH1 0x4 PUSH0 REVERT JUMPDEST PUSH1 0x64 PUSH1 0x40 MLOAD PUSH3 0x461BCD PUSH1 0xE5 SHL DUP2 MSTORE PUSH1 0x20 PUSH1 0x4 DUP3 ADD MSTORE PUSH1 0x10 PUSH1 0x24 DUP3 ADD MSTORE PUSH32 0x75206D757374206265206F776E65722100000000000000000000000000000000 PUSH1 0x44 DUP3 ADD MSTORE REVERT JUMPDEST PUSH0 DUP1 REVERT JUMPDEST CALLVALUE PUSH2 0x17B JUMPI PUSH0 CALLDATASIZE PUSH1 0x3 NOT ADD SLT PUSH2 0x17B JUMPI PUSH1 0x20 PUSH1 0x40 MLOAD PUSH2 0x3E8 DUP2 MSTORE RETURN JUMPDEST CALLVALUE PUSH2 0x17B JUMPI PUSH1 0x60 CALLDATASIZE PUSH1 0x3 NOT ADD SLT PUSH2 0x17B JUMPI PUSH1 0x4 CALLDATALOAD PUSH8 0xFFFFFFFFFFFFFFFF DUP2 GT PUSH2 0x17B JUMPI PUSH2 0x1CC SWAP1 CALLDATASIZE SWAP1 PUSH1 0x4 ADD PUSH2 0x1B27 JUMP JUMPDEST PUSH1 0x24 CALLDATALOAD PUSH8 0xFFFFFFFFFFFFFFFF DUP2 GT PUSH2 0x17B JUMPI PUSH2 0x1EC SWAP1 CALLDATASIZE SWAP1 PUSH1 0x4 ADD PUSH2 0x1B27 JUMP JUMPDEST SWAP1 PUSH1 0x44 CALLDATALOAD PUSH8 0xFFFFFFFFFFFFFFFF DUP2 GT PUSH2 0x17B JUMPI CALLDATASIZE PUSH1 0x23 DUP3 ADD SLT ISZERO PUSH2 0x17B JUMPI DUP1 PUSH1 0x4 ADD CALLDATALOAD PUSH2 0x218 DUP2 PUSH2 0x1C5B JUMP JUMPDEST SWAP2 PUSH2 0x226 PUSH1 0x40 MLOAD SWAP4 DUP5 PUSH2 0x1AE9 JUMP JUMPDEST DUP2 DUP4 MSTORE PUSH1 0x24 PUSH1 0x20 DUP5 ADD SWAP3 PUSH1 0x5 SHL DUP3 ADD ADD SWAP1 CALLDATASIZE DUP3 GT PUSH2 0x17B JUMPI PUSH1 0x24 DUP2 ADD SWAP3 JUMPDEST DUP3 DUP5 LT PUSH2 0xCC2 JUMPI POP POP POP POP DUP2 MLOAD ISZERO PUSH2 0xC7E JUMPI PUSH1 0x40 MLOAD SWAP2 PUSH2 0x263 DUP4 PUSH2 0x1AB0 JUMP JUMPDEST DUP4 DUP4 MSTORE PUSH1 0x20 DUP4 ADD MSTORE PUSH1 0x60 PUSH1 0x40 DUP4 ADD MSTORE PUSH1 0x60 DUP1 DUP4 ADD MSTORE PUSH1 0x80 DUP3 ADD MSTORE PUSH1 0x40 MLOAD SWAP1 PUSH2 0x28A DUP3 PUSH2 0x1A78 JUMP JUMPDEST DUP2 MSTORE PUSH1 0x20 DUP2 ADD PUSH0 DUP2 MSTORE CALLER PUSH0 MSTORE PUSH1 0x2 PUSH1 0x20 MSTORE PUSH1 0x40 PUSH0 KECCAK256 SWAP1 DUP3 MLOAD DUP1 MLOAD DUP1 MLOAD SWAP1 PUSH8 0xFFFFFFFFFFFFFFFF DUP3 GT PUSH2 0x555 JUMPI PUSH2 0x2CA DUP3 PUSH2 0x2C4 DUP8 SLOAD PUSH2 0x1B83 JUMP JUMPDEST DUP8 PUSH2 0x1D80 JUMP JUMPDEST PUSH1 0x20 SWAP1 PUSH1 0x1F DUP4 GT PUSH1 0x1 EQ PUSH2 0xC1B JUMPI PUSH2 0x2F9 SWAP3 SWAP2 PUSH0 SWAP2 DUP4 PUSH2 0xC10 JUMPI JUMPDEST POP POP DUP2 PUSH1 0x1 SHL SWAP2 PUSH0 NOT SWAP1 PUSH1 0x3 SHL SHR NOT AND OR SWAP1 JUMP JUMPDEST DUP4 SSTORE JUMPDEST PUSH1 0x1 DUP4 ADD PUSH1 0x20 DUP3 ADD MLOAD DUP1 MLOAD SWAP1 PUSH8 0xFFFFFFFFFFFFFFFF DUP3 GT PUSH2 0x555 JUMPI PUSH2 0x32B DUP3 PUSH2 0x325 DUP6 SLOAD PUSH2 0x1B83 JUMP JUMPDEST DUP6 PUSH2 0x1D80 JUMP JUMPDEST PUSH1 0x20 SWAP1 PUSH1 0x1F DUP4 GT PUSH1 0x1 EQ PUSH2 0xBAD JUMPI PUSH2 0x359 SWAP3 SWAP2 PUSH0 SWAP2 DUP4 PUSH2 0xBA2 JUMPI POP POP DUP2 PUSH1 0x1 SHL SWAP2 PUSH0 NOT SWAP1 PUSH1 0x3 SHL SHR NOT AND OR SWAP1 JUMP JUMPDEST SWAP1 SSTORE JUMPDEST PUSH1 0x2 DUP4 ADD PUSH1 0x40 DUP3 ADD MLOAD DUP1 MLOAD SWAP1 PUSH9 0x10000000000000000 DUP3 GT PUSH2 0x555 JUMPI DUP3 SLOAD DUP3 DUP5 SSTORE DUP1 DUP4 LT PUSH2 0xB0C JUMPI JUMPDEST POP PUSH1 0x20 ADD SWAP2 PUSH0 MSTORE PUSH1 0x20 PUSH0 KECCAK256 SWAP2 PUSH0 SWAP1 JUMPDEST DUP3 DUP3 LT PUSH2 0x689 JUMPI POP POP POP POP PUSH1 0x3 DUP4 ADD PUSH1 0x60 DUP3 ADD MLOAD SWAP1 DUP2 MLOAD SWAP2 PUSH9 0x10000000000000000 DUP4 GT PUSH2 0x555 JUMPI DUP2 SLOAD DUP4 DUP4 SSTORE DUP1 DUP5 LT PUSH2 0x5B4 JUMPI JUMPDEST POP PUSH1 0x20 ADD SWAP1 PUSH0 MSTORE PUSH1 0x20 PUSH0 KECCAK256 PUSH0 SWAP2 JUMPDEST DUP4 DUP4 LT PUSH2 0x596 JUMPI POP POP POP POP PUSH1 0x80 ADD MLOAD DUP1 MLOAD PUSH1 0x4 DUP5 ADD SWAP2 PUSH9 0x10000000000000000 DUP3 GT PUSH2 0x555 JUMPI DUP3 SLOAD DUP3 DUP5 SSTORE DUP1 DUP4 LT PUSH2 0x569 JUMPI JUMPDEST POP PUSH1 0x20 ADD SWAP2 PUSH0 MSTORE PUSH1 0x20 PUSH0 KECCAK256 SWAP2 PUSH0 SWAP1 JUMPDEST DUP3 DUP3 LT PUSH2 0x474 JUMPI DUP5 MLOAD PUSH1 0x5 DUP8 ADD SSTORE DUP7 MLOAD PUSH1 0x20 ADD MLOAD PUSH32 0xF32A9EE0D17D25C086BBE1FD7492121A0D326DB5884D4B48A2401572DB4844FB PUSH2 0x46F PUSH2 0x45A DUP12 PUSH2 0x1DD0 JUMP JUMPDEST SWAP3 PUSH1 0x40 MLOAD SWAP2 DUP3 SWAP2 PUSH1 0x20 DUP4 MSTORE PUSH1 0x20 DUP4 ADD SWAP1 PUSH2 0x1C73 JUMP JUMPDEST SUB SWAP1 LOG2 STOP JUMPDEST DUP1 MLOAD DUP1 MLOAD SWAP1 PUSH8 0xFFFFFFFFFFFFFFFF DUP3 GT PUSH2 0x555 JUMPI PUSH2 0x49C DUP3 PUSH2 0x496 DUP9 SLOAD PUSH2 0x1B83 JUMP JUMPDEST DUP9 PUSH2 0x1D80 JUMP JUMPDEST PUSH1 0x20 SWAP1 PUSH1 0x1F DUP4 GT PUSH1 0x1 EQ PUSH2 0x4EC JUMPI SWAP3 PUSH2 0x4D2 DUP4 PUSH1 0x1 SWAP6 SWAP5 PUSH1 0x20 SWAP5 DUP8 SWAP7 PUSH0 SWAP3 PUSH2 0x4E1 JUMPI POP POP DUP2 PUSH1 0x1 SHL SWAP2 PUSH0 NOT SWAP1 PUSH1 0x3 SHL SHR NOT AND OR SWAP1 JUMP JUMPDEST DUP8 SSTORE JUMPDEST ADD SWAP5 ADD SWAP2 ADD SWAP1 SWAP3 PUSH2 0x419 JUMP JUMPDEST ADD MLOAD SWAP1 POP DUP15 DUP1 PUSH2 0x2E5 JUMP JUMPDEST SWAP1 PUSH1 0x1F NOT DUP4 AND SWAP2 DUP8 PUSH0 MSTORE DUP2 PUSH0 KECCAK256 SWAP3 PUSH0 JUMPDEST DUP2 DUP2 LT PUSH2 0x53D JUMPI POP SWAP4 PUSH1 0x20 SWAP4 PUSH1 0x1 SWAP7 SWAP4 DUP8 SWAP7 SWAP4 DUP4 DUP9 SWAP6 LT PUSH2 0x525 JUMPI JUMPDEST POP POP POP DUP2 SHL ADD DUP8 SSTORE PUSH2 0x4D5 JUMP JUMPDEST ADD MLOAD PUSH0 NOT PUSH1 0xF8 DUP5 PUSH1 0x3 SHL AND SHR NOT AND SWAP1 SSTORE DUP14 DUP1 DUP1 PUSH2 0x518 JUMP JUMPDEST SWAP3 SWAP4 PUSH1 0x20 PUSH1 0x1 DUP2 SWAP3 DUP8 DUP7 ADD MLOAD DUP2 SSTORE ADD SWAP6 ADD SWAP4 ADD PUSH2 0x4FC JUMP JUMPDEST PUSH4 0x4E487B71 PUSH1 0xE0 SHL PUSH0 MSTORE PUSH1 0x41 PUSH1 0x4 MSTORE PUSH1 0x24 PUSH0 REVERT JUMPDEST DUP4 PUSH0 MSTORE DUP3 PUSH1 0x20 PUSH0 KECCAK256 SWAP2 DUP3 ADD SWAP2 ADD JUMPDEST DUP2 DUP2 LT PUSH2 0x584 JUMPI POP PUSH2 0x40A JUMP JUMPDEST DUP1 PUSH2 0x590 PUSH1 0x1 SWAP3 PUSH2 0x2246 JUMP JUMPDEST ADD PUSH2 0x577 JUMP JUMPDEST PUSH1 0x8 PUSH1 0x20 DUP3 PUSH2 0x5A8 PUSH1 0x1 SWAP5 MLOAD DUP7 PUSH2 0x1E19 JUMP JUMPDEST ADD SWAP3 ADD SWAP3 ADD SWAP2 SWAP1 PUSH2 0x3D7 JUMP JUMPDEST PUSH32 0x1FFFFFFFFFFFFFFFFFFFFFFFFFFFFFFFFFFFFFFFFFFFFFFFFFFFFFFFFFFFFFFF DUP2 AND DUP2 SUB PUSH2 0x675 JUMPI PUSH32 0x1FFFFFFFFFFFFFFFFFFFFFFFFFFFFFFFFFFFFFFFFFFFFFFFFFFFFFFFFFFFFFFF DUP5 AND DUP5 SUB PUSH2 0x675 JUMPI DUP3 PUSH0 MSTORE PUSH1 0x20 PUSH0 KECCAK256 SWAP1 PUSH1 0x3 SHL DUP2 ADD SWAP1 DUP5 PUSH1 0x3 SHL ADD JUMPDEST DUP2 DUP2 LT PUSH2 0x627 JUMPI POP PUSH2 0x3C9 JUMP JUMPDEST PUSH1 0x8 SWAP1 PUSH2 0x633 DUP2 PUSH2 0x2246 JUMP JUMPDEST PUSH0 PUSH1 0x1 DUP3 ADD SSTORE PUSH0 PUSH1 0x2 DUP3 ADD SSTORE PUSH0 PUSH1 0x3 DUP3 ADD SSTORE PUSH2 0x651 PUSH1 0x4 DUP3 ADD PUSH2 0x2246 JUMP JUMPDEST PUSH2 0x65D PUSH1 0x5 DUP3 ADD PUSH2 0x2246 JUMP JUMPDEST PUSH2 0x669 PUSH1 0x6 DUP3 ADD PUSH2 0x2246 JUMP JUMPDEST PUSH0 PUSH1 0x7 DUP3 ADD SSTORE ADD PUSH2 0x61A JUMP JUMPDEST PUSH4 0x4E487B71 PUSH1 0xE0 SHL PUSH0 MSTORE PUSH1 0x11 PUSH1 0x4 MSTORE PUSH1 0x24 PUSH0 REVERT JUMPDEST DUP1 MLOAD DUP1 MLOAD DUP1 MLOAD SWAP1 PUSH8 0xFFFFFFFFFFFFFFFF DUP3 GT PUSH2 0x555 JUMPI PUSH2 0x6B3 DUP3 PUSH2 0x6AD DUP10 SLOAD PUSH2 0x1B83 JUMP JUMPDEST DUP10 PUSH2 0x1D80 JUMP JUMPDEST PUSH1 0x20 SWAP1 PUSH1 0x1F DUP4 GT PUSH1 0x1 EQ PUSH2 0xAA9 JUMPI PUSH2 0x6E1 SWAP3 SWAP2 PUSH0 SWAP2 DUP4 PUSH2 0xA9E JUMPI POP POP DUP2 PUSH1 0x1 SHL SWAP2 PUSH0 NOT SWAP1 PUSH1 0x3 SHL SHR NOT AND OR SWAP1 JUMP JUMPDEST DUP6 SSTORE JUMPDEST PUSH1 0x20 DUP2 ADD MLOAD DUP1 MLOAD DUP1 MLOAD PUSH1 0x1 DUP9 ADD SWAP2 PUSH8 0xFFFFFFFFFFFFFFFF DUP3 GT PUSH2 0x555 JUMPI PUSH2 0x70F DUP3 PUSH2 0x325 DUP6 SLOAD PUSH2 0x1B83 JUMP JUMPDEST PUSH1 0x20 SWAP1 PUSH1 0x1F DUP4 GT PUSH1 0x1 EQ PUSH2 0xA3B JUMPI PUSH2 0x73D SWAP3 SWAP2 PUSH0 SWAP2 DUP4 PUSH2 0x907 JUMPI POP POP DUP2 PUSH1 0x1 SHL SWAP2 PUSH0 NOT SWAP1 PUSH1 0x3 SHL SHR NOT AND OR SWAP1 JUMP JUMPDEST SWAP1 SSTORE JUMPDEST PUSH1 0x20 ADD MLOAD DUP1 MLOAD PUSH1 0x2 DUP8 ADD SWAP2 PUSH8 0xFFFFFFFFFFFFFFFF DUP3 GT PUSH2 0x555 JUMPI PUSH2 0x768 DUP3 PUSH2 0x325 DUP6 SLOAD PUSH2 0x1B83 JUMP JUMPDEST PUSH1 0x20 SWAP1 PUSH1 0x1F DUP4 GT PUSH1 0x1 EQ PUSH2 0x9D8 JUMPI PUSH2 0x796 SWAP3 SWAP2 PUSH0 SWAP2 DUP4 PUSH2 0x4E1 JUMPI POP POP DUP2 PUSH1 0x1 SHL SWAP2 PUSH0 NOT SWAP1 PUSH1 0x3 SHL SHR NOT AND OR SWAP1 JUMP JUMPDEST SWAP1 SSTORE JUMPDEST PUSH1 0x40 DUP2 ADD MLOAD SWAP1 DUP2 MLOAD PUSH1 0x3 DUP8 ADD SSTORE PUSH1 0x4 DUP7 ADD PUSH1 0x20 DUP4 ADD MLOAD DUP1 MLOAD SWAP1 PUSH8 0xFFFFFFFFFFFFFFFF DUP3 GT PUSH2 0x555 JUMPI PUSH2 0x7CF DUP3 PUSH2 0x325 DUP6 SLOAD PUSH2 0x1B83 JUMP JUMPDEST PUSH1 0x20 SWAP1 PUSH1 0x1F DUP4 GT PUSH1 0x1 EQ PUSH2 0x975 JUMPI PUSH2 0x7FD SWAP3 SWAP2 PUSH0 SWAP2 DUP4 PUSH2 0x907 JUMPI POP POP DUP2 PUSH1 0x1 SHL SWAP2 PUSH0 NOT SWAP1 PUSH1 0x3 SHL SHR NOT AND OR SWAP1 JUMP JUMPDEST SWAP1 SSTORE JUMPDEST PUSH1 0x5 DUP7 ADD PUSH1 0x40 DUP4 ADD MLOAD DUP1 MLOAD SWAP1 PUSH8 0xFFFFFFFFFFFFFFFF DUP3 GT PUSH2 0x555 JUMPI PUSH2 0x829 DUP3 PUSH2 0x325 DUP6 SLOAD PUSH2 0x1B83 JUMP JUMPDEST PUSH1 0x20 SWAP1 PUSH1 0x1F DUP4 GT PUSH1 0x1 EQ PUSH2 0x912 JUMPI PUSH2 0x857 SWAP3 SWAP2 PUSH0 SWAP2 DUP4 PUSH2 0x907 JUMPI POP POP DUP2 PUSH1 0x1 SHL SWAP2 PUSH0 NOT SWAP1 PUSH1 0x3 SHL SHR NOT AND OR SWAP1 JUMP JUMPDEST SWAP1 SSTORE JUMPDEST PUSH1 0x60 DUP3 ADD MLOAD PUSH1 0x6 DUP8 ADD SSTORE PUSH1 0x7 DUP7 ADD SWAP3 PUSH1 0x1 PUSH1 0x1 PUSH1 0xA0 SHL SUB PUSH1 0x80 DUP5 ADD MLOAD AND SWAP2 PUSH1 0xA0 DUP6 SLOAD SWAP5 ADD MLOAD SWAP1 PUSH1 0x2 DUP3 LT ISZERO PUSH2 0x8F3 JUMPI PUSH1 0x1 SWAP6 PUSH1 0xA SWAP6 PUSH1 0x20 SWAP6 PUSH32 0xFFFFFFFFFFFFFFFFFFFFFF000000000000000000000000000000000000000000 PUSH21 0xFF0000000000000000000000000000000000000000 PUSH1 0x80 SWAP7 PUSH1 0xA0 SHL AND SWAP3 AND OR OR SWAP1 SSTORE PUSH1 0x60 DUP2 ADD MLOAD PUSH1 0x8 DUP11 ADD SSTORE ADD MLOAD PUSH1 0x9 DUP9 ADD SSTORE ADD SWAP5 ADD SWAP2 ADD SWAP1 SWAP3 PUSH2 0x394 JUMP JUMPDEST PUSH4 0x4E487B71 PUSH1 0xE0 SHL PUSH0 MSTORE PUSH1 0x21 PUSH1 0x4 MSTORE PUSH1 0x24 PUSH0 REVERT JUMPDEST ADD MLOAD SWAP1 POP DUP16 DUP1 PUSH2 0x2E5 JUMP JUMPDEST SWAP1 PUSH1 0x1F NOT DUP4 AND SWAP2 DUP5 PUSH0 MSTORE DUP2 PUSH0 KECCAK256 SWAP3 PUSH0 JUMPDEST DUP2 DUP2 LT PUSH2 0x95D JUMPI POP SWAP1 DUP5 PUSH1 0x1 SWAP6 SWAP5 SWAP4 SWAP3 LT PUSH2 0x945 JUMPI JUMPDEST POP POP POP DUP2 SHL ADD SWAP1 SSTORE PUSH2 0x85A JUMP JUMPDEST ADD MLOAD PUSH0 NOT PUSH1 0xF8 DUP5 PUSH1 0x3 SHL AND SHR NOT AND SWAP1 SSTORE DUP15 DUP1 DUP1 PUSH2 0x938 JUMP JUMPDEST SWAP3 SWAP4 PUSH1 0x20 PUSH1 0x1 DUP2 SWAP3 DUP8 DUP7 ADD MLOAD DUP2 SSTORE ADD SWAP6 ADD SWAP4 ADD PUSH2 0x922 JUMP JUMPDEST SWAP1 PUSH1 0x1F NOT DUP4 AND SWAP2 DUP5 PUSH0 MSTORE DUP2 PUSH0 KECCAK256 SWAP3 PUSH0 JUMPDEST DUP2 DUP2 LT PUSH2 0x9C0 JUMPI POP SWAP1 DUP5 PUSH1 0x1 SWAP6 SWAP5 SWAP4 SWAP3 LT PUSH2 0x9A8 JUMPI JUMPDEST POP POP POP DUP2 SHL ADD SWAP1 SSTORE PUSH2 0x800 JUMP JUMPDEST ADD MLOAD PUSH0 NOT PUSH1 0xF8 DUP5 PUSH1 0x3 SHL AND SHR NOT AND SWAP1 SSTORE DUP15 DUP1 DUP1 PUSH2 0x99B JUMP JUMPDEST SWAP3 SWAP4 PUSH1 0x20 PUSH1 0x1 DUP2 SWAP3 DUP8 DUP7 ADD MLOAD DUP2 SSTORE ADD SWAP6 ADD SWAP4 ADD PUSH2 0x985 JUMP JUMPDEST SWAP1 PUSH1 0x1F NOT DUP4 AND SWAP2 DUP5 PUSH0 MSTORE DUP2 PUSH0 KECCAK256 SWAP3 PUSH0 JUMPDEST DUP2 DUP2 LT PUSH2 0xA23 JUMPI POP SWAP1 DUP5 PUSH1 0x1 SWAP6 SWAP5 SWAP4 SWAP3 LT PUSH2 0xA0B JUMPI JUMPDEST POP POP POP DUP2 SHL ADD SWAP1 SSTORE PUSH2 0x799 JUMP JUMPDEST ADD MLOAD PUSH0 NOT PUSH1 0xF8 DUP5 PUSH1 0x3 SHL AND SHR NOT AND SWAP1 SSTORE DUP14 DUP1 DUP1 PUSH2 0x9FE JUMP JUMPDEST SWAP3 SWAP4 PUSH1 0x20 PUSH1 0x1 DUP2 SWAP3 DUP8 DUP7 ADD MLOAD DUP2 SSTORE ADD SWAP6 ADD SWAP4 ADD PUSH2 0x9E8 JUMP JUMPDEST SWAP1 PUSH1 0x1F NOT DUP4 AND SWAP2 DUP5 PUSH0 MSTORE DUP2 PUSH0 KECCAK256 SWAP3 PUSH0 JUMPDEST DUP2 DUP2 LT PUSH2 0xA86 JUMPI POP SWAP1 DUP5 PUSH1 0x1 SWAP6 SWAP5 SWAP4 SWAP3 LT PUSH2 0xA6E JUMPI JUMPDEST POP POP POP DUP2 SHL ADD SWAP1 SSTORE PUSH2 0x740 JUMP JUMPDEST ADD MLOAD PUSH0 NOT PUSH1 0xF8 DUP5 PUSH1 0x3 SHL AND SHR NOT AND SWAP1 SSTORE DUP15 DUP1 DUP1 PUSH2 0xA61 JUMP JUMPDEST SWAP3 SWAP4 PUSH1 0x20 PUSH1 0x1 DUP2 SWAP3 DUP8 DUP7 ADD MLOAD DUP2 SSTORE ADD SWAP6 ADD SWAP4 ADD PUSH2 0xA4B JUMP JUMPDEST ADD MLOAD SWAP1 POP DUP14 DUP1 PUSH2 0x2E5 JUMP JUMPDEST SWAP1 PUSH1 0x1F NOT DUP4 AND SWAP2 DUP9 PUSH0 MSTORE DUP2 PUSH0 KECCAK256 SWAP3 PUSH0 JUMPDEST DUP2 DUP2 LT PUSH2 0xAF4 JUMPI POP SWAP1 DUP5 PUSH1 0x1 SWAP6 SWAP5 SWAP4 SWAP3 LT PUSH2 0xADC JUMPI JUMPDEST POP POP POP DUP2 SHL ADD DUP6 SSTORE PUSH2 0x6E4 JUMP JUMPDEST ADD MLOAD PUSH0 NOT PUSH1 0xF8 DUP5 PUSH1 0x3 SHL AND SHR NOT AND SWAP1 SSTORE DUP13 DUP1 DUP1 PUSH2 0xACF JUMP JUMPDEST SWAP3 SWAP4 PUSH1 0x20 PUSH1 0x1 DUP2 SWAP3 DUP8 DUP7 ADD MLOAD DUP2 SSTORE ADD SWAP6 ADD SWAP4 ADD PUSH2 0xAB9 JUMP JUMPDEST DUP1 PUSH1 0xA MUL SWAP1 PUSH1 0xA DUP3 DIV SUB PUSH2 0x675 JUMPI DUP3 PUSH1 0xA MUL PUSH1 0xA DUP2 DIV DUP5 SUB PUSH2 0x675 JUMPI DUP5 PUSH0 MSTORE PUSH1 0x20 PUSH0 KECCAK256 SWAP2 DUP3 ADD SWAP2 ADD JUMPDEST DUP2 DUP2 LT PUSH2 0xB42 JUMPI POP PUSH2 0x385 JUMP JUMPDEST DUP1 PUSH2 0xB4E PUSH1 0xA SWAP3 PUSH2 0x2246 JUMP JUMPDEST PUSH2 0xB5A PUSH1 0x1 DUP3 ADD PUSH2 0x2246 JUMP JUMPDEST PUSH2 0xB66 PUSH1 0x2 DUP3 ADD PUSH2 0x2246 JUMP JUMPDEST PUSH0 PUSH1 0x3 DUP3 ADD SSTORE PUSH2 0xB78 PUSH1 0x4 DUP3 ADD PUSH2 0x2246 JUMP JUMPDEST PUSH2 0xB84 PUSH1 0x5 DUP3 ADD PUSH2 0x2246 JUMP JUMPDEST PUSH0 PUSH1 0x6 DUP3 ADD SSTORE PUSH0 PUSH1 0x7 DUP3 ADD SSTORE PUSH0 PUSH1 0x8 DUP3 ADD SSTORE PUSH0 PUSH1 0x9 DUP3 ADD SSTORE ADD PUSH2 0xB35 JUMP JUMPDEST ADD MLOAD SWAP1 POP DUP10 DUP1 PUSH2 0x2E5 JUMP JUMPDEST SWAP1 PUSH1 0x1F NOT DUP4 AND SWAP2 DUP5 PUSH0 MSTORE DUP2 PUSH0 KECCAK256 SWAP3 PUSH0 JUMPDEST DUP2 DUP2 LT PUSH2 0xBF8 JUMPI POP SWAP1 DUP5 PUSH1 0x1 SWAP6 SWAP5 SWAP4 SWAP3 LT PUSH2 0xBE0 JUMPI JUMPDEST POP POP POP DUP2 SHL ADD SWAP1 SSTORE PUSH2 0x35C JUMP JUMPDEST ADD MLOAD PUSH0 NOT PUSH1 0xF8 DUP5 PUSH1 0x3 SHL AND SHR NOT AND SWAP1 SSTORE DUP9 DUP1 DUP1 PUSH2 0xBD3 JUMP JUMPDEST SWAP3 SWAP4 PUSH1 0x20 PUSH1 0x1 DUP2 SWAP3 DUP8 DUP7 ADD MLOAD DUP2 SSTORE ADD SWAP6 ADD SWAP4 ADD PUSH2 0xBBD JUMP JUMPDEST ADD MLOAD SWAP1 POP DUP9 DUP1 PUSH2 0x2E5 JUMP JUMPDEST SWAP1 PUSH1 0x1F NOT DUP4 AND SWAP2 DUP7 PUSH0 MSTORE DUP2 PUSH0 KECCAK256 SWAP3 PUSH0 JUMPDEST DUP2 DUP2 LT PUSH2 0xC66 JUMPI POP SWAP1 DUP5 PUSH1 0x1 SWAP6 SWAP5 SWAP4 SWAP3 LT PUSH2 0xC4E JUMPI JUMPDEST POP POP POP DUP2 SHL ADD DUP4 SSTORE PUSH2 0x2FC JUMP JUMPDEST ADD MLOAD PUSH0 NOT PUSH1 0xF8 DUP5 PUSH1 0x3 SHL AND SHR NOT AND SWAP1 SSTORE DUP8 DUP1 DUP1 PUSH2 0xC41 JUMP JUMPDEST SWAP3 SWAP4 PUSH1 0x20 PUSH1 0x1 DUP2 SWAP3 DUP8 DUP7 ADD MLOAD DUP2 SSTORE ADD SWAP6 ADD SWAP4 ADD PUSH2 0xC2B JUMP JUMPDEST PUSH1 0x64 PUSH1 0x40 MLOAD PUSH3 0x461BCD PUSH1 0xE5 SHL DUP2 MSTORE PUSH1 0x20 PUSH1 0x4 DUP3 ADD MSTORE PUSH1 0x13 PUSH1 0x24 DUP3 ADD MSTORE PUSH32 0x6E616D652063616E277420626520656D70747900000000000000000000000000 PUSH1 0x44 DUP3 ADD MSTORE REVERT JUMPDEST DUP4 CALLDATALOAD PUSH8 0xFFFFFFFFFFFFFFFF DUP2 GT PUSH2 0x17B JUMPI PUSH1 0x20 SWAP2 PUSH2 0xCE7 DUP4 SWAP3 PUSH1 0x24 CALLDATASIZE SWAP2 DUP8 ADD ADD PUSH2 0x1B27 JUMP JUMPDEST DUP2 MSTORE ADD SWAP4 ADD SWAP3 PUSH2 0x244 JUMP JUMPDEST CALLVALUE PUSH2 0x17B JUMPI PUSH0 CALLDATASIZE PUSH1 0x3 NOT ADD SLT PUSH2 0x17B JUMPI PUSH1 0x20 PUSH1 0x3 SLOAD PUSH1 0x40 MLOAD SWAP1 DUP2 MSTORE RETURN JUMPDEST CALLVALUE PUSH2 0x17B JUMPI PUSH1 0x60 CALLDATASIZE PUSH1 0x3 NOT ADD SLT PUSH2 0x17B JUMPI PUSH1 0x4 CALLDATALOAD PUSH8 0xFFFFFFFFFFFFFFFF DUP2 GT PUSH2 0x17B JUMPI PUSH2 0xD40 SWAP1 CALLDATASIZE SWAP1 PUSH1 0x4 ADD PUSH2 0x1B27 JUMP JUMPDEST PUSH1 0x24 CALLDATALOAD PUSH8 0xFFFFFFFFFFFFFFFF DUP2 GT PUSH2 0x17B JUMPI PUSH2 0xD60 SWAP1 CALLDATASIZE SWAP1 PUSH1 0x4 ADD PUSH2 0x1B27 JUMP JUMPDEST PUSH1 0x44 CALLDATALOAD SWAP1 CALLER PUSH0 MSTORE PUSH1 0x2 PUSH1 0x20 MSTORE PUSH2 0xD7F DUP3 PUSH1 0x5 PUSH1 0x40 PUSH0 KECCAK256 ADD SLOAD LT ISZERO PUSH2 0x25FB JUMP JUMPDEST CALLER PUSH0 MSTORE PUSH1 0x2 PUSH1 0x20 MSTORE PUSH1 0x5 PUSH1 0x40 PUSH0 KECCAK256 ADD PUSH2 0xD99 DUP4 DUP3 SLOAD PUSH2 0x215F JUMP JUMPDEST SWAP1 SSTORE PUSH2 0xDAE PUSH0 DUP1 DUP1 DUP1 DUP7 CALLER GAS CALL PUSH2 0x107 PUSH2 0x2646 JUMP JUMPDEST CALLER PUSH0 MSTORE PUSH1 0x2 PUSH1 0x20 MSTORE PUSH2 0xDD7 PUSH1 0x40 PUSH0 KECCAK256 PUSH1 0x40 MLOAD SWAP3 PUSH2 0xDCA DUP5 PUSH2 0x1A94 JUMP JUMPDEST TIMESTAMP DUP5 MSTORE PUSH1 0x20 DUP5 ADD MSTORE PUSH2 0x1BBB JUMP JUMPDEST PUSH1 0x40 DUP3 ADD MSTORE PUSH0 PUSH1 0x60 DUP3 ADD MSTORE CALLER PUSH1 0x80 DUP3 ADD MSTORE PUSH1 0x1 PUSH1 0xA0 DUP3 ADD MSTORE CALLER PUSH0 MSTORE PUSH1 0x2 PUSH1 0x20 MSTORE PUSH1 0x1 PUSH1 0x40 PUSH0 KECCAK256 ADD SWAP2 PUSH2 0xE14 PUSH1 0x40 MLOAD SWAP4 PUSH2 0xE0F DUP6 PUSH2 0x1A78 JUMP JUMPDEST PUSH2 0x1BBB JUMP JUMPDEST DUP4 MSTORE PUSH1 0x20 SWAP3 PUSH1 0x40 MLOAD PUSH2 0xE26 DUP6 DUP3 PUSH2 0x1AE9 JUMP JUMPDEST PUSH0 DUP2 MSTORE DUP5 DUP3 ADD MSTORE PUSH1 0x40 MLOAD SWAP5 PUSH2 0xE3A DUP7 PUSH2 0x1AB0 JUMP JUMPDEST DUP6 MSTORE DUP4 DUP6 ADD MSTORE PUSH1 0x40 DUP5 ADD SWAP2 DUP3 MSTORE DUP1 PUSH1 0x60 DUP6 ADD MSTORE PUSH1 0x80 DUP5 ADD MSTORE CALLER PUSH0 MSTORE PUSH1 0x2 DUP3 MSTORE PUSH1 0xA0 PUSH1 0x40 PUSH0 KECCAK256 SWAP2 MLOAD ADD MLOAD SWAP3 PUSH1 0x2 DUP5 LT ISZERO PUSH2 0x8F3 JUMPI PUSH2 0xE97 PUSH32 0x8641214593227D3404460886F37864B6475408B50D7E677738E122AAAE424BDE SWAP3 PUSH2 0x2294 JUMP JUMPDEST SWAP3 PUSH2 0xEAC PUSH1 0x40 MLOAD SWAP3 DUP3 DUP5 SWAP4 DUP5 MSTORE DUP4 ADD SWAP1 PUSH2 0x1C97 JUMP JUMPDEST SUB SWAP1 LOG3 STOP JUMPDEST CALLVALUE PUSH2 0x17B JUMPI PUSH1 0x60 CALLDATASIZE PUSH1 0x3 NOT ADD SLT PUSH2 0x17B JUMPI PUSH2 0xECA PUSH2 0x1B6D JUMP JUMPDEST PUSH1 0x44 CALLDATALOAD DUP1 ISZERO ISZERO DUP2 SUB PUSH2 0x17B JUMPI PUSH2 0x10D SWAP2 PUSH1 0x24 CALLDATALOAD SWAP1 PUSH2 0x2310 JUMP JUMPDEST CALLVALUE PUSH2 0x17B JUMPI PUSH0 CALLDATASIZE PUSH1 0x3 NOT ADD SLT PUSH2 0x17B JUMPI PUSH1 0x20 PUSH1 0x1 SLOAD PUSH1 0x40 MLOAD SWAP1 DUP2 MSTORE RETURN JUMPDEST CALLVALUE PUSH2 0x17B JUMPI PUSH1 0x20 CALLDATASIZE PUSH1 0x3 NOT ADD SLT PUSH2 0x17B JUMPI PUSH1 0x1 PUSH1 0x1 PUSH1 0xA0 SHL SUB PUSH2 0xF21 PUSH2 0x1B6D JUMP JUMPDEST AND PUSH0 MSTORE PUSH1 0x2 PUSH1 0x20 MSTORE PUSH1 0x40 PUSH0 KECCAK256 PUSH1 0x40 MLOAD PUSH2 0xF39 DUP2 PUSH2 0x1AB0 JUMP JUMPDEST PUSH2 0xF42 DUP3 PUSH2 0x1BBB JUMP JUMPDEST DUP2 MSTORE PUSH2 0xF50 PUSH1 0x1 DUP4 ADD PUSH2 0x1BBB JUMP JUMPDEST SWAP2 PUSH1 0x20 DUP3 ADD SWAP3 DUP4 MSTORE PUSH1 0x2 DUP2 ADD SWAP1 DUP2 SLOAD SWAP2 PUSH2 0xF69 DUP4 PUSH2 0x1C5B JUMP JUMPDEST SWAP3 PUSH2 0xF77 PUSH1 0x40 MLOAD SWAP5 DUP6 PUSH2 0x1AE9 JUMP JUMPDEST DUP1 DUP5 MSTORE PUSH1 0x20 DUP5 ADD SWAP2 PUSH0 MSTORE PUSH1 0x20 PUSH0 KECCAK256 PUSH0 SWAP3 JUMPDEST DUP3 DUP5 LT PUSH2 0x129B JUMPI POP POP POP POP PUSH1 0x40 DUP4 ADD SWAP2 DUP3 MSTORE PUSH1 0x3 DUP2 ADD DUP1 SLOAD PUSH2 0xFA9 DUP2 PUSH2 0x1C5B JUMP JUMPDEST SWAP2 PUSH2 0xFB7 PUSH1 0x40 MLOAD SWAP4 DUP5 PUSH2 0x1AE9 JUMP JUMPDEST DUP2 DUP4 MSTORE PUSH1 0x20 DUP4 ADD SWAP1 PUSH0 MSTORE PUSH1 0x20 PUSH0 KECCAK256 PUSH0 SWAP2 JUMPDEST DUP4 DUP4 LT PUSH2 0x1211 JUMPI POP POP POP POP PUSH1 0x60 DUP5 ADD SWAP1 DUP2 MSTORE PUSH1 0x4 DUP3 ADD SWAP2 DUP3 SLOAD PUSH2 0xFEA DUP2 PUSH2 0x1C5B JUMP JUMPDEST SWAP4 PUSH2 0xFF8 PUSH1 0x40 MLOAD SWAP6 DUP7 PUSH2 0x1AE9 JUMP JUMPDEST DUP2 DUP6 MSTORE PUSH1 0x20 DUP6 ADD SWAP1 PUSH0 MSTORE PUSH1 0x20 PUSH0 KECCAK256 PUSH0 SWAP2 JUMPDEST DUP4 DUP4 LT PUSH2 0x11F4 JUMPI POP POP POP POP PUSH1 0x5 PUSH2 0x1054 SWAP2 PUSH1 0x80 DUP8 ADD SWAP5 DUP6 MSTORE ADD SLOAD SWAP6 PUSH2 0x1041 PUSH1 0x40 MLOAD SWAP7 PUSH1 0x40 DUP9 MSTORE MLOAD PUSH1 0xA0 PUSH1 0x40 DUP10 ADD MSTORE PUSH1 0xE0 DUP9 ADD SWAP1 PUSH2 0x1C73 JUMP JUMPDEST SWAP1 MLOAD DUP7 DUP3 SUB PUSH1 0x3F NOT ADD PUSH1 0x60 DUP9 ADD MSTORE PUSH2 0x1C73 JUMP JUMPDEST SWAP3 MLOAD SWAP3 PUSH1 0x3F NOT DUP6 DUP3 SUB ADD PUSH1 0x80 DUP7 ADD MSTORE DUP4 MLOAD DUP1 DUP3 MSTORE PUSH1 0x20 DUP3 ADD SWAP2 PUSH1 0x20 DUP1 DUP4 PUSH1 0x5 SHL DUP4 ADD ADD SWAP7 ADD SWAP3 PUSH0 SWAP2 JUMPDEST DUP4 DUP4 LT PUSH2 0x11C7 JUMPI POP POP POP POP POP MLOAD SWAP2 PUSH1 0x3F NOT DUP5 DUP3 SUB ADD PUSH1 0xA0 DUP6 ADD MSTORE DUP3 MLOAD DUP1 DUP3 MSTORE PUSH1 0x20 DUP3 ADD SWAP2 PUSH1 0x20 DUP1 DUP4 PUSH1 0x5 SHL DUP4 ADD ADD SWAP6 ADD SWAP3 PUSH0 SWAP2 JUMPDEST DUP4 DUP4 LT PUSH2 0x1126 JUMPI POP POP POP POP POP MLOAD SWAP1 PUSH1 0x3F NOT DUP4 DUP3 SUB ADD PUSH1 0xC0 DUP5 ADD MSTORE DUP2 MLOAD DUP1 DUP3 MSTORE PUSH1 0x20 DUP3 ADD SWAP2 PUSH1 0x20 DUP1 DUP4 PUSH1 0x5 SHL DUP4 ADD ADD SWAP5 ADD SWAP3 PUSH0 SWAP2 JUMPDEST DUP4 DUP4 LT PUSH2 0x10F9 JUMPI DUP7 DUP1 DUP8 DUP11 PUSH1 0x20 DUP4 ADD MSTORE SUB SWAP1 RETURN JUMPDEST SWAP1 SWAP2 SWAP3 SWAP4 SWAP5 PUSH1 0x20 DUP1 PUSH2 0x1117 PUSH1 0x1 SWAP4 PUSH1 0x1F NOT DUP7 DUP3 SUB ADD DUP8 MSTORE DUP10 MLOAD PUSH2 0x1C73 JUMP JUMPDEST SWAP8 ADD SWAP4 ADD SWAP4 ADD SWAP2 SWAP4 SWAP3 SWAP1 PUSH2 0x10E5 JUMP JUMPDEST SWAP1 SWAP2 SWAP3 SWAP4 SWAP6 PUSH1 0x20 DUP1 PUSH1 0x1 SWAP3 PUSH1 0x1F NOT DUP6 DUP3 SUB ADD DUP7 MSTORE DUP10 MLOAD SWAP1 PUSH1 0xE0 DUP1 PUSH2 0x11B0 PUSH2 0x119E PUSH2 0x118C PUSH2 0x115E DUP8 MLOAD PUSH2 0x100 DUP9 MSTORE PUSH2 0x100 DUP9 ADD SWAP1 PUSH2 0x1C73 JUMP JUMPDEST DUP9 DUP9 ADD MLOAD DUP10 DUP9 ADD MSTORE PUSH1 0x40 DUP9 ADD MLOAD PUSH1 0x40 DUP9 ADD MSTORE PUSH1 0x60 DUP9 ADD MLOAD PUSH1 0x60 DUP9 ADD MSTORE PUSH1 0x80 DUP9 ADD MLOAD DUP8 DUP3 SUB PUSH1 0x80 DUP10 ADD MSTORE PUSH2 0x1C73 JUMP JUMPDEST PUSH1 0xA0 DUP8 ADD MLOAD DUP7 DUP3 SUB PUSH1 0xA0 DUP9 ADD MSTORE PUSH2 0x1C73 JUMP JUMPDEST PUSH1 0xC0 DUP7 ADD MLOAD DUP6 DUP3 SUB PUSH1 0xC0 DUP8 ADD MSTORE PUSH2 0x1C73 JUMP JUMPDEST SWAP4 ADD MLOAD ISZERO ISZERO SWAP2 ADD MSTORE SWAP9 ADD SWAP4 ADD SWAP4 ADD SWAP2 SWAP4 SWAP3 SWAP1 PUSH2 0x10B1 JUMP JUMPDEST SWAP1 SWAP2 SWAP3 SWAP4 SWAP7 PUSH1 0x20 DUP1 PUSH2 0x11E5 PUSH1 0x1 SWAP4 PUSH1 0x1F NOT DUP7 DUP3 SUB ADD DUP8 MSTORE DUP12 MLOAD PUSH2 0x1C97 JUMP JUMPDEST SWAP10 ADD SWAP4 ADD SWAP4 ADD SWAP2 SWAP4 SWAP3 SWAP1 PUSH2 0x107D JUMP JUMPDEST PUSH1 0x1 PUSH1 0x20 DUP2 SWAP3 PUSH2 0x1203 DUP6 PUSH2 0x1BBB JUMP JUMPDEST DUP2 MSTORE ADD SWAP3 ADD SWAP3 ADD SWAP2 SWAP1 PUSH2 0x1009 JUMP JUMPDEST PUSH1 0x8 PUSH1 0x20 PUSH1 0x1 SWAP3 PUSH1 0x40 MLOAD PUSH2 0x1224 DUP2 PUSH2 0x1ACC JUMP JUMPDEST PUSH2 0x122D DUP7 PUSH2 0x1BBB JUMP JUMPDEST DUP2 MSTORE DUP5 DUP7 ADD SLOAD DUP4 DUP3 ADD MSTORE PUSH1 0x2 DUP7 ADD SLOAD PUSH1 0x40 DUP3 ADD MSTORE PUSH1 0x3 DUP7 ADD SLOAD PUSH1 0x60 DUP3 ADD MSTORE PUSH2 0x1257 PUSH1 0x4 DUP8 ADD PUSH2 0x1BBB JUMP JUMPDEST PUSH1 0x80 DUP3 ADD MSTORE PUSH2 0x1268 PUSH1 0x5 DUP8 ADD PUSH2 0x1BBB JUMP JUMPDEST PUSH1 0xA0 DUP3 ADD MSTORE PUSH2 0x1279 PUSH1 0x6 DUP8 ADD PUSH2 0x1BBB JUMP JUMPDEST PUSH1 0xC0 DUP3 ADD MSTORE PUSH1 0xFF PUSH1 0x7 DUP8 ADD SLOAD AND ISZERO ISZERO PUSH1 0xE0 DUP3 ADD MSTORE DUP2 MSTORE ADD SWAP3 ADD SWAP3 ADD SWAP2 SWAP1 PUSH2 0xFC8 JUMP JUMPDEST PUSH1 0x40 MLOAD SWAP1 PUSH2 0x12A8 DUP3 PUSH2 0x1AB0 JUMP JUMPDEST PUSH2 0x12B1 DUP4 PUSH2 0x1BBB JUMP JUMPDEST DUP3 MSTORE PUSH1 0x40 MLOAD PUSH2 0x12BF DUP2 PUSH2 0x1A78 JUMP JUMPDEST PUSH2 0x12CB PUSH1 0x1 DUP6 ADD PUSH2 0x1BBB JUMP JUMPDEST DUP2 MSTORE PUSH2 0x12D9 PUSH1 0x2 DUP6 ADD PUSH2 0x1BBB JUMP JUMPDEST PUSH1 0x20 DUP3 ADD MSTORE PUSH1 0x20 DUP4 ADD MSTORE PUSH1 0x40 MLOAD SWAP1 PUSH2 0x12F0 DUP3 PUSH2 0x1A94 JUMP JUMPDEST PUSH1 0x3 DUP5 ADD SLOAD DUP3 MSTORE PUSH2 0x1303 PUSH1 0x4 DUP6 ADD PUSH2 0x1BBB JUMP JUMPDEST PUSH1 0x20 DUP4 ADD MSTORE PUSH2 0x1314 PUSH1 0x5 DUP6 ADD PUSH2 0x1BBB JUMP JUMPDEST PUSH1 0x40 DUP4 ADD MSTORE PUSH1 0x6 DUP5 ADD SLOAD PUSH1 0x60 DUP4 ADD MSTORE PUSH1 0xFF PUSH1 0x7 DUP6 ADD SLOAD PUSH1 0x1 PUSH1 0x1 PUSH1 0xA0 SHL SUB DUP2 AND PUSH1 0x80 DUP6 ADD MSTORE PUSH1 0xA0 SHR AND SWAP1 PUSH1 0x2 DUP3 LT ISZERO PUSH2 0x8F3 JUMPI PUSH1 0x1 SWAP4 DUP4 PUSH1 0x20 SWAP4 PUSH1 0xA0 PUSH1 0xA SWAP7 ADD MSTORE PUSH1 0x40 DUP3 ADD MSTORE PUSH1 0x8 DUP7 ADD SLOAD PUSH1 0x60 DUP3 ADD MSTORE PUSH1 0x9 DUP7 ADD SLOAD PUSH1 0x80 DUP3 ADD MSTORE DUP2 MSTORE ADD SWAP3 ADD SWAP4 ADD SWAP3 SWAP1 PUSH2 0xF88 JUMP JUMPDEST CALLVALUE PUSH2 0x17B JUMPI PUSH0 CALLDATASIZE PUSH1 0x3 NOT ADD SLT PUSH2 0x17B JUMPI PUSH1 0x20 PUSH1 0x1 PUSH1 0x1 PUSH1 0xA0 SHL SUB PUSH0 SLOAD AND PUSH1 0x40 MLOAD SWAP1 DUP2 MSTORE RETURN JUMPDEST CALLVALUE PUSH2 0x17B JUMPI PUSH1 0x20 CALLDATASIZE PUSH1 0x3 NOT ADD SLT PUSH2 0x17B JUMPI PUSH1 0x4 CALLDATALOAD PUSH8 0xFFFFFFFFFFFFFFFF DUP2 GT PUSH2 0x17B JUMPI PUSH2 0x100 PUSH1 0x3 NOT DUP3 CALLDATASIZE SUB ADD SLT PUSH2 0x17B JUMPI PUSH1 0x40 MLOAD SWAP1 PUSH2 0x13E0 DUP3 PUSH2 0x1ACC JUMP JUMPDEST DUP1 PUSH1 0x4 ADD CALLDATALOAD PUSH8 0xFFFFFFFFFFFFFFFF DUP2 GT PUSH2 0x17B JUMPI PUSH2 0x1404 SWAP1 PUSH1 0x4 CALLDATASIZE SWAP2 DUP5 ADD ADD PUSH2 0x1B27 JUMP JUMPDEST DUP3 MSTORE PUSH1 0x20 DUP3 ADD SWAP2 PUSH1 0x24 DUP3 ADD CALLDATALOAD DUP4 MSTORE PUSH1 0x44 DUP3 ADD CALLDATALOAD PUSH1 0x40 DUP3 ADD MSTORE PUSH1 0x60 DUP2 ADD SWAP2 PUSH1 0x64 DUP2 ADD CALLDATALOAD DUP4 MSTORE PUSH1 0x84 DUP2 ADD CALLDATALOAD PUSH8 0xFFFFFFFFFFFFFFFF DUP2 GT PUSH2 0x17B JUMPI PUSH2 0x144C SWAP1 PUSH1 0x4 CALLDATASIZE SWAP2 DUP5 ADD ADD PUSH2 0x1B27 JUMP JUMPDEST PUSH1 0x80 DUP4 ADD MSTORE PUSH1 0xA4 DUP2 ADD CALLDATALOAD PUSH8 0xFFFFFFFFFFFFFFFF DUP2 GT PUSH2 0x17B JUMPI PUSH2 0x1475 SWAP1 PUSH1 0x4 CALLDATASIZE SWAP2 DUP5 ADD ADD PUSH2 0x1B27 JUMP JUMPDEST PUSH1 0xA0 DUP4 ADD MSTORE PUSH1 0xC4 DUP2 ADD CALLDATALOAD SWAP1 PUSH8 0xFFFFFFFFFFFFFFFF DUP3 GT PUSH2 0x17B JUMPI PUSH2 0x14A1 PUSH1 0xE4 SWAP3 PUSH1 0x4 CALLDATASIZE SWAP2 DUP5 ADD ADD PUSH2 0x1B27 JUMP JUMPDEST PUSH1 0xC0 DUP5 ADD MSTORE ADD CALLDATALOAD DUP1 ISZERO ISZERO DUP2 SUB PUSH2 0x17B JUMPI PUSH1 0xE0 DUP3 ADD SWAP1 DUP2 MSTORE DUP3 MLOAD ISZERO PUSH2 0x1616 JUMPI MLOAD PUSH2 0x15D2 JUMPI PUSH0 CALLER PUSH0 MSTORE PUSH1 0x2 PUSH1 0x20 MSTORE PUSH1 0x3 PUSH1 0x40 PUSH0 KECCAK256 ADD PUSH0 SWAP1 DUP1 SLOAD SWAP2 JUMPDEST DUP3 DUP2 LT PUSH2 0x15A6 JUMPI JUMPDEST POP POP POP PUSH2 0x157E JUMPI CALLER PUSH0 MSTORE PUSH1 0x2 PUSH1 0x20 MSTORE PUSH1 0x3 PUSH1 0x40 PUSH0 KECCAK256 ADD DUP1 SLOAD PUSH9 0x10000000000000000 DUP2 LT ISZERO PUSH2 0x555 JUMPI PUSH2 0x151A SWAP2 PUSH1 0x1 DUP3 ADD DUP2 SSTORE PUSH2 0x1DEC JUMP JUMPDEST SWAP3 SWAP1 SWAP3 PUSH2 0x156B JUMPI PUSH2 0x155D DUP3 PUSH2 0x1552 PUSH1 0x40 SWAP5 PUSH32 0x33F37C1926EC5E25B995FCDEBAA47564A57577A1EA9159A27E0BDA8F10297B89 SWAP7 PUSH2 0x1E19 JUMP JUMPDEST MLOAD SWAP5 MLOAD SWAP2 MLOAD SWAP5 PUSH2 0x1DD0 JUMP JUMPDEST SWAP4 DUP3 MLOAD SWAP2 DUP3 MSTORE PUSH1 0x20 DUP3 ADD MSTORE LOG2 STOP JUMPDEST PUSH4 0x4E487B71 PUSH1 0xE0 SHL PUSH0 MSTORE PUSH0 PUSH1 0x4 MSTORE PUSH1 0x24 PUSH0 REVERT JUMPDEST PUSH32 0x9BE4F88800000000000000000000000000000000000000000000000000000000 PUSH0 MSTORE PUSH1 0x4 PUSH0 REVERT JUMPDEST PUSH1 0x1 PUSH2 0x15B2 DUP3 DUP5 PUSH2 0x1DEC JUMP JUMPDEST POP ADD SLOAD DUP8 MLOAD EQ PUSH2 0x15C4 JUMPI PUSH1 0x1 ADD PUSH2 0x14DA JUMP JUMPDEST POP POP POP POP PUSH1 0x1 DUP5 DUP1 DUP1 PUSH2 0x14E2 JUMP JUMPDEST PUSH1 0x64 PUSH1 0x40 MLOAD PUSH3 0x461BCD PUSH1 0xE5 SHL DUP2 MSTORE PUSH1 0x20 PUSH1 0x4 DUP3 ADD MSTORE PUSH1 0x1C PUSH1 0x24 DUP3 ADD MSTORE PUSH32 0x63616E2774207075626C69736820636F6D706C65746564207769736800000000 PUSH1 0x44 DUP3 ADD MSTORE REVERT JUMPDEST PUSH1 0x64 PUSH1 0x40 MLOAD PUSH3 0x461BCD PUSH1 0xE5 SHL DUP2 MSTORE PUSH1 0x20 PUSH1 0x4 DUP3 ADD MSTORE PUSH1 0x1B PUSH1 0x24 DUP3 ADD MSTORE PUSH32 0x636F7374206D757374206265206D6F7265207468616E207A65726F0000000000 PUSH1 0x44 DUP3 ADD MSTORE REVERT JUMPDEST PUSH1 0x60 CALLDATASIZE PUSH1 0x3 NOT ADD SLT PUSH2 0x17B JUMPI PUSH1 0x4 CALLDATALOAD PUSH8 0xFFFFFFFFFFFFFFFF DUP2 GT PUSH2 0x17B JUMPI PUSH2 0x1686 SWAP1 CALLDATASIZE SWAP1 PUSH1 0x4 ADD PUSH2 0x1B27 JUMP JUMPDEST PUSH1 0x24 CALLDATALOAD SWAP1 PUSH8 0xFFFFFFFFFFFFFFFF DUP3 GT PUSH2 0x17B JUMPI PUSH1 0x40 PUSH1 0x3 NOT DUP4 CALLDATASIZE SUB ADD SLT PUSH2 0x17B JUMPI PUSH1 0x40 MLOAD SWAP2 PUSH2 0x16B4 DUP4 PUSH2 0x1A78 JUMP JUMPDEST DUP1 PUSH1 0x4 ADD CALLDATALOAD PUSH8 0xFFFFFFFFFFFFFFFF DUP2 GT PUSH2 0x17B JUMPI PUSH2 0x16D8 SWAP1 PUSH1 0x4 CALLDATASIZE SWAP2 DUP5 ADD ADD PUSH2 0x1B27 JUMP JUMPDEST DUP4 MSTORE PUSH1 0x24 DUP2 ADD CALLDATALOAD SWAP1 PUSH8 0xFFFFFFFFFFFFFFFF DUP3 GT PUSH2 0x17B JUMPI PUSH1 0x4 PUSH2 0x16FE SWAP3 CALLDATASIZE SWAP3 ADD ADD PUSH2 0x1B27 JUMP JUMPDEST PUSH1 0x20 DUP4 ADD MSTORE PUSH1 0x44 CALLDATALOAD SWAP2 PUSH8 0xFFFFFFFFFFFFFFFF DUP4 GT PUSH2 0x17B JUMPI PUSH1 0xC0 PUSH1 0x3 NOT DUP5 CALLDATASIZE SUB ADD SLT PUSH2 0x17B JUMPI PUSH1 0x40 MLOAD PUSH2 0x1730 DUP2 PUSH2 0x1A94 JUMP JUMPDEST DUP4 PUSH1 0x4 ADD CALLDATALOAD DUP2 MSTORE PUSH1 0x24 DUP5 ADD CALLDATALOAD PUSH8 0xFFFFFFFFFFFFFFFF DUP2 GT PUSH2 0x17B JUMPI PUSH2 0x175B SWAP1 PUSH1 0x4 CALLDATASIZE SWAP2 DUP8 ADD ADD PUSH2 0x1B27 JUMP JUMPDEST SWAP4 PUSH1 0x20 DUP3 ADD SWAP5 DUP6 MSTORE PUSH1 0x44 DUP2 ADD CALLDATALOAD PUSH8 0xFFFFFFFFFFFFFFFF DUP2 GT PUSH2 0x17B JUMPI PUSH2 0x1787 SWAP1 PUSH1 0x4 CALLDATASIZE SWAP2 DUP5 ADD ADD PUSH2 0x1B27 JUMP JUMPDEST SWAP5 PUSH1 0x40 DUP4 ADD SWAP6 DUP7 MSTORE PUSH1 0x60 DUP4 ADD SWAP3 PUSH1 0x64 DUP4 ADD CALLDATALOAD DUP5 MSTORE PUSH1 0x84 DUP4 ADD CALLDATALOAD SWAP3 PUSH1 0x1 PUSH1 0x1 PUSH1 0xA0 SHL SUB DUP5 AND DUP5 SUB PUSH2 0x17B JUMPI PUSH1 0x80 DUP3 ADD SWAP4 DUP5 MSTORE PUSH1 0xA4 ADD CALLDATALOAD SWAP1 PUSH1 0x2 DUP3 LT ISZERO PUSH2 0x17B JUMPI PUSH1 0xA0 ADD MSTORE DUP5 MLOAD ISZERO PUSH2 0x18E7 JUMPI PUSH5 0xE8D4A51000 CALLVALUE LT PUSH2 0x10F JUMPI PUSH1 0x1 PUSH1 0x1 PUSH1 0xA0 SHL SUB SWAP1 MLOAD SWAP6 MLOAD SWAP3 MLOAD SWAP2 MLOAD AND SWAP2 PUSH1 0x40 MLOAD SWAP6 PUSH2 0x17FC DUP8 PUSH2 0x1A94 JUMP JUMPDEST TIMESTAMP DUP8 MSTORE PUSH1 0x20 DUP8 ADD MSTORE PUSH1 0x40 DUP7 ADD MSTORE PUSH1 0x60 DUP6 ADD MSTORE PUSH1 0x80 DUP5 ADD MSTORE PUSH0 PUSH1 0xA0 DUP5 ADD MSTORE PUSH1 0x40 MLOAD SWAP2 PUSH2 0x1826 DUP4 PUSH2 0x1AB0 JUMP JUMPDEST DUP3 MSTORE PUSH1 0x20 DUP3 ADD MSTORE PUSH1 0x40 DUP2 ADD SWAP2 DUP3 MSTORE CALLVALUE PUSH1 0x60 DUP3 ADD MSTORE PUSH1 0x80 DUP2 ADD PUSH0 DUP2 MSTORE PUSH1 0x1 SLOAD SWAP3 DUP4 CALLVALUE MUL SWAP4 CALLVALUE DUP6 DIV EQ CALLVALUE ISZERO OR ISZERO PUSH2 0x675 JUMPI PUSH2 0x18D2 PUSH1 0x40 PUSH2 0xEAC SWAP3 PUSH2 0x18C7 PUSH32 0x8641214593227D3404460886F37864B6475408B50D7E677738E122AAAE424BDE SWAP6 PUSH2 0x3E8 PUSH0 SWAP10 DIV SWAP1 PUSH2 0x1894 DUP3 CALLVALUE PUSH2 0x215F JUMP JUMPDEST SWAP1 PUSH1 0x1 PUSH1 0x1 PUSH1 0xA0 SHL SUB PUSH1 0x80 DUP7 MLOAD ADD MLOAD AND DUP12 MSTORE PUSH1 0x2 PUSH1 0x20 MSTORE PUSH1 0x5 DUP7 DUP13 KECCAK256 ADD PUSH2 0x18BC DUP4 DUP3 SLOAD PUSH2 0x1DC3 JUMP JUMPDEST SWAP1 SSTORE MSTORE PUSH1 0x3 SLOAD PUSH2 0x1DC3 JUMP JUMPDEST PUSH1 0x3 SSTORE MLOAD ADD MLOAD PUSH2 0x1DD0 JUMP JUMPDEST SWAP3 PUSH1 0x40 MLOAD SWAP2 DUP3 SWAP2 PUSH1 0x20 DUP4 MSTORE PUSH1 0x20 DUP4 ADD SWAP1 PUSH2 0x1C97 JUMP JUMPDEST PUSH1 0x64 PUSH1 0x40 MLOAD PUSH3 0x461BCD PUSH1 0xE5 SHL DUP2 MSTORE PUSH1 0x20 PUSH1 0x4 DUP3 ADD MSTORE PUSH1 0x12 PUSH1 0x24 DUP3 ADD MSTORE PUSH32 0x757569642063616E2774206265206E756C6C0000000000000000000000000000 PUSH1 0x44 DUP3 ADD MSTORE REVERT JUMPDEST CALLVALUE PUSH2 0x17B JUMPI PUSH0 CALLDATASIZE PUSH1 0x3 NOT ADD SLT PUSH2 0x17B JUMPI PUSH1 0x20 PUSH1 0x40 MLOAD PUSH5 0xE8D4A51000 DUP2 MSTORE RETURN JUMPDEST CALLVALUE PUSH2 0x17B JUMPI PUSH1 0x20 CALLDATASIZE PUSH1 0x3 NOT ADD SLT PUSH2 0x17B JUMPI PUSH1 0x4 CALLDATALOAD PUSH8 0xFFFFFFFFFFFFFFFF DUP2 GT PUSH2 0x17B JUMPI PUSH2 0x197B SWAP1 CALLDATASIZE SWAP1 PUSH1 0x4 ADD PUSH2 0x1B27 JUMP JUMPDEST DUP1 MLOAD ISZERO PUSH2 0x1A50 JUMPI CALLER PUSH0 MSTORE PUSH1 0x2 PUSH1 0x20 MSTORE PUSH1 0x1 PUSH1 0x40 PUSH0 KECCAK256 ADD DUP2 MLOAD PUSH8 0xFFFFFFFFFFFFFFFF DUP2 GT PUSH2 0x555 JUMPI PUSH2 0x19B6 DUP2 PUSH2 0x19B0 DUP5 SLOAD PUSH2 0x1B83 JUMP JUMPDEST DUP5 PUSH2 0x1D80 JUMP JUMPDEST PUSH1 0x20 SWAP3 PUSH1 0x1F DUP3 GT PUSH1 0x1 EQ PUSH2 0x19F4 JUMPI PUSH2 0x19E5 SWAP3 SWAP4 DUP3 SWAP2 PUSH0 SWAP3 PUSH2 0x19E9 JUMPI POP POP DUP2 PUSH1 0x1 SHL SWAP2 PUSH0 NOT SWAP1 PUSH1 0x3 SHL SHR NOT AND OR SWAP1 JUMP JUMPDEST SWAP1 SSTORE STOP JUMPDEST ADD MLOAD SWAP1 POP DUP5 DUP1 PUSH2 0x2E5 JUMP JUMPDEST PUSH1 0x1F NOT DUP3 AND SWAP4 DUP4 PUSH0 MSTORE DUP1 PUSH0 KECCAK256 SWAP2 PUSH0 JUMPDEST DUP7 DUP2 LT PUSH2 0x1A38 JUMPI POP DUP4 PUSH1 0x1 SWAP6 SWAP7 LT PUSH2 0x1A20 JUMPI JUMPDEST POP POP POP DUP2 SHL ADD SWAP1 SSTORE STOP JUMPDEST ADD MLOAD PUSH0 NOT PUSH1 0xF8 DUP5 PUSH1 0x3 SHL AND SHR NOT AND SWAP1 SSTORE DUP4 DUP1 DUP1 PUSH2 0x1A16 JUMP JUMPDEST SWAP2 SWAP3 PUSH1 0x20 PUSH1 0x1 DUP2 SWAP3 DUP7 DUP6 ADD MLOAD DUP2 SSTORE ADD SWAP5 ADD SWAP3 ADD PUSH2 0x1A03 JUMP JUMPDEST PUSH32 0x6BC8EBC400000000000000000000000000000000000000000000000000000000 PUSH0 MSTORE PUSH1 0x4 PUSH0 REVERT JUMPDEST PUSH1 0x40 DUP2 ADD SWAP1 DUP2 LT PUSH8 0xFFFFFFFFFFFFFFFF DUP3 GT OR PUSH2 0x555 JUMPI PUSH1 0x40 MSTORE JUMP JUMPDEST PUSH1 0xC0 DUP2 ADD SWAP1 DUP2 LT PUSH8 0xFFFFFFFFFFFFFFFF DUP3 GT OR PUSH2 0x555 JUMPI PUSH1 0x40 MSTORE JUMP JUMPDEST PUSH1 0xA0 DUP2 ADD SWAP1 DUP2 LT PUSH8 0xFFFFFFFFFFFFFFFF DUP3 GT OR PUSH2 0x555 JUMPI PUSH1 0x40 MSTORE JUMP JUMPDEST PUSH2 0x100 DUP2 ADD SWAP1 DUP2 LT PUSH8 0xFFFFFFFFFFFFFFFF DUP3 GT OR PUSH2 0x555 JUMPI PUSH1 0x40 MSTORE JUMP JUMPDEST SWAP1 PUSH1 0x1F DUP1 NOT SWAP2 ADD AND DUP2 ADD SWAP1 DUP2 LT PUSH8 0xFFFFFFFFFFFFFFFF DUP3 GT OR PUSH2 0x555 JUMPI PUSH1 0x40 MSTORE JUMP JUMPDEST PUSH8 0xFFFFFFFFFFFFFFFF DUP2 GT PUSH2 0x555 JUMPI PUSH1 0x1F ADD PUSH1 0x1F NOT AND PUSH1 0x20 ADD SWAP1 JUMP JUMPDEST DUP2 PUSH1 0x1F DUP3 ADD SLT ISZERO PUSH2 0x17B JUMPI DUP1 CALLDATALOAD SWAP1 PUSH2 0x1B3E DUP3 PUSH2 0x1B0B JUMP JUMPDEST SWAP3 PUSH2 0x1B4C PUSH1 0x40 MLOAD SWAP5 DUP6 PUSH2 0x1AE9 JUMP JUMPDEST DUP3 DUP5 MSTORE PUSH1 0x20 DUP4 DUP4 ADD ADD GT PUSH2 0x17B JUMPI DUP2 PUSH0 SWAP3 PUSH1 0x20 DUP1 SWAP4 ADD DUP4 DUP7 ADD CALLDATACOPY DUP4 ADD ADD MSTORE SWAP1 JUMP JUMPDEST PUSH1 0x4 CALLDATALOAD SWAP1 PUSH1 0x1 PUSH1 0x1 PUSH1 0xA0 SHL SUB DUP3 AND DUP3 SUB PUSH2 0x17B JUMPI JUMP JUMPDEST SWAP1 PUSH1 0x1 DUP3 DUP2 SHR SWAP3 AND DUP1 ISZERO PUSH2 0x1BB1 JUMPI JUMPDEST PUSH1 0x20 DUP4 LT EQ PUSH2 0x1B9D JUMPI JUMP JUMPDEST PUSH4 0x4E487B71 PUSH1 0xE0 SHL PUSH0 MSTORE PUSH1 0x22 PUSH1 0x4 MSTORE PUSH1 0x24 PUSH0 REVERT JUMPDEST SWAP2 PUSH1 0x7F AND SWAP2 PUSH2 0x1B92 JUMP JUMPDEST SWAP1 PUSH1 0x40 MLOAD SWAP2 DUP3 PUSH0 DUP3 SLOAD SWAP3 PUSH2 0x1BCE DUP5 PUSH2 0x1B83 JUMP JUMPDEST DUP1 DUP5 MSTORE SWAP4 PUSH1 0x1 DUP2 AND SWAP1 DUP2 ISZERO PUSH2 0x1C39 JUMPI POP PUSH1 0x1 EQ PUSH2 0x1BF5 JUMPI JUMPDEST POP PUSH2 0x1BF3 SWAP3 POP SUB DUP4 PUSH2 0x1AE9 JUMP JUMPDEST JUMP JUMPDEST SWAP1 POP PUSH0 SWAP3 SWAP2 SWAP3 MSTORE PUSH1 0x20 PUSH0 KECCAK256 SWAP1 PUSH0 SWAP2 JUMPDEST DUP2 DUP4 LT PUSH2 0x1C1D JUMPI POP POP SWAP1 PUSH1 0x20 PUSH2 0x1BF3 SWAP3 DUP3 ADD ADD PUSH0 PUSH2 0x1BE6 JUMP JUMPDEST PUSH1 0x20 SWAP2 SWAP4 POP DUP1 PUSH1 0x1 SWAP2 SLOAD DUP4 DUP6 DUP10 ADD ADD MSTORE ADD SWAP2 ADD SWAP1 SWAP2 DUP5 SWAP3 PUSH2 0x1C04 JUMP JUMPDEST SWAP1 POP PUSH1 0x20 SWAP3 POP PUSH2 0x1BF3 SWAP5 SWAP2 POP PUSH1 0xFF NOT AND DUP3 DUP5 ADD MSTORE ISZERO ISZERO PUSH1 0x5 SHL DUP3 ADD ADD PUSH0 PUSH2 0x1BE6 JUMP JUMPDEST PUSH8 0xFFFFFFFFFFFFFFFF DUP2 GT PUSH2 0x555 JUMPI PUSH1 0x5 SHL PUSH1 0x20 ADD SWAP1 JUMP JUMPDEST DUP1 MLOAD DUP1 DUP4 MSTORE PUSH1 0x20 SWAP3 SWAP2 DUP2 SWAP1 DUP5 ADD DUP5 DUP5 ADD MCOPY PUSH0 DUP3 DUP3 ADD DUP5 ADD MSTORE PUSH1 0x1F ADD PUSH1 0x1F NOT AND ADD ADD SWAP1 JUMP JUMPDEST SWAP1 PUSH2 0x1CE2 PUSH2 0x1CAE DUP4 MLOAD PUSH1 0xA0 DUP5 MSTORE PUSH1 0xA0 DUP5 ADD SWAP1 PUSH2 0x1C73 JUMP JUMPDEST PUSH1 0x20 DUP5 ADD MLOAD SWAP1 DUP4 DUP2 SUB PUSH1 0x20 DUP6 ADD MSTORE PUSH1 0x20 PUSH2 0x1CD1 DUP4 MLOAD PUSH1 0x40 DUP5 MSTORE PUSH1 0x40 DUP5 ADD SWAP1 PUSH2 0x1C73 JUMP JUMPDEST SWAP3 ADD MLOAD SWAP1 PUSH1 0x20 DUP2 DUP5 SUB SWAP2 ADD MSTORE PUSH2 0x1C73 JUMP JUMPDEST SWAP2 PUSH1 0x40 DUP2 ADD MLOAD SWAP3 DUP3 DUP2 SUB PUSH1 0x40 DUP5 ADD MSTORE DUP4 MLOAD DUP2 MSTORE PUSH1 0xA0 PUSH2 0x1D25 PUSH2 0x1D13 PUSH1 0x20 DUP8 ADD MLOAD PUSH1 0xC0 PUSH1 0x20 DUP7 ADD MSTORE PUSH1 0xC0 DUP6 ADD SWAP1 PUSH2 0x1C73 JUMP JUMPDEST PUSH1 0x40 DUP8 ADD MLOAD DUP5 DUP3 SUB PUSH1 0x40 DUP7 ADD MSTORE PUSH2 0x1C73 JUMP JUMPDEST SWAP5 PUSH1 0x60 DUP2 ADD MLOAD PUSH1 0x60 DUP5 ADD MSTORE PUSH1 0x1 PUSH1 0x1 PUSH1 0xA0 SHL SUB PUSH1 0x80 DUP3 ADD MLOAD AND PUSH1 0x80 DUP5 ADD MSTORE ADD MLOAD SWAP2 PUSH1 0x2 DUP4 LT ISZERO PUSH2 0x8F3 JUMPI PUSH1 0x80 SWAP3 PUSH1 0xA0 DUP5 SWAP4 ADD MSTORE PUSH1 0x60 DUP2 ADD MLOAD PUSH1 0x60 DUP6 ADD MSTORE ADD MLOAD SWAP2 ADD MSTORE SWAP1 JUMP JUMPDEST DUP2 DUP2 LT PUSH2 0x1D75 JUMPI POP POP JUMP JUMPDEST PUSH0 DUP2 SSTORE PUSH1 0x1 ADD PUSH2 0x1D6A JUMP JUMPDEST SWAP2 SWAP1 PUSH1 0x1F DUP2 GT PUSH2 0x1D8F JUMPI POP POP POP JUMP JUMPDEST PUSH2 0x1BF3 SWAP3 PUSH0 MSTORE PUSH1 0x20 PUSH0 KECCAK256 SWAP1 PUSH1 0x20 PUSH1 0x1F DUP5 ADD PUSH1 0x5 SHR DUP4 ADD SWAP4 LT PUSH2 0x1DB9 JUMPI JUMPDEST PUSH1 0x1F ADD PUSH1 0x5 SHR ADD SWAP1 PUSH2 0x1D6A JUMP JUMPDEST SWAP1 SWAP2 POP DUP2 SWAP1 PUSH2 0x1DAC JUMP JUMPDEST SWAP2 SWAP1 DUP3 ADD DUP1 SWAP3 GT PUSH2 0x675 JUMPI JUMP JUMPDEST PUSH1 0x20 SWAP1 PUSH1 0x40 MLOAD SWAP2 DUP2 DUP4 SWAP3 MLOAD SWAP2 DUP3 SWAP2 ADD DUP4 MCOPY DUP2 ADD PUSH0 DUP2 MSTORE SUB SWAP1 KECCAK256 SWAP1 JUMP JUMPDEST DUP1 SLOAD DUP3 LT ISZERO PUSH2 0x1E05 JUMPI PUSH0 MSTORE PUSH1 0x20 PUSH0 KECCAK256 SWAP1 PUSH1 0x3 SHL ADD SWAP1 PUSH0 SWAP1 JUMP JUMPDEST PUSH4 0x4E487B71 PUSH1 0xE0 SHL PUSH0 MSTORE PUSH1 0x32 PUSH1 0x4 MSTORE PUSH1 0x24 PUSH0 REVERT JUMPDEST SWAP2 SWAP1 SWAP2 DUP3 MLOAD SWAP3 DUP4 MLOAD PUSH8 0xFFFFFFFFFFFFFFFF DUP2 GT PUSH2 0x555 JUMPI PUSH2 0x1E3E DUP2 PUSH2 0x325 DUP6 SLOAD PUSH2 0x1B83 JUMP JUMPDEST PUSH1 0x20 SWAP5 PUSH1 0x1F DUP3 GT PUSH1 0x1 EQ PUSH2 0x20FE JUMPI PUSH2 0x1E6F SWAP3 SWAP4 SWAP5 SWAP6 DUP3 SWAP2 PUSH0 SWAP3 PUSH2 0x1FC0 JUMPI POP POP DUP2 PUSH1 0x1 SHL SWAP2 PUSH0 NOT SWAP1 PUSH1 0x3 SHL SHR NOT AND OR SWAP1 JUMP JUMPDEST DUP3 SSTORE JUMPDEST PUSH1 0x20 DUP2 ADD MLOAD PUSH1 0x1 DUP4 ADD SSTORE PUSH1 0x40 DUP2 ADD MLOAD PUSH1 0x2 DUP4 ADD SSTORE PUSH1 0x60 DUP2 ADD MLOAD PUSH1 0x3 DUP4 ADD SSTORE PUSH1 0x4 DUP3 ADD PUSH1 0x80 DUP3 ADD MLOAD DUP1 MLOAD SWAP1 PUSH8 0xFFFFFFFFFFFFFFFF DUP3 GT PUSH2 0x555 JUMPI PUSH2 0x1EB9 DUP3 PUSH2 0x325 DUP6 SLOAD PUSH2 0x1B83 JUMP JUMPDEST PUSH1 0x20 SWAP1 PUSH1 0x1F DUP4 GT PUSH1 0x1 EQ PUSH2 0x209B JUMPI PUSH2 0x1EE7 SWAP3 SWAP2 PUSH0 SWAP2 DUP4 PUSH2 0x1FC0 JUMPI POP POP DUP2 PUSH1 0x1 SHL SWAP2 PUSH0 NOT SWAP1 PUSH1 0x3 SHL SHR NOT AND OR SWAP1 JUMP JUMPDEST SWAP1 SSTORE JUMPDEST PUSH1 0x5 DUP3 ADD PUSH1 0xA0 DUP3 ADD MLOAD DUP1 MLOAD SWAP1 PUSH8 0xFFFFFFFFFFFFFFFF DUP3 GT PUSH2 0x555 JUMPI PUSH2 0x1F13 DUP3 PUSH2 0x325 DUP6 SLOAD PUSH2 0x1B83 JUMP JUMPDEST PUSH1 0x20 SWAP1 PUSH1 0x1F DUP4 GT PUSH1 0x1 EQ PUSH2 0x2038 JUMPI PUSH2 0x1F41 SWAP3 SWAP2 PUSH0 SWAP2 DUP4 PUSH2 0x1FC0 JUMPI POP POP DUP2 PUSH1 0x1 SHL SWAP2 PUSH0 NOT SWAP1 PUSH1 0x3 SHL SHR NOT AND OR SWAP1 JUMP JUMPDEST SWAP1 SSTORE JUMPDEST PUSH1 0x6 DUP3 ADD PUSH1 0xC0 DUP3 ADD MLOAD DUP1 MLOAD SWAP1 PUSH8 0xFFFFFFFFFFFFFFFF DUP3 GT PUSH2 0x555 JUMPI PUSH2 0x1F6D DUP3 PUSH2 0x325 DUP6 SLOAD PUSH2 0x1B83 JUMP JUMPDEST PUSH1 0x20 SWAP1 PUSH1 0x1F DUP4 GT PUSH1 0x1 EQ PUSH2 0x1FCB JUMPI SWAP3 PUSH2 0x1FA6 DUP4 PUSH1 0xE0 SWAP5 PUSH2 0x1BF3 SWAP9 SWAP8 SWAP5 PUSH1 0x7 SWAP8 PUSH0 SWAP3 PUSH2 0x1FC0 JUMPI POP POP DUP2 PUSH1 0x1 SHL SWAP2 PUSH0 NOT SWAP1 PUSH1 0x3 SHL SHR NOT AND OR SWAP1 JUMP JUMPDEST SWAP1 SSTORE JUMPDEST ADD MLOAD ISZERO ISZERO SWAP2 ADD SWAP1 PUSH1 0xFF DUP1 NOT DUP4 SLOAD AND SWAP2 ISZERO ISZERO AND OR SWAP1 SSTORE JUMP JUMPDEST ADD MLOAD SWAP1 POP PUSH0 DUP1 PUSH2 0x2E5 JUMP JUMPDEST SWAP1 PUSH1 0x1F NOT DUP4 AND SWAP2 DUP5 PUSH0 MSTORE DUP2 PUSH0 KECCAK256 SWAP3 PUSH0 JUMPDEST DUP2 DUP2 LT PUSH2 0x2020 JUMPI POP SWAP4 PUSH2 0x1BF3 SWAP8 SWAP7 SWAP4 PUSH1 0x7 SWAP7 SWAP4 PUSH1 0x1 SWAP4 DUP4 PUSH1 0xE0 SWAP9 LT PUSH2 0x2008 JUMPI JUMPDEST POP POP POP DUP2 SHL ADD SWAP1 SSTORE PUSH2 0x1FA9 JUMP JUMPDEST ADD MLOAD PUSH0 NOT PUSH1 0xF8 DUP5 PUSH1 0x3 SHL AND SHR NOT AND SWAP1 SSTORE PUSH0 DUP1 DUP1 PUSH2 0x1FFB JUMP JUMPDEST SWAP3 SWAP4 PUSH1 0x20 PUSH1 0x1 DUP2 SWAP3 DUP8 DUP7 ADD MLOAD DUP2 SSTORE ADD SWAP6 ADD SWAP4 ADD PUSH2 0x1FDB JUMP JUMPDEST SWAP1 PUSH1 0x1F NOT DUP4 AND SWAP2 DUP5 PUSH0 MSTORE DUP2 PUSH0 KECCAK256 SWAP3 PUSH0 JUMPDEST DUP2 DUP2 LT PUSH2 0x2083 JUMPI POP SWAP1 DUP5 PUSH1 0x1 SWAP6 SWAP5 SWAP4 SWAP3 LT PUSH2 0x206B JUMPI JUMPDEST POP POP POP DUP2 SHL ADD SWAP1 SSTORE PUSH2 0x1F44 JUMP JUMPDEST ADD MLOAD PUSH0 NOT PUSH1 0xF8 DUP5 PUSH1 0x3 SHL AND SHR NOT AND SWAP1 SSTORE PUSH0 DUP1 DUP1 PUSH2 0x205E JUMP JUMPDEST SWAP3 SWAP4 PUSH1 0x20 PUSH1 0x1 DUP2 SWAP3 DUP8 DUP7 ADD MLOAD DUP2 SSTORE ADD SWAP6 ADD SWAP4 ADD PUSH2 0x2048 JUMP JUMPDEST SWAP1 PUSH1 0x1F NOT DUP4 AND SWAP2 DUP5 PUSH0 MSTORE DUP2 PUSH0 KECCAK256 SWAP3 PUSH0 JUMPDEST DUP2 DUP2 LT PUSH2 0x20E6 JUMPI POP SWAP1 DUP5 PUSH1 0x1 SWAP6 SWAP5 SWAP4 SWAP3 LT PUSH2 0x20CE JUMPI JUMPDEST POP POP POP DUP2 SHL ADD SWAP1 SSTORE PUSH2 0x1EEA JUMP JUMPDEST ADD MLOAD PUSH0 NOT PUSH1 0xF8 DUP5 PUSH1 0x3 SHL AND SHR NOT AND SWAP1 SSTORE PUSH0 DUP1 DUP1 PUSH2 0x20C1 JUMP JUMPDEST SWAP3 SWAP4 PUSH1 0x20 PUSH1 0x1 DUP2 SWAP3 DUP8 DUP7 ADD MLOAD DUP2 SSTORE ADD SWAP6 ADD SWAP4 ADD PUSH2 0x20AB JUMP JUMPDEST PUSH1 0x1F NOT DUP3 AND SWAP6 DUP5 PUSH0 MSTORE DUP1 PUSH0 KECCAK256 SWAP2 PUSH0 JUMPDEST DUP9 DUP2 LT PUSH2 0x2147 JUMPI POP DUP4 PUSH1 0x1 SWAP6 SWAP7 SWAP8 SWAP9 LT PUSH2 0x212F JUMPI JUMPDEST POP POP POP DUP2 SHL ADD DUP3 SSTORE PUSH2 0x1E72 JUMP JUMPDEST ADD MLOAD PUSH0 NOT PUSH1 0xF8 DUP5 PUSH1 0x3 SHL AND SHR NOT AND SWAP1 SSTORE PUSH0 DUP1 DUP1 PUSH2 0x2122 JUMP JUMPDEST SWAP2 SWAP3 PUSH1 0x20 PUSH1 0x1 DUP2 SWAP3 DUP7 DUP6 ADD MLOAD DUP2 SSTORE ADD SWAP5 ADD SWAP3 ADD PUSH2 0x210D JUMP JUMPDEST SWAP2 SWAP1 DUP3 SUB SWAP2 DUP3 GT PUSH2 0x675 JUMPI JUMP JUMPDEST SWAP2 SWAP1 SWAP2 DUP3 DUP2 EQ PUSH2 0x2241 JUMPI PUSH2 0x2180 DUP4 SLOAD PUSH2 0x1B83 JUMP JUMPDEST PUSH8 0xFFFFFFFFFFFFFFFF DUP2 GT PUSH2 0x555 JUMPI PUSH2 0x219D DUP2 PUSH2 0x19B0 DUP5 SLOAD PUSH2 0x1B83 JUMP JUMPDEST PUSH0 SWAP4 PUSH1 0x1F DUP3 GT PUSH1 0x1 EQ PUSH2 0x21DB JUMPI PUSH2 0x21CC SWAP3 SWAP4 SWAP5 DUP3 SWAP2 PUSH0 SWAP3 PUSH2 0x21D0 JUMPI POP POP DUP2 PUSH1 0x1 SHL SWAP2 PUSH0 NOT SWAP1 PUSH1 0x3 SHL SHR NOT AND OR SWAP1 JUMP JUMPDEST SWAP1 SSTORE JUMP JUMPDEST ADD SLOAD SWAP1 POP PUSH0 DUP1 PUSH2 0x2E5 JUMP JUMPDEST PUSH1 0x1F NOT DUP3 AND SWAP1 PUSH0 MSTORE PUSH1 0x20 PUSH0 KECCAK256 SWAP5 DUP4 PUSH0 MSTORE PUSH1 0x20 PUSH0 KECCAK256 SWAP2 PUSH0 JUMPDEST DUP2 DUP2 LT PUSH2 0x2229 JUMPI POP SWAP6 DUP4 PUSH1 0x1 SWAP6 SWAP7 SWAP8 LT PUSH2 0x2211 JUMPI JUMPDEST POP POP POP DUP2 SHL ADD SWAP1 SSTORE JUMP JUMPDEST ADD SLOAD PUSH0 NOT PUSH1 0xF8 DUP5 PUSH1 0x3 SHL AND SHR NOT AND SWAP1 SSTORE PUSH0 DUP1 DUP1 PUSH2 0x2207 JUMP JUMPDEST SWAP2 SWAP3 PUSH1 0x1 DUP1 PUSH1 0x20 SWAP3 DUP7 DUP12 ADD SLOAD DUP2 SSTORE ADD SWAP5 ADD SWAP3 ADD PUSH2 0x21F2 JUMP JUMPDEST POP SWAP1 POP JUMP JUMPDEST PUSH2 0x2250 DUP2 SLOAD PUSH2 0x1B83 JUMP JUMPDEST SWAP1 DUP2 PUSH2 0x225A JUMPI POP POP JUMP JUMPDEST DUP2 PUSH1 0x1F PUSH0 SWAP4 GT PUSH1 0x1 EQ PUSH2 0x226B JUMPI POP SSTORE JUMP JUMPDEST DUP2 DUP4 MSTORE PUSH1 0x20 DUP4 KECCAK256 PUSH2 0x2287 SWAP2 PUSH1 0x1F ADD PUSH1 0x5 SHR DUP2 ADD SWAP1 PUSH1 0x1 ADD PUSH2 0x1D6A JUMP JUMPDEST DUP1 DUP3 MSTORE DUP2 PUSH1 0x20 DUP2 KECCAK256 SWAP2 SSTORE SSTORE JUMP JUMPDEST PUSH1 0x40 MLOAD DUP1 SWAP2 PUSH0 SWAP1 DUP1 SLOAD SWAP1 PUSH2 0x22A7 DUP3 PUSH2 0x1B83 JUMP JUMPDEST SWAP2 PUSH1 0x1 DUP2 AND SWAP1 DUP2 ISZERO PUSH2 0x22F9 JUMPI POP PUSH1 0x1 EQ PUSH2 0x22C4 JUMPI JUMPDEST POP POP SUB SWAP1 KECCAK256 SWAP1 JUMP JUMPDEST SWAP1 SWAP2 POP PUSH0 MSTORE PUSH1 0x20 PUSH0 KECCAK256 PUSH0 SWAP1 JUMPDEST DUP3 DUP3 LT PUSH2 0x22E2 JUMPI POP POP DUP2 ADD PUSH0 DUP1 PUSH2 0x22BC JUMP JUMPDEST DUP1 SLOAD DUP3 DUP7 ADD MSTORE DUP5 SWAP4 POP PUSH1 0x20 SWAP1 SWAP2 ADD SWAP1 PUSH1 0x1 ADD PUSH2 0x22D0 JUMP JUMPDEST PUSH1 0xFF NOT AND DUP6 MSTORE POP POP DUP1 ISZERO ISZERO MUL DUP3 ADD SWAP1 POP PUSH0 DUP1 PUSH2 0x22BC JUMP JUMPDEST PUSH1 0x1 PUSH1 0x1 PUSH1 0xA0 SHL SUB AND DUP1 PUSH0 MSTORE PUSH1 0x2 PUSH1 0x20 MSTORE PUSH1 0x3 PUSH1 0x40 PUSH0 KECCAK256 ADD SWAP2 DUP3 SLOAD ISZERO PUSH2 0x259D JUMPI PUSH0 JUMPDEST DUP4 SLOAD DUP1 DUP3 LT ISZERO PUSH2 0x2595 JUMPI DUP3 PUSH1 0x1 PUSH2 0x2349 DUP5 DUP9 PUSH2 0x1DEC JUMP JUMPDEST POP ADD SLOAD EQ PUSH2 0x235A JUMPI POP PUSH1 0x1 ADD PUSH2 0x2332 JUMP JUMPDEST SWAP1 SWAP3 SWAP4 SWAP5 PUSH2 0x2429 JUMPI POP PUSH1 0xFF PUSH1 0x7 PUSH2 0x2371 DUP5 DUP8 PUSH2 0x1DEC JUMP JUMPDEST POP ADD SLOAD AND PUSH2 0x23E5 JUMPI PUSH32 0xA1DD8BFFFC07FC409283EBE17379C69EBF3009C7850E520417C606D1859533FF SWAP3 PUSH1 0x7 PUSH2 0x23B8 DUP5 PUSH1 0x3 PUSH2 0x23AF PUSH1 0x40 SWAP8 DUP11 PUSH2 0x1DEC JUMP JUMPDEST POP ADD SLOAD SWAP8 PUSH2 0x1DEC JUMP JUMPDEST POP ADD PUSH1 0x1 PUSH1 0xFF NOT DUP3 SLOAD AND OR SWAP1 SSTORE PUSH0 MSTORE PUSH1 0x2 PUSH1 0x20 MSTORE PUSH2 0x23D7 DUP3 PUSH0 KECCAK256 PUSH2 0x2294 JUMP JUMPDEST SWAP4 DUP3 MLOAD SWAP2 DUP3 MSTORE PUSH1 0x20 DUP3 ADD MSTORE LOG2 JUMP JUMPDEST PUSH1 0x64 PUSH1 0x40 MLOAD PUSH3 0x461BCD PUSH1 0xE5 SHL DUP2 MSTORE PUSH1 0x20 PUSH1 0x4 DUP3 ADD MSTORE PUSH1 0x11 PUSH1 0x24 DUP3 ADD MSTORE PUSH32 0x616C726561647920636F6D706C65746564000000000000000000000000000000 PUSH1 0x44 DUP3 ADD MSTORE REVERT JUMPDEST SWAP4 SWAP3 SWAP2 PUSH1 0x2 PUSH2 0x2438 DUP3 DUP7 PUSH2 0x1DEC JUMP JUMPDEST POP ADD SLOAD SWAP5 PUSH0 NOT DUP2 ADD SWAP1 DUP2 GT PUSH2 0x675 JUMPI PUSH2 0x2454 PUSH2 0x245C SWAP2 DUP7 PUSH2 0x1DEC JUMP JUMPDEST POP SWAP2 DUP6 PUSH2 0x1DEC JUMP JUMPDEST PUSH2 0x156B JUMPI DUP2 DUP2 SUB PUSH2 0x2517 JUMPI JUMPDEST POP POP DUP3 SLOAD DUP1 ISZERO PUSH2 0x2503 JUMPI PUSH0 NOT ADD SWAP2 PUSH2 0x2480 DUP4 DUP6 PUSH2 0x1DEC JUMP JUMPDEST SWAP4 SWAP1 SWAP4 PUSH2 0x156B JUMPI PUSH32 0xA1DD8BFFFC07FC409283EBE17379C69EBF3009C7850E520417C606D1859533FF SWAP5 PUSH0 PUSH1 0x7 DUP7 PUSH2 0x24B8 PUSH1 0x40 SWAP9 PUSH2 0x2246 JUMP JUMPDEST DUP3 PUSH1 0x1 DUP3 ADD SSTORE DUP3 PUSH1 0x2 DUP3 ADD SSTORE DUP3 PUSH1 0x3 DUP3 ADD SSTORE PUSH2 0x24D6 PUSH1 0x4 DUP3 ADD PUSH2 0x2246 JUMP JUMPDEST PUSH2 0x24E2 PUSH1 0x5 DUP3 ADD PUSH2 0x2246 JUMP JUMPDEST PUSH2 0x24EE PUSH1 0x6 DUP3 ADD PUSH2 0x2246 JUMP JUMPDEST ADD SSTORE SSTORE PUSH0 MSTORE PUSH1 0x2 PUSH1 0x20 MSTORE PUSH2 0x23D7 DUP3 PUSH0 KECCAK256 PUSH2 0x2294 JUMP JUMPDEST PUSH4 0x4E487B71 PUSH1 0xE0 SHL PUSH0 MSTORE PUSH1 0x31 PUSH1 0x4 MSTORE PUSH1 0x24 PUSH0 REVERT JUMPDEST PUSH1 0x7 PUSH1 0xFF DUP2 DUP5 PUSH2 0x252A PUSH2 0x258E SWAP7 DUP7 PUSH2 0x216C JUMP JUMPDEST PUSH1 0x1 DUP2 ADD SLOAD PUSH1 0x1 DUP7 ADD SSTORE PUSH1 0x2 DUP2 ADD SLOAD PUSH1 0x2 DUP7 ADD SSTORE PUSH1 0x3 DUP2 ADD SLOAD PUSH1 0x3 DUP7 ADD SSTORE PUSH2 0x2558 PUSH1 0x4 DUP3 ADD PUSH1 0x4 DUP8 ADD PUSH2 0x216C JUMP JUMPDEST PUSH2 0x2568 PUSH1 0x5 DUP3 ADD PUSH1 0x5 DUP8 ADD PUSH2 0x216C JUMP JUMPDEST PUSH2 0x2578 PUSH1 0x6 DUP3 ADD PUSH1 0x6 DUP8 ADD PUSH2 0x216C JUMP JUMPDEST ADD SLOAD AND SWAP2 ADD SWAP1 PUSH1 0xFF DUP1 NOT DUP4 SLOAD AND SWAP2 ISZERO ISZERO AND OR SWAP1 SSTORE JUMP JUMPDEST PUSH0 DUP1 PUSH2 0x2468 JUMP JUMPDEST POP POP POP POP POP POP JUMP JUMPDEST PUSH1 0x64 PUSH1 0x40 MLOAD PUSH32 0x38FE1E9A00000000000000000000000000000000000000000000000000000000 DUP2 MSTORE PUSH1 0x20 PUSH1 0x4 DUP3 ADD MSTORE PUSH1 0x6 PUSH1 0x24 DUP3 ADD MSTORE PUSH32 0x7769736865730000000000000000000000000000000000000000000000000000 PUSH1 0x44 DUP3 ADD MSTORE REVERT JUMPDEST ISZERO PUSH2 0x2602 JUMPI JUMP JUMPDEST PUSH1 0x64 PUSH1 0x40 MLOAD PUSH3 0x461BCD PUSH1 0xE5 SHL DUP2 MSTORE PUSH1 0x20 PUSH1 0x4 DUP3 ADD MSTORE PUSH1 0x10 PUSH1 0x24 DUP3 ADD MSTORE PUSH32 0x6E6F7420656E6F756768206D6F6E657900000000000000000000000000000000 PUSH1 0x44 DUP3 ADD MSTORE REVERT JUMPDEST RETURNDATASIZE ISZERO PUSH2 0x2670 JUMPI RETURNDATASIZE SWAP1 PUSH2 0x2657 DUP3 PUSH2 0x1B0B JUMP JUMPDEST SWAP2 PUSH2 0x2665 PUSH1 0x40 MLOAD SWAP4 DUP5 PUSH2 0x1AE9 JUMP JUMPDEST DUP3 MSTORE RETURNDATASIZE PUSH0 PUSH1 0x20 DUP5 ADD RETURNDATACOPY JUMP JUMPDEST PUSH1 0x60 SWAP1 JUMP JUMPDEST ISZERO PUSH2 0x267C JUMPI JUMP JUMPDEST PUSH4 0x4E487B71 PUSH1 0xE0 SHL PUSH0 MSTORE PUSH1 0x1 PUSH1 0x4 MSTORE PUSH1 0x24 PUSH0 REVERT INVALID LOG2 PUSH5 0x6970667358 0x22 SLT KECCAK256 SWAP7 0xC7 ORIGIN DUP5 0xA6 0xA6 PUSH5 0x41A5249A7 0x2F 0xBF 0xE8 0xC5 DUP2 DUP3 SUB SWAP15 PUSH0 0xCE 0xA6 TSTORE DUP1 0x29 0xFC SAR DUP7 0xFB PUSH12 0x1864736F6C634300081C0033 "
        },
        "methodIdentifiers": {
          "K()": "a932492f",
          "MINIMAL_TRANSFER_COST()": "54845a47",
          "SCALE()": "eced5526",
          "addWish((string,uint256,uint256,uint256,string,string,string,bool))": "708e8d6d",
          "changeName(string)": "5353a2d8",
          "completeOrRemoveWish(address,uint256,bool)": "b3767e58",
          "donate(string,(string,string),(uint256,string,string,uint256,address,uint8))": "591794a5",
          "owner()": "8da5cb5b",
          "ownerBalance()": "bedcf003",
          "ownerWithdaw(uint256)": "f69e6d47",
          "registerUser(string,string,string[])": "e7a8c912",
          "users(address)": "a87430ba",
          "withdraw(string,string,uint256)": "ba73b818"
        }
      }
    }
  }
}